{
  "contractName": "TemakiToken",
  "abi": [
    {
      "inputs": [],
      "stateMutability": "nonpayable",
      "type": "constructor"
    },
    {
      "anonymous": false,
      "inputs": [
        {
          "indexed": true,
          "internalType": "address",
          "name": "owner",
          "type": "address"
        },
        {
          "indexed": true,
          "internalType": "address",
          "name": "spender",
          "type": "address"
        },
        {
          "indexed": false,
          "internalType": "uint256",
          "name": "value",
          "type": "uint256"
        }
      ],
      "name": "Approval",
      "type": "event"
    },
    {
      "anonymous": false,
      "inputs": [
        {
          "indexed": true,
          "internalType": "address",
          "name": "sender",
          "type": "address"
        },
        {
          "indexed": false,
          "internalType": "uint256",
          "name": "amount",
          "type": "uint256"
        }
      ],
      "name": "Burn",
      "type": "event"
    },
    {
      "anonymous": false,
      "inputs": [
        {
          "indexed": true,
          "internalType": "address",
          "name": "sender",
          "type": "address"
        },
        {
          "indexed": false,
          "internalType": "uint256",
          "name": "amount",
          "type": "uint256"
        }
      ],
      "name": "Mint",
      "type": "event"
    },
    {
      "anonymous": false,
      "inputs": [
        {
          "indexed": true,
          "internalType": "address",
          "name": "previousOwner",
          "type": "address"
        },
        {
          "indexed": true,
          "internalType": "address",
          "name": "newOwner",
          "type": "address"
        }
      ],
      "name": "OwnershipTransferred",
      "type": "event"
    },
    {
      "anonymous": false,
      "inputs": [
        {
          "indexed": true,
          "internalType": "address",
          "name": "from",
          "type": "address"
        },
        {
          "indexed": true,
          "internalType": "address",
          "name": "to",
          "type": "address"
        },
        {
          "indexed": false,
          "internalType": "uint256",
          "name": "value",
          "type": "uint256"
        }
      ],
      "name": "Transfer",
      "type": "event"
    },
    {
      "inputs": [],
      "name": "_name",
      "outputs": [
        {
          "internalType": "string",
          "name": "",
          "type": "string"
        }
      ],
      "stateMutability": "view",
      "type": "function"
    },
    {
      "inputs": [],
      "name": "_symbol",
      "outputs": [
        {
          "internalType": "string",
          "name": "",
          "type": "string"
        }
      ],
      "stateMutability": "view",
      "type": "function"
    },
    {
      "inputs": [
        {
          "internalType": "address",
          "name": "owner",
          "type": "address"
        },
        {
          "internalType": "address",
          "name": "spender",
          "type": "address"
        }
      ],
      "name": "allowance",
      "outputs": [
        {
          "internalType": "uint256",
          "name": "",
          "type": "uint256"
        }
      ],
      "stateMutability": "view",
      "type": "function"
    },
    {
      "inputs": [
        {
          "internalType": "address",
          "name": "spender",
          "type": "address"
        },
        {
          "internalType": "uint256",
          "name": "amount",
          "type": "uint256"
        }
      ],
      "name": "approve",
      "outputs": [
        {
          "internalType": "bool",
          "name": "",
          "type": "bool"
        }
      ],
      "stateMutability": "nonpayable",
      "type": "function"
    },
    {
      "inputs": [
        {
          "internalType": "address",
          "name": "account",
          "type": "address"
        }
      ],
      "name": "balanceOf",
      "outputs": [
        {
          "internalType": "uint256",
          "name": "",
          "type": "uint256"
        }
      ],
      "stateMutability": "view",
      "type": "function"
    },
    {
      "inputs": [],
      "name": "decimals",
      "outputs": [
        {
          "internalType": "uint8",
          "name": "",
          "type": "uint8"
        }
      ],
      "stateMutability": "view",
      "type": "function"
    },
    {
      "inputs": [
        {
          "internalType": "address",
          "name": "spender",
          "type": "address"
        },
        {
          "internalType": "uint256",
          "name": "subtractedValue",
          "type": "uint256"
        }
      ],
      "name": "decreaseAllowance",
      "outputs": [
        {
          "internalType": "bool",
          "name": "",
          "type": "bool"
        }
      ],
      "stateMutability": "nonpayable",
      "type": "function"
    },
    {
      "inputs": [
        {
          "internalType": "address",
          "name": "spender",
          "type": "address"
        },
        {
          "internalType": "uint256",
          "name": "addedValue",
          "type": "uint256"
        }
      ],
      "name": "increaseAllowance",
      "outputs": [
        {
          "internalType": "bool",
          "name": "",
          "type": "bool"
        }
      ],
      "stateMutability": "nonpayable",
      "type": "function"
    },
    {
      "inputs": [],
      "name": "name",
      "outputs": [
        {
          "internalType": "string",
          "name": "",
          "type": "string"
        }
      ],
      "stateMutability": "view",
      "type": "function"
    },
    {
      "inputs": [],
      "name": "owner",
      "outputs": [
        {
          "internalType": "address",
          "name": "",
          "type": "address"
        }
      ],
      "stateMutability": "view",
      "type": "function"
    },
    {
      "inputs": [],
      "name": "renounceOwnership",
      "outputs": [],
      "stateMutability": "nonpayable",
      "type": "function"
    },
    {
      "inputs": [],
      "name": "symbol",
      "outputs": [
        {
          "internalType": "string",
          "name": "",
          "type": "string"
        }
      ],
      "stateMutability": "view",
      "type": "function"
    },
    {
      "inputs": [],
      "name": "totalSupply",
      "outputs": [
        {
          "internalType": "uint256",
          "name": "",
          "type": "uint256"
        }
      ],
      "stateMutability": "view",
      "type": "function"
    },
    {
      "inputs": [
        {
          "internalType": "address",
          "name": "to",
          "type": "address"
        },
        {
          "internalType": "uint256",
          "name": "amount",
          "type": "uint256"
        }
      ],
      "name": "transfer",
      "outputs": [
        {
          "internalType": "bool",
          "name": "",
          "type": "bool"
        }
      ],
      "stateMutability": "nonpayable",
      "type": "function"
    },
    {
      "inputs": [
        {
          "internalType": "address",
          "name": "from",
          "type": "address"
        },
        {
          "internalType": "address",
          "name": "to",
          "type": "address"
        },
        {
          "internalType": "uint256",
          "name": "amount",
          "type": "uint256"
        }
      ],
      "name": "transferFrom",
      "outputs": [
        {
          "internalType": "bool",
          "name": "",
          "type": "bool"
        }
      ],
      "stateMutability": "nonpayable",
      "type": "function"
    },
    {
      "inputs": [
        {
          "internalType": "address",
          "name": "newOwner",
          "type": "address"
        }
      ],
      "name": "transferOwnership",
      "outputs": [],
      "stateMutability": "nonpayable",
      "type": "function"
    },
    {
      "inputs": [
        {
          "internalType": "address",
          "name": "buyer",
          "type": "address"
        },
        {
          "internalType": "uint256",
          "name": "amount",
          "type": "uint256"
        }
      ],
      "name": "mint",
      "outputs": [],
      "stateMutability": "nonpayable",
      "type": "function"
    },
    {
      "inputs": [
        {
          "internalType": "address",
          "name": "burner",
          "type": "address"
        },
        {
          "internalType": "uint256",
          "name": "amount",
          "type": "uint256"
        }
      ],
      "name": "burn",
      "outputs": [],
      "stateMutability": "nonpayable",
      "type": "function"
    }
  ],
  "bytecode": "0x60806040526040518060400160405280600b81526020017f54656d616b69546f6b656e0000000000000000000000000000000000000000008152506006908051906020019062000051929190620002fc565b506040518060400160405280600481526020017f544d4b5400000000000000000000000000000000000000000000000000000000815250600790805190602001906200009f929190620002fc565b50348015620000ad57600080fd5b5060068054620000bd90620003db565b80601f0160208091040260200160405190810160405280929190818152602001828054620000eb90620003db565b80156200013c5780601f1062000110576101008083540402835291602001916200013c565b820191906000526020600020905b8154815290600101906020018083116200011e57829003601f168201915b5050505050600780546200015090620003db565b80601f01602080910402602001604051908101604052809291908181526020018280546200017e90620003db565b8015620001cf5780601f10620001a357610100808354040283529160200191620001cf565b820191906000526020600020905b815481529060010190602001808311620001b157829003601f168201915b50505050508160039080519060200190620001ec929190620002fc565b50806004908051906020019062000205929190620002fc565b505050620002286200021c6200022e60201b60201c565b6200023660201b60201c565b62000411565b600033905090565b6000600560009054906101000a900473ffffffffffffffffffffffffffffffffffffffff16905081600560006101000a81548173ffffffffffffffffffffffffffffffffffffffff021916908373ffffffffffffffffffffffffffffffffffffffff1602179055508173ffffffffffffffffffffffffffffffffffffffff168173ffffffffffffffffffffffffffffffffffffffff167f8be0079c531659141344cd1fd0a4f28419497f9722a3daafe3b4186f6b6457e060405160405180910390a35050565b8280546200030a90620003db565b90600052602060002090601f0160209004810192826200032e57600085556200037a565b82601f106200034957805160ff19168380011785556200037a565b828001600101855582156200037a579182015b82811115620003795782518255916020019190600101906200035c565b5b5090506200038991906200038d565b5090565b5b80821115620003a85760008160009055506001016200038e565b5090565b7f4e487b7100000000000000000000000000000000000000000000000000000000600052602260045260246000fd5b60006002820490506001821680620003f457607f821691505b602082108114156200040b576200040a620003ac565b5b50919050565b611fd680620004216000396000f3fe608060405234801561001057600080fd5b50600436106101165760003560e01c80638da5cb5b116100a2578063a9059cbb11610071578063a9059cbb146102e3578063b09f126614610313578063d28d885214610331578063dd62ed3e1461034f578063f2fde38b1461037f57610116565b80638da5cb5b1461025b57806395d89b41146102795780639dc29fac14610297578063a457c2d7146102b357610116565b8063313ce567116100e9578063313ce567146101b757806339509351146101d557806340c10f191461020557806370a0823114610221578063715018a61461025157610116565b806306fdde031461011b578063095ea7b31461013957806318160ddd1461016957806323b872dd14610187575b600080fd5b61012361039b565b604051610130919061154a565b60405180910390f35b610153600480360381019061014e9190611605565b61042d565b6040516101609190611660565b60405180910390f35b610171610450565b60405161017e919061168a565b60405180910390f35b6101a1600480360381019061019c91906116a5565b61045a565b6040516101ae9190611660565b60405180910390f35b6101bf610489565b6040516101cc9190611714565b60405180910390f35b6101ef60048036038101906101ea9190611605565b610492565b6040516101fc9190611660565b60405180910390f35b61021f600480360381019061021a9190611605565b61053c565b005b61023b6004803603810190610236919061172f565b61063a565b604051610248919061168a565b60405180910390f35b610259610682565b005b61026361070a565b604051610270919061176b565b60405180910390f35b610281610734565b60405161028e919061154a565b60405180910390f35b6102b160048036038101906102ac9190611605565b6107c6565b005b6102cd60048036038101906102c89190611605565b610822565b6040516102da9190611660565b60405180910390f35b6102fd60048036038101906102f89190611605565b61090c565b60405161030a9190611660565b60405180910390f35b61031b61092f565b604051610328919061154a565b60405180910390f35b6103396109bd565b604051610346919061154a565b60405180910390f35b61036960048036038101906103649190611786565b610a4b565b604051610376919061168a565b60405180910390f35b6103996004803603810190610394919061172f565b610ad2565b005b6060600380546103aa906117f5565b80601f01602080910402602001604051908101604052809291908181526020018280546103d6906117f5565b80156104235780601f106103f857610100808354040283529160200191610423565b820191906000526020600020905b81548152906001019060200180831161040657829003601f168201915b5050505050905090565b600080610438610bca565b9050610445818585610bd2565b600191505092915050565b6000600254905090565b600080610465610bca565b9050610472858285610d9d565b61047d858585610e29565b60019150509392505050565b60006012905090565b60008061049d610bca565b9050610531818585600160008673ffffffffffffffffffffffffffffffffffffffff1673ffffffffffffffffffffffffffffffffffffffff16815260200190815260200160002060008973ffffffffffffffffffffffffffffffffffffffff1673ffffffffffffffffffffffffffffffffffffffff1681526020019081526020016000205461052c9190611856565b610bd2565b600191505092915050565b610544610bca565b73ffffffffffffffffffffffffffffffffffffffff1661056261070a565b73ffffffffffffffffffffffffffffffffffffffff16146105b8576040517f08c379a00000000000000000000000000000000000000000000000000000000081526004016105af906118f8565b60405180910390fd5b6105d582670de0b6b3a7640000836105d09190611918565b6110aa565b8173ffffffffffffffffffffffffffffffffffffffff167f0f6798a560793a54c3bcfe86a93cde1e73087d944c0ea20544137d4121396885670de0b6b3a7640000836106219190611918565b60405161062e919061168a565b60405180910390a25050565b60008060008373ffffffffffffffffffffffffffffffffffffffff1673ffffffffffffffffffffffffffffffffffffffff168152602001908152602001600020549050919050565b61068a610bca565b73ffffffffffffffffffffffffffffffffffffffff166106a861070a565b73ffffffffffffffffffffffffffffffffffffffff16146106fe576040517f08c379a00000000000000000000000000000000000000000000000000000000081526004016106f5906118f8565b60405180910390fd5b610708600061120a565b565b6000600560009054906101000a900473ffffffffffffffffffffffffffffffffffffffff16905090565b606060048054610743906117f5565b80601f016020809104026020016040519081016040528092919081815260200182805461076f906117f5565b80156107bc5780601f10610791576101008083540402835291602001916107bc565b820191906000526020600020905b81548152906001019060200180831161079f57829003601f168201915b5050505050905090565b6107d082826112d0565b8173ffffffffffffffffffffffffffffffffffffffff167fcc16f5dbb4873280815c1ee09dbd06736cffcc184412cf7a71a0fdb75d397ca582604051610816919061168a565b60405180910390a25050565b60008061082d610bca565b90506000600160008373ffffffffffffffffffffffffffffffffffffffff1673ffffffffffffffffffffffffffffffffffffffff16815260200190815260200160002060008673ffffffffffffffffffffffffffffffffffffffff1673ffffffffffffffffffffffffffffffffffffffff168152602001908152602001600020549050838110156108f3576040517f08c379a00000000000000000000000000000000000000000000000000000000081526004016108ea906119e4565b60405180910390fd5b6109008286868403610bd2565b60019250505092915050565b600080610917610bca565b9050610924818585610e29565b600191505092915050565b6007805461093c906117f5565b80601f0160208091040260200160405190810160405280929190818152602001828054610968906117f5565b80156109b55780601f1061098a576101008083540402835291602001916109b5565b820191906000526020600020905b81548152906001019060200180831161099857829003601f168201915b505050505081565b600680546109ca906117f5565b80601f01602080910402602001604051908101604052809291908181526020018280546109f6906117f5565b8015610a435780601f10610a1857610100808354040283529160200191610a43565b820191906000526020600020905b815481529060010190602001808311610a2657829003601f168201915b505050505081565b6000600160008473ffffffffffffffffffffffffffffffffffffffff1673ffffffffffffffffffffffffffffffffffffffff16815260200190815260200160002060008373ffffffffffffffffffffffffffffffffffffffff1673ffffffffffffffffffffffffffffffffffffffff16815260200190815260200160002054905092915050565b610ada610bca565b73ffffffffffffffffffffffffffffffffffffffff16610af861070a565b73ffffffffffffffffffffffffffffffffffffffff1614610b4e576040517f08c379a0000000000000000000000000000000000000000000000000000000008152600401610b45906118f8565b60405180910390fd5b600073ffffffffffffffffffffffffffffffffffffffff168173ffffffffffffffffffffffffffffffffffffffff161415610bbe576040517f08c379a0000000000000000000000000000000000000000000000000000000008152600401610bb590611a76565b60405180910390fd5b610bc78161120a565b50565b600033905090565b600073ffffffffffffffffffffffffffffffffffffffff168373ffffffffffffffffffffffffffffffffffffffff161415610c42576040517f08c379a0000000000000000000000000000000000000000000000000000000008152600401610c3990611b08565b60405180910390fd5b600073ffffffffffffffffffffffffffffffffffffffff168273ffffffffffffffffffffffffffffffffffffffff161415610cb2576040517f08c379a0000000000000000000000000000000000000000000000000000000008152600401610ca990611b9a565b60405180910390fd5b80600160008573ffffffffffffffffffffffffffffffffffffffff1673ffffffffffffffffffffffffffffffffffffffff16815260200190815260200160002060008473ffffffffffffffffffffffffffffffffffffffff1673ffffffffffffffffffffffffffffffffffffffff168152602001908152602001600020819055508173ffffffffffffffffffffffffffffffffffffffff168373ffffffffffffffffffffffffffffffffffffffff167f8c5be1e5ebec7d5bd14f71427d1e84f3dd0314c0f7b2291e5b200ac8c7c3b92583604051610d90919061168a565b60405180910390a3505050565b6000610da98484610a4b565b90507fffffffffffffffffffffffffffffffffffffffffffffffffffffffffffffffff8114610e235781811015610e15576040517f08c379a0000000000000000000000000000000000000000000000000000000008152600401610e0c90611c06565b60405180910390fd5b610e228484848403610bd2565b5b50505050565b600073ffffffffffffffffffffffffffffffffffffffff168373ffffffffffffffffffffffffffffffffffffffff161415610e99576040517f08c379a0000000000000000000000000000000000000000000000000000000008152600401610e9090611c98565b60405180910390fd5b600073ffffffffffffffffffffffffffffffffffffffff168273ffffffffffffffffffffffffffffffffffffffff161415610f09576040517f08c379a0000000000000000000000000000000000000000000000000000000008152600401610f0090611d2a565b60405180910390fd5b610f148383836114a7565b60008060008573ffffffffffffffffffffffffffffffffffffffff1673ffffffffffffffffffffffffffffffffffffffff16815260200190815260200160002054905081811015610f9a576040517f08c379a0000000000000000000000000000000000000000000000000000000008152600401610f9190611dbc565b60405180910390fd5b8181036000808673ffffffffffffffffffffffffffffffffffffffff1673ffffffffffffffffffffffffffffffffffffffff16815260200190815260200160002081905550816000808573ffffffffffffffffffffffffffffffffffffffff1673ffffffffffffffffffffffffffffffffffffffff168152602001908152602001600020600082825461102d9190611856565b925050819055508273ffffffffffffffffffffffffffffffffffffffff168473ffffffffffffffffffffffffffffffffffffffff167fddf252ad1be2c89b69c2b068fc378daa952ba7f163c4a11628f55a4df523b3ef84604051611091919061168a565b60405180910390a36110a48484846114ac565b50505050565b600073ffffffffffffffffffffffffffffffffffffffff168273ffffffffffffffffffffffffffffffffffffffff16141561111a576040517f08c379a000000000000000000000000000000000000000000000000000000000815260040161111190611e28565b60405180910390fd5b611126600083836114a7565b80600260008282546111389190611856565b92505081905550806000808473ffffffffffffffffffffffffffffffffffffffff1673ffffffffffffffffffffffffffffffffffffffff168152602001908152602001600020600082825461118d9190611856565b925050819055508173ffffffffffffffffffffffffffffffffffffffff16600073ffffffffffffffffffffffffffffffffffffffff167fddf252ad1be2c89b69c2b068fc378daa952ba7f163c4a11628f55a4df523b3ef836040516111f2919061168a565b60405180910390a3611206600083836114ac565b5050565b6000600560009054906101000a900473ffffffffffffffffffffffffffffffffffffffff16905081600560006101000a81548173ffffffffffffffffffffffffffffffffffffffff021916908373ffffffffffffffffffffffffffffffffffffffff1602179055508173ffffffffffffffffffffffffffffffffffffffff168173ffffffffffffffffffffffffffffffffffffffff167f8be0079c531659141344cd1fd0a4f28419497f9722a3daafe3b4186f6b6457e060405160405180910390a35050565b600073ffffffffffffffffffffffffffffffffffffffff168273ffffffffffffffffffffffffffffffffffffffff161415611340576040517f08c379a000000000000000000000000000000000000000000000000000000000815260040161133790611eba565b60405180910390fd5b61134c826000836114a7565b60008060008473ffffffffffffffffffffffffffffffffffffffff1673ffffffffffffffffffffffffffffffffffffffff168152602001908152602001600020549050818110156113d2576040517f08c379a00000000000000000000000000000000000000000000000000000000081526004016113c990611f4c565b60405180910390fd5b8181036000808573ffffffffffffffffffffffffffffffffffffffff1673ffffffffffffffffffffffffffffffffffffffff1681526020019081526020016000208190555081600260008282546114299190611f6c565b92505081905550600073ffffffffffffffffffffffffffffffffffffffff168373ffffffffffffffffffffffffffffffffffffffff167fddf252ad1be2c89b69c2b068fc378daa952ba7f163c4a11628f55a4df523b3ef8460405161148e919061168a565b60405180910390a36114a2836000846114ac565b505050565b505050565b505050565b600081519050919050565b600082825260208201905092915050565b60005b838110156114eb5780820151818401526020810190506114d0565b838111156114fa576000848401525b50505050565b6000601f19601f8301169050919050565b600061151c826114b1565b61152681856114bc565b93506115368185602086016114cd565b61153f81611500565b840191505092915050565b600060208201905081810360008301526115648184611511565b905092915050565b600080fd5b600073ffffffffffffffffffffffffffffffffffffffff82169050919050565b600061159c82611571565b9050919050565b6115ac81611591565b81146115b757600080fd5b50565b6000813590506115c9816115a3565b92915050565b6000819050919050565b6115e2816115cf565b81146115ed57600080fd5b50565b6000813590506115ff816115d9565b92915050565b6000806040838503121561161c5761161b61156c565b5b600061162a858286016115ba565b925050602061163b858286016115f0565b9150509250929050565b60008115159050919050565b61165a81611645565b82525050565b60006020820190506116756000830184611651565b92915050565b611684816115cf565b82525050565b600060208201905061169f600083018461167b565b92915050565b6000806000606084860312156116be576116bd61156c565b5b60006116cc868287016115ba565b93505060206116dd868287016115ba565b92505060406116ee868287016115f0565b9150509250925092565b600060ff82169050919050565b61170e816116f8565b82525050565b60006020820190506117296000830184611705565b92915050565b6000602082840312156117455761174461156c565b5b6000611753848285016115ba565b91505092915050565b61176581611591565b82525050565b6000602082019050611780600083018461175c565b92915050565b6000806040838503121561179d5761179c61156c565b5b60006117ab858286016115ba565b92505060206117bc858286016115ba565b9150509250929050565b7f4e487b7100000000000000000000000000000000000000000000000000000000600052602260045260246000fd5b6000600282049050600182168061180d57607f821691505b60208210811415611821576118206117c6565b5b50919050565b7f4e487b7100000000000000000000000000000000000000000000000000000000600052601160045260246000fd5b6000611861826115cf565b915061186c836115cf565b9250827fffffffffffffffffffffffffffffffffffffffffffffffffffffffffffffffff038211156118a1576118a0611827565b5b828201905092915050565b7f4f776e61626c653a2063616c6c6572206973206e6f7420746865206f776e6572600082015250565b60006118e26020836114bc565b91506118ed826118ac565b602082019050919050565b60006020820190508181036000830152611911816118d5565b9050919050565b6000611923826115cf565b915061192e836115cf565b9250817fffffffffffffffffffffffffffffffffffffffffffffffffffffffffffffffff048311821515161561196757611966611827565b5b828202905092915050565b7f45524332303a2064656372656173656420616c6c6f77616e63652062656c6f7760008201527f207a65726f000000000000000000000000000000000000000000000000000000602082015250565b60006119ce6025836114bc565b91506119d982611972565b604082019050919050565b600060208201905081810360008301526119fd816119c1565b9050919050565b7f4f776e61626c653a206e6577206f776e657220697320746865207a65726f206160008201527f6464726573730000000000000000000000000000000000000000000000000000602082015250565b6000611a606026836114bc565b9150611a6b82611a04565b604082019050919050565b60006020820190508181036000830152611a8f81611a53565b9050919050565b7f45524332303a20617070726f76652066726f6d20746865207a65726f2061646460008201527f7265737300000000000000000000000000000000000000000000000000000000602082015250565b6000611af26024836114bc565b9150611afd82611a96565b604082019050919050565b60006020820190508181036000830152611b2181611ae5565b9050919050565b7f45524332303a20617070726f766520746f20746865207a65726f20616464726560008201527f7373000000000000000000000000000000000000000000000000000000000000602082015250565b6000611b846022836114bc565b9150611b8f82611b28565b604082019050919050565b60006020820190508181036000830152611bb381611b77565b9050919050565b7f45524332303a20696e73756666696369656e7420616c6c6f77616e6365000000600082015250565b6000611bf0601d836114bc565b9150611bfb82611bba565b602082019050919050565b60006020820190508181036000830152611c1f81611be3565b9050919050565b7f45524332303a207472616e736665722066726f6d20746865207a65726f20616460008201527f6472657373000000000000000000000000000000000000000000000000000000602082015250565b6000611c826025836114bc565b9150611c8d82611c26565b604082019050919050565b60006020820190508181036000830152611cb181611c75565b9050919050565b7f45524332303a207472616e7366657220746f20746865207a65726f206164647260008201527f6573730000000000000000000000000000000000000000000000000000000000602082015250565b6000611d146023836114bc565b9150611d1f82611cb8565b604082019050919050565b60006020820190508181036000830152611d4381611d07565b9050919050565b7f45524332303a207472616e7366657220616d6f756e742065786365656473206260008201527f616c616e63650000000000000000000000000000000000000000000000000000602082015250565b6000611da66026836114bc565b9150611db182611d4a565b604082019050919050565b60006020820190508181036000830152611dd581611d99565b9050919050565b7f45524332303a206d696e7420746f20746865207a65726f206164647265737300600082015250565b6000611e12601f836114bc565b9150611e1d82611ddc565b602082019050919050565b60006020820190508181036000830152611e4181611e05565b9050919050565b7f45524332303a206275726e2066726f6d20746865207a65726f2061646472657360008201527f7300000000000000000000000000000000000000000000000000000000000000602082015250565b6000611ea46021836114bc565b9150611eaf82611e48565b604082019050919050565b60006020820190508181036000830152611ed381611e97565b9050919050565b7f45524332303a206275726e20616d6f756e7420657863656564732062616c616e60008201527f6365000000000000000000000000000000000000000000000000000000000000602082015250565b6000611f366022836114bc565b9150611f4182611eda565b604082019050919050565b60006020820190508181036000830152611f6581611f29565b9050919050565b6000611f77826115cf565b9150611f82836115cf565b925082821015611f9557611f94611827565b5b82820390509291505056fea264697066735822122072223ff44d9200e188bd0e22d001d19e1c57371348c05246510927326fc19fc264736f6c634300080b0033",
  "immutableReferences": {},
  "source": "// SPDX-License-Identifier: GPL-3.0\n\npragma solidity ^0.8.0;\n\nimport \"@openzeppelin/contracts/token/ERC20/ERC20.sol\";\nimport \"@openzeppelin/contracts/access/Ownable.sol\";\nimport \"@openzeppelin/contracts/utils/math/SafeMath.sol\";\n\ncontract TemakiToken is ERC20, Ownable {\n    using SafeMath for uint256;\n\n    string public _name = \"TemakiToken\";\n    string public _symbol = \"TMKT\";\n\n    constructor() ERC20(_name, _symbol) {}\n\n    event Mint(address indexed sender, uint256 amount);\n    event Burn(address indexed sender, uint256 amount);\n\n    function mint(address buyer, uint256 amount) public onlyOwner {\n        _mint(buyer, amount * 10**18);\n        emit Mint(buyer, amount * 10**18);\n    }\n\n    function burn(address burner, uint256 amount) public {\n        _burn(burner, amount);\n        emit Burn(burner, amount);\n    }\n}\n",
  "sourcePath": "/home/dcca/Documents/swap/contracts/TemakiToken.sol",
  "compiler": {
    "name": "solc",
    "version": "0.8.11+commit.d7f03943.Emscripten.clang"
  },
  "schemaVersion": "3.4.4",
  "updatedAt": "2022-02-19T18:15:33.568Z",
  "devdoc": {
    "kind": "dev",
    "methods": {
      "allowance(address,address)": {
        "details": "See {IERC20-allowance}."
      },
      "approve(address,uint256)": {
        "details": "See {IERC20-approve}. NOTE: If `amount` is the maximum `uint256`, the allowance is not updated on `transferFrom`. This is semantically equivalent to an infinite approval. Requirements: - `spender` cannot be the zero address."
      },
      "balanceOf(address)": {
        "details": "See {IERC20-balanceOf}."
      },
      "decimals()": {
        "details": "Returns the number of decimals used to get its user representation. For example, if `decimals` equals `2`, a balance of `505` tokens should be displayed to a user as `5.05` (`505 / 10 ** 2`). Tokens usually opt for a value of 18, imitating the relationship between Ether and Wei. This is the value {ERC20} uses, unless this function is overridden; NOTE: This information is only used for _display_ purposes: it in no way affects any of the arithmetic of the contract, including {IERC20-balanceOf} and {IERC20-transfer}."
      },
      "decreaseAllowance(address,uint256)": {
        "details": "Atomically decreases the allowance granted to `spender` by the caller. This is an alternative to {approve} that can be used as a mitigation for problems described in {IERC20-approve}. Emits an {Approval} event indicating the updated allowance. Requirements: - `spender` cannot be the zero address. - `spender` must have allowance for the caller of at least `subtractedValue`."
      },
      "increaseAllowance(address,uint256)": {
        "details": "Atomically increases the allowance granted to `spender` by the caller. This is an alternative to {approve} that can be used as a mitigation for problems described in {IERC20-approve}. Emits an {Approval} event indicating the updated allowance. Requirements: - `spender` cannot be the zero address."
      },
      "name()": {
        "details": "Returns the name of the token."
      },
      "owner()": {
        "details": "Returns the address of the current owner."
      },
      "renounceOwnership()": {
        "details": "Leaves the contract without owner. It will not be possible to call `onlyOwner` functions anymore. Can only be called by the current owner. NOTE: Renouncing ownership will leave the contract without an owner, thereby removing any functionality that is only available to the owner."
      },
      "symbol()": {
        "details": "Returns the symbol of the token, usually a shorter version of the name."
      },
      "totalSupply()": {
        "details": "See {IERC20-totalSupply}."
      },
      "transfer(address,uint256)": {
        "details": "See {IERC20-transfer}. Requirements: - `to` cannot be the zero address. - the caller must have a balance of at least `amount`."
      },
      "transferFrom(address,address,uint256)": {
        "details": "See {IERC20-transferFrom}. Emits an {Approval} event indicating the updated allowance. This is not required by the EIP. See the note at the beginning of {ERC20}. NOTE: Does not update the allowance if the current allowance is the maximum `uint256`. Requirements: - `from` and `to` cannot be the zero address. - `from` must have a balance of at least `amount`. - the caller must have allowance for ``from``'s tokens of at least `amount`."
      },
      "transferOwnership(address)": {
        "details": "Transfers ownership of the contract to a new account (`newOwner`). Can only be called by the current owner."
      }
    },
    "version": 1
  },
  "userdoc": {
    "kind": "user",
    "methods": {},
    "version": 1
  }
}