{
  "contractName": "TemakiBar",
  "abi": [
    {
      "inputs": [],
      "stateMutability": "payable",
      "type": "constructor",
      "payable": true
    },
    {
      "anonymous": false,
      "inputs": [
        {
          "indexed": true,
          "internalType": "address",
          "name": "previousOwner",
          "type": "address"
        },
        {
          "indexed": true,
          "internalType": "address",
          "name": "newOwner",
          "type": "address"
        }
      ],
      "name": "OwnershipTransferred",
      "type": "event"
    },
    {
      "inputs": [],
      "name": "betDifficulty",
      "outputs": [
        {
          "internalType": "uint256",
          "name": "",
          "type": "uint256"
        }
      ],
      "stateMutability": "view",
      "type": "function",
      "constant": true
    },
    {
      "inputs": [],
      "name": "betPrice",
      "outputs": [
        {
          "internalType": "uint256",
          "name": "",
          "type": "uint256"
        }
      ],
      "stateMutability": "view",
      "type": "function",
      "constant": true
    },
    {
      "inputs": [],
      "name": "owner",
      "outputs": [
        {
          "internalType": "address",
          "name": "",
          "type": "address"
        }
      ],
      "stateMutability": "view",
      "type": "function",
      "constant": true
    },
    {
      "inputs": [],
      "name": "pool",
      "outputs": [
        {
          "internalType": "uint256",
          "name": "",
          "type": "uint256"
        }
      ],
      "stateMutability": "view",
      "type": "function",
      "constant": true
    },
    {
      "inputs": [],
      "name": "prize",
      "outputs": [
        {
          "internalType": "uint256",
          "name": "",
          "type": "uint256"
        }
      ],
      "stateMutability": "view",
      "type": "function",
      "constant": true
    },
    {
      "inputs": [],
      "name": "renounceOwnership",
      "outputs": [],
      "stateMutability": "nonpayable",
      "type": "function"
    },
    {
      "inputs": [],
      "name": "reserve",
      "outputs": [
        {
          "internalType": "uint256",
          "name": "",
          "type": "uint256"
        }
      ],
      "stateMutability": "view",
      "type": "function",
      "constant": true
    },
    {
      "inputs": [],
      "name": "reservePoolRatio",
      "outputs": [
        {
          "internalType": "uint256",
          "name": "",
          "type": "uint256"
        }
      ],
      "stateMutability": "view",
      "type": "function",
      "constant": true
    },
    {
      "inputs": [],
      "name": "temakiBarAddress",
      "outputs": [
        {
          "internalType": "address",
          "name": "",
          "type": "address"
        }
      ],
      "stateMutability": "view",
      "type": "function",
      "constant": true
    },
    {
      "inputs": [],
      "name": "temakiEntryPrice",
      "outputs": [
        {
          "internalType": "uint256",
          "name": "",
          "type": "uint256"
        }
      ],
      "stateMutability": "view",
      "type": "function",
      "constant": true
    },
    {
      "inputs": [],
      "name": "temakiExitPrice",
      "outputs": [
        {
          "internalType": "uint256",
          "name": "",
          "type": "uint256"
        }
      ],
      "stateMutability": "view",
      "type": "function",
      "constant": true
    },
    {
      "inputs": [],
      "name": "temakiToken",
      "outputs": [
        {
          "internalType": "contract TemakiToken",
          "name": "",
          "type": "address"
        }
      ],
      "stateMutability": "view",
      "type": "function",
      "constant": true
    },
    {
      "inputs": [
        {
          "internalType": "address",
          "name": "newOwner",
          "type": "address"
        }
      ],
      "name": "transferOwnership",
      "outputs": [],
      "stateMutability": "nonpayable",
      "type": "function"
    },
    {
      "inputs": [],
      "name": "deposit",
      "outputs": [],
      "stateMutability": "payable",
      "type": "function",
      "payable": true
    },
    {
      "inputs": [
        {
          "internalType": "uint256",
          "name": "tokenAmount",
          "type": "uint256"
        }
      ],
      "name": "withdraw",
      "outputs": [],
      "stateMutability": "nonpayable",
      "type": "function"
    },
    {
      "inputs": [
        {
          "internalType": "uint256",
          "name": "number",
          "type": "uint256"
        }
      ],
      "name": "betTemaki",
      "outputs": [
        {
          "internalType": "bool",
          "name": "",
          "type": "bool"
        }
      ],
      "stateMutability": "nonpayable",
      "type": "function"
    },
    {
      "inputs": [
        {
          "internalType": "uint256",
          "name": "number",
          "type": "uint256"
        }
      ],
      "name": "random",
      "outputs": [
        {
          "internalType": "uint256",
          "name": "",
          "type": "uint256"
        }
      ],
      "stateMutability": "view",
      "type": "function",
      "constant": true
    }
  ],
  "bytecode": "0x6080604052600260045566038d7ea4c68000600555600a6006556103e860075561003b6100306100ea60201b60201c565b6100f260201b60201c565b604051610047906101b6565b604051809103906000f080158015610063573d6000803e3d6000fd5b50600960006101000a81548173ffffffffffffffffffffffffffffffffffffffff021916908373ffffffffffffffffffffffffffffffffffffffff16021790555030600a60006101000a81548173ffffffffffffffffffffffffffffffffffffffff021916908373ffffffffffffffffffffffffffffffffffffffff1602179055506101c4565b600033905090565b60008060009054906101000a900473ffffffffffffffffffffffffffffffffffffffff169050816000806101000a81548173ffffffffffffffffffffffffffffffffffffffff021916908373ffffffffffffffffffffffffffffffffffffffff1602179055508173ffffffffffffffffffffffffffffffffffffffff168173ffffffffffffffffffffffffffffffffffffffff167f8be0079c531659141344cd1fd0a4f28419497f9722a3daafe3b4186f6b6457e060405160405180910390a35050565b612377806200192083390190565b61174c80620001d46000396000f3fe6080604052600436106100fd5760003560e01c80638da5cb5b11610095578063cfd8a17511610064578063cfd8a17514610314578063d0e30db01461033f578063d977ef4214610349578063e3ac5d2614610374578063f2fde38b1461039f576100fd565b80638da5cb5b14610256578063b863bd3714610281578063cd3293de146102be578063ced5dfa5146102e9576100fd565b80632e1a7d4d116100d15780632e1a7d4d146101ae57806357f627cc146101d7578063715018a6146102145780637daf51271461022b576100fd565b8062f0f32c14610102578063023615f61461012d57806316f0115b1461015857806322e7f03d14610183575b600080fd5b34801561010e57600080fd5b506101176103c8565b6040516101249190611069565b60405180910390f35b34801561013957600080fd5b506101426103ce565b60405161014f9190611103565b60405180910390f35b34801561016457600080fd5b5061016d6103f4565b60405161017a9190611069565b60405180910390f35b34801561018f57600080fd5b506101986103fa565b6040516101a5919061113f565b60405180910390f35b3480156101ba57600080fd5b506101d560048036038101906101d0919061118b565b610420565b005b3480156101e357600080fd5b506101fe60048036038101906101f9919061118b565b61082a565b60405161020b91906111d3565b60405180910390f35b34801561022057600080fd5b50610229610bb6565b005b34801561023757600080fd5b50610240610c3e565b60405161024d9190611069565b60405180910390f35b34801561026257600080fd5b5061026b610c44565b604051610278919061113f565b60405180910390f35b34801561028d57600080fd5b506102a860048036038101906102a3919061118b565b610c6d565b6040516102b59190611069565b60405180910390f35b3480156102ca57600080fd5b506102d3610caf565b6040516102e09190611069565b60405180910390f35b3480156102f557600080fd5b506102fe610cb5565b60405161030b9190611069565b60405180910390f35b34801561032057600080fd5b50610329610cbb565b6040516103369190611069565b60405180910390f35b610347610cc1565b005b34801561035557600080fd5b5061035e610e80565b60405161036b9190611069565b60405180910390f35b34801561038057600080fd5b50610389610e86565b6040516103969190611069565b60405180910390f35b3480156103ab57600080fd5b506103c660048036038101906103c1919061121a565b610e8c565b005b60055481565b600960009054906101000a900473ffffffffffffffffffffffffffffffffffffffff1681565b60025481565b600a60009054906101000a900473ffffffffffffffffffffffffffffffffffffffff1681565b6000600960009054906101000a900473ffffffffffffffffffffffffffffffffffffffff1673ffffffffffffffffffffffffffffffffffffffff166370a08231336040518263ffffffff1660e01b815260040161047d919061113f565b602060405180830381865afa15801561049a573d6000803e3d6000fd5b505050506040513d601f19601f820116820180604052508101906104be919061125c565b11806105655750600960009054906101000a900473ffffffffffffffffffffffffffffffffffffffff1673ffffffffffffffffffffffffffffffffffffffff166370a08231336040518263ffffffff1660e01b8152600401610520919061113f565b602060405180830381865afa15801561053d573d6000803e3d6000fd5b505050506040513d601f19601f82011682018060405250810190610561919061125c565b8111155b61056e57600080fd5b600960009054906101000a900473ffffffffffffffffffffffffffffffffffffffff1673ffffffffffffffffffffffffffffffffffffffff1663095ea7b330836040518363ffffffff1660e01b81526004016105cb929190611289565b6020604051808303816000875af11580156105ea573d6000803e3d6000fd5b505050506040513d601f19601f8201168201806040525081019061060e91906112de565b5060006008548261061f919061133a565b9050806001541161062f57600080fd5b6000803373ffffffffffffffffffffffffffffffffffffffff1683604051610656906113c5565b60006040518083038185875af1925050503d8060008114610693576040519150601f19603f3d011682016040523d82523d6000602084013e610698565b606091505b5091509150816106dd576040517f08c379a00000000000000000000000000000000000000000000000000000000081526004016106d490611437565b60405180910390fd5b826001546106eb9190611457565b600181905550600960009054906101000a900473ffffffffffffffffffffffffffffffffffffffff1673ffffffffffffffffffffffffffffffffffffffff16639dc29fac33866040518363ffffffff1660e01b815260040161074e929190611289565b600060405180830381600087803b15801561076857600080fd5b505af115801561077c573d6000803e3d6000fd5b50505050600960009054906101000a900473ffffffffffffffffffffffffffffffffffffffff1673ffffffffffffffffffffffffffffffffffffffff166318160ddd6040518163ffffffff1660e01b8152600401602060405180830381865afa1580156107ed573d6000803e3d6000fd5b505050506040513d601f19601f82011682018060405250810190610811919061125c565b60015461081e91906114ba565b60088190555050505050565b6000600654600960009054906101000a900473ffffffffffffffffffffffffffffffffffffffff1673ffffffffffffffffffffffffffffffffffffffff166370a08231336040518263ffffffff1660e01b815260040161088a919061113f565b602060405180830381865afa1580156108a7573d6000803e3d6000fd5b505050506040513d601f19601f820116820180604052508101906108cb919061125c565b10156108d657600080fd5b600960009054906101000a900473ffffffffffffffffffffffffffffffffffffffff1673ffffffffffffffffffffffffffffffffffffffff1663095ea7b3306006546040518363ffffffff1660e01b8152600401610935929190611289565b6020604051808303816000875af1158015610954573d6000803e3d6000fd5b505050506040513d601f19601f8201168201806040525081019061097891906112de565b50600960009054906101000a900473ffffffffffffffffffffffffffffffffffffffff1673ffffffffffffffffffffffffffffffffffffffff16639dc29fac336006546040518363ffffffff1660e01b81526004016109d8929190611289565b600060405180830381600087803b1580156109f257600080fd5b505af1158015610a06573d6000803e3d6000fd5b505050506000610a17600754610c6d565b9050600960009054906101000a900473ffffffffffffffffffffffffffffffffffffffff1673ffffffffffffffffffffffffffffffffffffffff166318160ddd6040518163ffffffff1660e01b8152600401602060405180830381865afa158015610a86573d6000803e3d6000fd5b505050506040513d601f19601f82011682018060405250810190610aaa919061125c565b600154610ab791906114ba565b60088190555082811415610bab576000803373ffffffffffffffffffffffffffffffffffffffff16600354604051610aee906113c5565b60006040518083038185875af1925050503d8060008114610b2b576040519150601f19603f3d011682016040523d82523d6000602084013e610b30565b606091505b509150915081610b75576040517f08c379a0000000000000000000000000000000000000000000000000000000008152600401610b6c90611437565b60405180910390fd5b600354600254610b859190611457565b60028190555060028054610b9991906114ba565b60038190555060019350505050610bb1565b60009150505b919050565b610bbe610f84565b73ffffffffffffffffffffffffffffffffffffffff16610bdc610c44565b73ffffffffffffffffffffffffffffffffffffffff1614610c32576040517f08c379a0000000000000000000000000000000000000000000000000000000008152600401610c2990611537565b60405180910390fd5b610c3c6000610f8c565b565b60085481565b60008060009054906101000a900473ffffffffffffffffffffffffffffffffffffffff16905090565b600081424433604051602001610c85939291906115c0565b6040516020818303038152906040528051906020012060001c610ca891906115fd565b9050919050565b60015481565b60075481565b60065481565b600554341015610cd057600080fd5b6000349050600060045482610ce591906114ba565b9050600060045483610cf791906114ba565b9050600060055483610d0991906114ba565b905082600154610d19919061162e565b60018190555081600254610d2d919061162e565b60028190555060028054610d4191906114ba565b600381905550600960009054906101000a900473ffffffffffffffffffffffffffffffffffffffff1673ffffffffffffffffffffffffffffffffffffffff166340c10f1933836040518363ffffffff1660e01b8152600401610da4929190611289565b600060405180830381600087803b158015610dbe57600080fd5b505af1158015610dd2573d6000803e3d6000fd5b50505050600960009054906101000a900473ffffffffffffffffffffffffffffffffffffffff1673ffffffffffffffffffffffffffffffffffffffff166318160ddd6040518163ffffffff1660e01b8152600401602060405180830381865afa158015610e43573d6000803e3d6000fd5b505050506040513d601f19601f82011682018060405250810190610e67919061125c565b600154610e7491906114ba565b60088190555050505050565b60045481565b60035481565b610e94610f84565b73ffffffffffffffffffffffffffffffffffffffff16610eb2610c44565b73ffffffffffffffffffffffffffffffffffffffff1614610f08576040517f08c379a0000000000000000000000000000000000000000000000000000000008152600401610eff90611537565b60405180910390fd5b600073ffffffffffffffffffffffffffffffffffffffff168173ffffffffffffffffffffffffffffffffffffffff161415610f78576040517f08c379a0000000000000000000000000000000000000000000000000000000008152600401610f6f906116f6565b60405180910390fd5b610f8181610f8c565b50565b600033905090565b60008060009054906101000a900473ffffffffffffffffffffffffffffffffffffffff169050816000806101000a81548173ffffffffffffffffffffffffffffffffffffffff021916908373ffffffffffffffffffffffffffffffffffffffff1602179055508173ffffffffffffffffffffffffffffffffffffffff168173ffffffffffffffffffffffffffffffffffffffff167f8be0079c531659141344cd1fd0a4f28419497f9722a3daafe3b4186f6b6457e060405160405180910390a35050565b6000819050919050565b61106381611050565b82525050565b600060208201905061107e600083018461105a565b92915050565b600073ffffffffffffffffffffffffffffffffffffffff82169050919050565b6000819050919050565b60006110c96110c46110bf84611084565b6110a4565b611084565b9050919050565b60006110db826110ae565b9050919050565b60006110ed826110d0565b9050919050565b6110fd816110e2565b82525050565b600060208201905061111860008301846110f4565b92915050565b600061112982611084565b9050919050565b6111398161111e565b82525050565b60006020820190506111546000830184611130565b92915050565b600080fd5b61116881611050565b811461117357600080fd5b50565b6000813590506111858161115f565b92915050565b6000602082840312156111a1576111a061115a565b5b60006111af84828501611176565b91505092915050565b60008115159050919050565b6111cd816111b8565b82525050565b60006020820190506111e860008301846111c4565b92915050565b6111f78161111e565b811461120257600080fd5b50565b600081359050611214816111ee565b92915050565b6000602082840312156112305761122f61115a565b5b600061123e84828501611205565b91505092915050565b6000815190506112568161115f565b92915050565b6000602082840312156112725761127161115a565b5b600061128084828501611247565b91505092915050565b600060408201905061129e6000830185611130565b6112ab602083018461105a565b9392505050565b6112bb816111b8565b81146112c657600080fd5b50565b6000815190506112d8816112b2565b92915050565b6000602082840312156112f4576112f361115a565b5b6000611302848285016112c9565b91505092915050565b7f4e487b7100000000000000000000000000000000000000000000000000000000600052601160045260246000fd5b600061134582611050565b915061135083611050565b9250817fffffffffffffffffffffffffffffffffffffffffffffffffffffffffffffffff04831182151516156113895761138861130b565b5b828202905092915050565b600081905092915050565b50565b60006113af600083611394565b91506113ba8261139f565b600082019050919050565b60006113d0826113a2565b9150819050919050565b600082825260208201905092915050565b7f4661696c656420746f2073656e64204574686572000000000000000000000000600082015250565b60006114216014836113da565b915061142c826113eb565b602082019050919050565b6000602082019050818103600083015261145081611414565b9050919050565b600061146282611050565b915061146d83611050565b9250828210156114805761147f61130b565b5b828203905092915050565b7f4e487b7100000000000000000000000000000000000000000000000000000000600052601260045260246000fd5b60006114c582611050565b91506114d083611050565b9250826114e0576114df61148b565b5b828204905092915050565b7f4f776e61626c653a2063616c6c6572206973206e6f7420746865206f776e6572600082015250565b60006115216020836113da565b915061152c826114eb565b602082019050919050565b6000602082019050818103600083015261155081611514565b9050919050565b6000819050919050565b61157261156d82611050565b611557565b82525050565b60008160601b9050919050565b600061159082611578565b9050919050565b60006115a282611585565b9050919050565b6115ba6115b58261111e565b611597565b82525050565b60006115cc8286611561565b6020820191506115dc8285611561565b6020820191506115ec82846115a9565b601482019150819050949350505050565b600061160882611050565b915061161383611050565b9250826116235761162261148b565b5b828206905092915050565b600061163982611050565b915061164483611050565b9250827fffffffffffffffffffffffffffffffffffffffffffffffffffffffffffffffff038211156116795761167861130b565b5b828201905092915050565b7f4f776e61626c653a206e6577206f776e657220697320746865207a65726f206160008201527f6464726573730000000000000000000000000000000000000000000000000000602082015250565b60006116e06026836113da565b91506116eb82611684565b604082019050919050565b6000602082019050818103600083015261170f816116d3565b905091905056fea2646970667358221220534a0f734fad6ab02afeab3ffad98c94dec0afdda32c68828541fae274c4b18964736f6c634300080b003360806040526040518060400160405280600b81526020017f54656d616b69546f6b656e0000000000000000000000000000000000000000008152506006908051906020019062000051929190620002fc565b506040518060400160405280600481526020017f544d4b5400000000000000000000000000000000000000000000000000000000815250600790805190602001906200009f929190620002fc565b50348015620000ad57600080fd5b5060068054620000bd90620003db565b80601f0160208091040260200160405190810160405280929190818152602001828054620000eb90620003db565b80156200013c5780601f1062000110576101008083540402835291602001916200013c565b820191906000526020600020905b8154815290600101906020018083116200011e57829003601f168201915b5050505050600780546200015090620003db565b80601f01602080910402602001604051908101604052809291908181526020018280546200017e90620003db565b8015620001cf5780601f10620001a357610100808354040283529160200191620001cf565b820191906000526020600020905b815481529060010190602001808311620001b157829003601f168201915b50505050508160039080519060200190620001ec929190620002fc565b50806004908051906020019062000205929190620002fc565b505050620002286200021c6200022e60201b60201c565b6200023660201b60201c565b62000411565b600033905090565b6000600560009054906101000a900473ffffffffffffffffffffffffffffffffffffffff16905081600560006101000a81548173ffffffffffffffffffffffffffffffffffffffff021916908373ffffffffffffffffffffffffffffffffffffffff1602179055508173ffffffffffffffffffffffffffffffffffffffff168173ffffffffffffffffffffffffffffffffffffffff167f8be0079c531659141344cd1fd0a4f28419497f9722a3daafe3b4186f6b6457e060405160405180910390a35050565b8280546200030a90620003db565b90600052602060002090601f0160209004810192826200032e57600085556200037a565b82601f106200034957805160ff19168380011785556200037a565b828001600101855582156200037a579182015b82811115620003795782518255916020019190600101906200035c565b5b5090506200038991906200038d565b5090565b5b80821115620003a85760008160009055506001016200038e565b5090565b7f4e487b7100000000000000000000000000000000000000000000000000000000600052602260045260246000fd5b60006002820490506001821680620003f457607f821691505b602082108114156200040b576200040a620003ac565b5b50919050565b611f5680620004216000396000f3fe608060405234801561001057600080fd5b50600436106101165760003560e01c80638da5cb5b116100a2578063a9059cbb11610071578063a9059cbb146102e3578063b09f126614610313578063d28d885214610331578063dd62ed3e1461034f578063f2fde38b1461037f57610116565b80638da5cb5b1461025b57806395d89b41146102795780639dc29fac14610297578063a457c2d7146102b357610116565b8063313ce567116100e9578063313ce567146101b757806339509351146101d557806340c10f191461020557806370a0823114610221578063715018a61461025157610116565b806306fdde031461011b578063095ea7b31461013957806318160ddd1461016957806323b872dd14610187575b600080fd5b61012361039b565b6040516101309190611524565b60405180910390f35b610153600480360381019061014e91906115df565b61042d565b604051610160919061163a565b60405180910390f35b610171610450565b60405161017e9190611664565b60405180910390f35b6101a1600480360381019061019c919061167f565b61045a565b6040516101ae919061163a565b60405180910390f35b6101bf610489565b6040516101cc91906116ee565b60405180910390f35b6101ef60048036038101906101ea91906115df565b610492565b6040516101fc919061163a565b60405180910390f35b61021f600480360381019061021a91906115df565b61053c565b005b61023b60048036038101906102369190611709565b610614565b6040516102489190611664565b60405180910390f35b61025961065c565b005b6102636106e4565b6040516102709190611745565b60405180910390f35b61028161070e565b60405161028e9190611524565b60405180910390f35b6102b160048036038101906102ac91906115df565b6107a0565b005b6102cd60048036038101906102c891906115df565b6107fc565b6040516102da919061163a565b60405180910390f35b6102fd60048036038101906102f891906115df565b6108e6565b60405161030a919061163a565b60405180910390f35b61031b610909565b6040516103289190611524565b60405180910390f35b610339610997565b6040516103469190611524565b60405180910390f35b61036960048036038101906103649190611760565b610a25565b6040516103769190611664565b60405180910390f35b61039960048036038101906103949190611709565b610aac565b005b6060600380546103aa906117cf565b80601f01602080910402602001604051908101604052809291908181526020018280546103d6906117cf565b80156104235780601f106103f857610100808354040283529160200191610423565b820191906000526020600020905b81548152906001019060200180831161040657829003601f168201915b5050505050905090565b600080610438610ba4565b9050610445818585610bac565b600191505092915050565b6000600254905090565b600080610465610ba4565b9050610472858285610d77565b61047d858585610e03565b60019150509392505050565b60006012905090565b60008061049d610ba4565b9050610531818585600160008673ffffffffffffffffffffffffffffffffffffffff1673ffffffffffffffffffffffffffffffffffffffff16815260200190815260200160002060008973ffffffffffffffffffffffffffffffffffffffff1673ffffffffffffffffffffffffffffffffffffffff1681526020019081526020016000205461052c9190611830565b610bac565b600191505092915050565b610544610ba4565b73ffffffffffffffffffffffffffffffffffffffff166105626106e4565b73ffffffffffffffffffffffffffffffffffffffff16146105b8576040517f08c379a00000000000000000000000000000000000000000000000000000000081526004016105af906118d2565b60405180910390fd5b6105c28282611084565b8173ffffffffffffffffffffffffffffffffffffffff167f0f6798a560793a54c3bcfe86a93cde1e73087d944c0ea20544137d4121396885826040516106089190611664565b60405180910390a25050565b60008060008373ffffffffffffffffffffffffffffffffffffffff1673ffffffffffffffffffffffffffffffffffffffff168152602001908152602001600020549050919050565b610664610ba4565b73ffffffffffffffffffffffffffffffffffffffff166106826106e4565b73ffffffffffffffffffffffffffffffffffffffff16146106d8576040517f08c379a00000000000000000000000000000000000000000000000000000000081526004016106cf906118d2565b60405180910390fd5b6106e260006111e4565b565b6000600560009054906101000a900473ffffffffffffffffffffffffffffffffffffffff16905090565b60606004805461071d906117cf565b80601f0160208091040260200160405190810160405280929190818152602001828054610749906117cf565b80156107965780601f1061076b57610100808354040283529160200191610796565b820191906000526020600020905b81548152906001019060200180831161077957829003601f168201915b5050505050905090565b6107aa82826112aa565b8173ffffffffffffffffffffffffffffffffffffffff167fcc16f5dbb4873280815c1ee09dbd06736cffcc184412cf7a71a0fdb75d397ca5826040516107f09190611664565b60405180910390a25050565b600080610807610ba4565b90506000600160008373ffffffffffffffffffffffffffffffffffffffff1673ffffffffffffffffffffffffffffffffffffffff16815260200190815260200160002060008673ffffffffffffffffffffffffffffffffffffffff1673ffffffffffffffffffffffffffffffffffffffff168152602001908152602001600020549050838110156108cd576040517f08c379a00000000000000000000000000000000000000000000000000000000081526004016108c490611964565b60405180910390fd5b6108da8286868403610bac565b60019250505092915050565b6000806108f1610ba4565b90506108fe818585610e03565b600191505092915050565b60078054610916906117cf565b80601f0160208091040260200160405190810160405280929190818152602001828054610942906117cf565b801561098f5780601f106109645761010080835404028352916020019161098f565b820191906000526020600020905b81548152906001019060200180831161097257829003601f168201915b505050505081565b600680546109a4906117cf565b80601f01602080910402602001604051908101604052809291908181526020018280546109d0906117cf565b8015610a1d5780601f106109f257610100808354040283529160200191610a1d565b820191906000526020600020905b815481529060010190602001808311610a0057829003601f168201915b505050505081565b6000600160008473ffffffffffffffffffffffffffffffffffffffff1673ffffffffffffffffffffffffffffffffffffffff16815260200190815260200160002060008373ffffffffffffffffffffffffffffffffffffffff1673ffffffffffffffffffffffffffffffffffffffff16815260200190815260200160002054905092915050565b610ab4610ba4565b73ffffffffffffffffffffffffffffffffffffffff16610ad26106e4565b73ffffffffffffffffffffffffffffffffffffffff1614610b28576040517f08c379a0000000000000000000000000000000000000000000000000000000008152600401610b1f906118d2565b60405180910390fd5b600073ffffffffffffffffffffffffffffffffffffffff168173ffffffffffffffffffffffffffffffffffffffff161415610b98576040517f08c379a0000000000000000000000000000000000000000000000000000000008152600401610b8f906119f6565b60405180910390fd5b610ba1816111e4565b50565b600033905090565b600073ffffffffffffffffffffffffffffffffffffffff168373ffffffffffffffffffffffffffffffffffffffff161415610c1c576040517f08c379a0000000000000000000000000000000000000000000000000000000008152600401610c1390611a88565b60405180910390fd5b600073ffffffffffffffffffffffffffffffffffffffff168273ffffffffffffffffffffffffffffffffffffffff161415610c8c576040517f08c379a0000000000000000000000000000000000000000000000000000000008152600401610c8390611b1a565b60405180910390fd5b80600160008573ffffffffffffffffffffffffffffffffffffffff1673ffffffffffffffffffffffffffffffffffffffff16815260200190815260200160002060008473ffffffffffffffffffffffffffffffffffffffff1673ffffffffffffffffffffffffffffffffffffffff168152602001908152602001600020819055508173ffffffffffffffffffffffffffffffffffffffff168373ffffffffffffffffffffffffffffffffffffffff167f8c5be1e5ebec7d5bd14f71427d1e84f3dd0314c0f7b2291e5b200ac8c7c3b92583604051610d6a9190611664565b60405180910390a3505050565b6000610d838484610a25565b90507fffffffffffffffffffffffffffffffffffffffffffffffffffffffffffffffff8114610dfd5781811015610def576040517f08c379a0000000000000000000000000000000000000000000000000000000008152600401610de690611b86565b60405180910390fd5b610dfc8484848403610bac565b5b50505050565b600073ffffffffffffffffffffffffffffffffffffffff168373ffffffffffffffffffffffffffffffffffffffff161415610e73576040517f08c379a0000000000000000000000000000000000000000000000000000000008152600401610e6a90611c18565b60405180910390fd5b600073ffffffffffffffffffffffffffffffffffffffff168273ffffffffffffffffffffffffffffffffffffffff161415610ee3576040517f08c379a0000000000000000000000000000000000000000000000000000000008152600401610eda90611caa565b60405180910390fd5b610eee838383611481565b60008060008573ffffffffffffffffffffffffffffffffffffffff1673ffffffffffffffffffffffffffffffffffffffff16815260200190815260200160002054905081811015610f74576040517f08c379a0000000000000000000000000000000000000000000000000000000008152600401610f6b90611d3c565b60405180910390fd5b8181036000808673ffffffffffffffffffffffffffffffffffffffff1673ffffffffffffffffffffffffffffffffffffffff16815260200190815260200160002081905550816000808573ffffffffffffffffffffffffffffffffffffffff1673ffffffffffffffffffffffffffffffffffffffff16815260200190815260200160002060008282546110079190611830565b925050819055508273ffffffffffffffffffffffffffffffffffffffff168473ffffffffffffffffffffffffffffffffffffffff167fddf252ad1be2c89b69c2b068fc378daa952ba7f163c4a11628f55a4df523b3ef8460405161106b9190611664565b60405180910390a361107e848484611486565b50505050565b600073ffffffffffffffffffffffffffffffffffffffff168273ffffffffffffffffffffffffffffffffffffffff1614156110f4576040517f08c379a00000000000000000000000000000000000000000000000000000000081526004016110eb90611da8565b60405180910390fd5b61110060008383611481565b80600260008282546111129190611830565b92505081905550806000808473ffffffffffffffffffffffffffffffffffffffff1673ffffffffffffffffffffffffffffffffffffffff16815260200190815260200160002060008282546111679190611830565b925050819055508173ffffffffffffffffffffffffffffffffffffffff16600073ffffffffffffffffffffffffffffffffffffffff167fddf252ad1be2c89b69c2b068fc378daa952ba7f163c4a11628f55a4df523b3ef836040516111cc9190611664565b60405180910390a36111e060008383611486565b5050565b6000600560009054906101000a900473ffffffffffffffffffffffffffffffffffffffff16905081600560006101000a81548173ffffffffffffffffffffffffffffffffffffffff021916908373ffffffffffffffffffffffffffffffffffffffff1602179055508173ffffffffffffffffffffffffffffffffffffffff168173ffffffffffffffffffffffffffffffffffffffff167f8be0079c531659141344cd1fd0a4f28419497f9722a3daafe3b4186f6b6457e060405160405180910390a35050565b600073ffffffffffffffffffffffffffffffffffffffff168273ffffffffffffffffffffffffffffffffffffffff16141561131a576040517f08c379a000000000000000000000000000000000000000000000000000000000815260040161131190611e3a565b60405180910390fd5b61132682600083611481565b60008060008473ffffffffffffffffffffffffffffffffffffffff1673ffffffffffffffffffffffffffffffffffffffff168152602001908152602001600020549050818110156113ac576040517f08c379a00000000000000000000000000000000000000000000000000000000081526004016113a390611ecc565b60405180910390fd5b8181036000808573ffffffffffffffffffffffffffffffffffffffff1673ffffffffffffffffffffffffffffffffffffffff1681526020019081526020016000208190555081600260008282546114039190611eec565b92505081905550600073ffffffffffffffffffffffffffffffffffffffff168373ffffffffffffffffffffffffffffffffffffffff167fddf252ad1be2c89b69c2b068fc378daa952ba7f163c4a11628f55a4df523b3ef846040516114689190611664565b60405180910390a361147c83600084611486565b505050565b505050565b505050565b600081519050919050565b600082825260208201905092915050565b60005b838110156114c55780820151818401526020810190506114aa565b838111156114d4576000848401525b50505050565b6000601f19601f8301169050919050565b60006114f68261148b565b6115008185611496565b93506115108185602086016114a7565b611519816114da565b840191505092915050565b6000602082019050818103600083015261153e81846114eb565b905092915050565b600080fd5b600073ffffffffffffffffffffffffffffffffffffffff82169050919050565b60006115768261154b565b9050919050565b6115868161156b565b811461159157600080fd5b50565b6000813590506115a38161157d565b92915050565b6000819050919050565b6115bc816115a9565b81146115c757600080fd5b50565b6000813590506115d9816115b3565b92915050565b600080604083850312156115f6576115f5611546565b5b600061160485828601611594565b9250506020611615858286016115ca565b9150509250929050565b60008115159050919050565b6116348161161f565b82525050565b600060208201905061164f600083018461162b565b92915050565b61165e816115a9565b82525050565b60006020820190506116796000830184611655565b92915050565b60008060006060848603121561169857611697611546565b5b60006116a686828701611594565b93505060206116b786828701611594565b92505060406116c8868287016115ca565b9150509250925092565b600060ff82169050919050565b6116e8816116d2565b82525050565b600060208201905061170360008301846116df565b92915050565b60006020828403121561171f5761171e611546565b5b600061172d84828501611594565b91505092915050565b61173f8161156b565b82525050565b600060208201905061175a6000830184611736565b92915050565b6000806040838503121561177757611776611546565b5b600061178585828601611594565b925050602061179685828601611594565b9150509250929050565b7f4e487b7100000000000000000000000000000000000000000000000000000000600052602260045260246000fd5b600060028204905060018216806117e757607f821691505b602082108114156117fb576117fa6117a0565b5b50919050565b7f4e487b7100000000000000000000000000000000000000000000000000000000600052601160045260246000fd5b600061183b826115a9565b9150611846836115a9565b9250827fffffffffffffffffffffffffffffffffffffffffffffffffffffffffffffffff0382111561187b5761187a611801565b5b828201905092915050565b7f4f776e61626c653a2063616c6c6572206973206e6f7420746865206f776e6572600082015250565b60006118bc602083611496565b91506118c782611886565b602082019050919050565b600060208201905081810360008301526118eb816118af565b9050919050565b7f45524332303a2064656372656173656420616c6c6f77616e63652062656c6f7760008201527f207a65726f000000000000000000000000000000000000000000000000000000602082015250565b600061194e602583611496565b9150611959826118f2565b604082019050919050565b6000602082019050818103600083015261197d81611941565b9050919050565b7f4f776e61626c653a206e6577206f776e657220697320746865207a65726f206160008201527f6464726573730000000000000000000000000000000000000000000000000000602082015250565b60006119e0602683611496565b91506119eb82611984565b604082019050919050565b60006020820190508181036000830152611a0f816119d3565b9050919050565b7f45524332303a20617070726f76652066726f6d20746865207a65726f2061646460008201527f7265737300000000000000000000000000000000000000000000000000000000602082015250565b6000611a72602483611496565b9150611a7d82611a16565b604082019050919050565b60006020820190508181036000830152611aa181611a65565b9050919050565b7f45524332303a20617070726f766520746f20746865207a65726f20616464726560008201527f7373000000000000000000000000000000000000000000000000000000000000602082015250565b6000611b04602283611496565b9150611b0f82611aa8565b604082019050919050565b60006020820190508181036000830152611b3381611af7565b9050919050565b7f45524332303a20696e73756666696369656e7420616c6c6f77616e6365000000600082015250565b6000611b70601d83611496565b9150611b7b82611b3a565b602082019050919050565b60006020820190508181036000830152611b9f81611b63565b9050919050565b7f45524332303a207472616e736665722066726f6d20746865207a65726f20616460008201527f6472657373000000000000000000000000000000000000000000000000000000602082015250565b6000611c02602583611496565b9150611c0d82611ba6565b604082019050919050565b60006020820190508181036000830152611c3181611bf5565b9050919050565b7f45524332303a207472616e7366657220746f20746865207a65726f206164647260008201527f6573730000000000000000000000000000000000000000000000000000000000602082015250565b6000611c94602383611496565b9150611c9f82611c38565b604082019050919050565b60006020820190508181036000830152611cc381611c87565b9050919050565b7f45524332303a207472616e7366657220616d6f756e742065786365656473206260008201527f616c616e63650000000000000000000000000000000000000000000000000000602082015250565b6000611d26602683611496565b9150611d3182611cca565b604082019050919050565b60006020820190508181036000830152611d5581611d19565b9050919050565b7f45524332303a206d696e7420746f20746865207a65726f206164647265737300600082015250565b6000611d92601f83611496565b9150611d9d82611d5c565b602082019050919050565b60006020820190508181036000830152611dc181611d85565b9050919050565b7f45524332303a206275726e2066726f6d20746865207a65726f2061646472657360008201527f7300000000000000000000000000000000000000000000000000000000000000602082015250565b6000611e24602183611496565b9150611e2f82611dc8565b604082019050919050565b60006020820190508181036000830152611e5381611e17565b9050919050565b7f45524332303a206275726e20616d6f756e7420657863656564732062616c616e60008201527f6365000000000000000000000000000000000000000000000000000000000000602082015250565b6000611eb6602283611496565b9150611ec182611e5a565b604082019050919050565b60006020820190508181036000830152611ee581611ea9565b9050919050565b6000611ef7826115a9565b9150611f02836115a9565b925082821015611f1557611f14611801565b5b82820390509291505056fea2646970667358221220ae9317efb65badf7575b0e295c74a5a3323f13227028563a25908d5eb7f2903564736f6c634300080b0033",
  "immutableReferences": {},
  "source": "// SPDX-License-Identifier: GPL-3.0\n\npragma solidity ^0.8.0;\n\nimport \"@openzeppelin/contracts/utils/math/SafeMath.sol\";\nimport \"@openzeppelin/contracts/token/ERC20/IERC20.sol\";\nimport \"@openzeppelin/contracts/access/Ownable.sol\";\nimport \"./TemakiToken.sol\";\n\ncontract TemakiBar is Ownable {\n    using SafeMath for uint256;\n    //variables\n    uint256 public reserve;\n    uint256 public pool;\n    uint256 public prize;\n    uint256 public reservePoolRatio = 2;\n    uint256 public temakiEntryPrice = 1000000000000000;\n    uint256 public betPrice = 10;\n    uint256 public betDifficulty = 1000;\n    uint256 public temakiExitPrice;\n    TemakiToken public temakiToken;\n    address public temakiBarAddress;\n    bytes4 private constant SELECTOR =\n        bytes4(keccak256(bytes(\"transfer(address,uint256)\")));\n\n    //\n    constructor() payable {\n        temakiToken = new TemakiToken();\n        temakiBarAddress = address(this);\n    }\n\n    //deposit\n    function deposit() public payable {\n        //check value\n        require(msg.value >= temakiEntryPrice);\n        //variables\n        uint256 value = msg.value;\n        //send ETH to Reserve and to Pool\n        uint256 toReserve = value / reservePoolRatio;\n        uint256 toPool = value / reservePoolRatio;\n        //calculate the amount of tokens\n        uint256 amountTokens = toReserve / temakiEntryPrice;\n        //put tokens in reserve and pool\n        reserve = reserve + toReserve;\n        pool = pool + toPool;\n        //update prize\n        prize = pool / 2;\n        //Mint the tokens and send to buyer\n        temakiToken.mint(msg.sender, amountTokens);\n        //set new exit price\n        temakiExitPrice = reserve / temakiToken.totalSupply();\n    }\n\n    //withdraw\n    function withdraw(uint256 tokenAmount) public {\n        //check if sender has TemakiCoins\n        require(\n            temakiToken.balanceOf(msg.sender) > 0 ||\n                tokenAmount <= temakiToken.balanceOf(msg.sender)\n        );\n        //get approval\n        temakiToken.approve(address(this), tokenAmount);\n        //get the ETH from reserve\n        uint256 amountEther = tokenAmount * temakiExitPrice;\n        //check if reserve has the money to pay out\n        require(reserve > amountEther);\n        //send ETH from reserve to seller - !CHECK IF COMPLETED!\n        (bool sent, bytes memory data) = payable(msg.sender).call{\n            value: amountEther\n        }(\"\");\n        require(sent, \"Failed to send Ether\");\n        //update reserve\n        reserve = reserve - amountEther;\n        //burn tokens\n        temakiToken.burn(msg.sender, tokenAmount);\n        //update exit price\n        temakiExitPrice = reserve / temakiToken.totalSupply();\n    }\n\n    //bet\n    function betTemaki(uint256 number) public returns (bool) {\n        //check if owner has Temaki Balance\n        require(temakiToken.balanceOf(msg.sender) >= betPrice);\n        //get approval\n        temakiToken.approve(address(this), betPrice);\n        //burn betted tokens\n        temakiToken.burn(msg.sender, betPrice);\n        //roll bet\n        uint256 lotteryTicket = random(betDifficulty);\n        //adjust exitPrice\n        temakiExitPrice = reserve / temakiToken.totalSupply();\n        //check if winner\n        if (lotteryTicket == number) {\n            //winner\n            //get pool prize\n            //send money to winer - !CHECK IF COMPLETED!\n            (bool sent, bytes memory data) = payable(msg.sender).call{\n                value: prize\n            }(\"\");\n            require(sent, \"Failed to send Ether\");\n            //adjust pool\n            pool = pool - prize;\n            //adjust prize\n            prize = pool / 2;\n            return true;\n        } else {\n            return false;\n        }\n    }\n\n    //SUPPORT FUNCTIONS\n    //generate random - !CONNECT CHAIN LINK!\n    function random(uint256 number) public view returns (uint256) {\n        return\n            uint256(\n                keccak256(\n                    abi.encodePacked(\n                        block.timestamp,\n                        block.difficulty,\n                        msg.sender\n                    )\n                )\n            ) % number;\n    }\n}\n",
  "sourcePath": "/home/dcca/Documents/swap/contracts/TemakiBar.sol",
  "compiler": {
    "name": "solc",
    "version": "0.8.11+commit.d7f03943.Emscripten.clang"
  },
  "schemaVersion": "3.4.4",
  "updatedAt": "2022-02-18T15:35:49.417Z",
  "networkType": "ethereum",
  "devdoc": {
    "kind": "dev",
    "methods": {
      "owner()": {
        "details": "Returns the address of the current owner."
      },
      "renounceOwnership()": {
        "details": "Leaves the contract without owner. It will not be possible to call `onlyOwner` functions anymore. Can only be called by the current owner. NOTE: Renouncing ownership will leave the contract without an owner, thereby removing any functionality that is only available to the owner."
      },
      "transferOwnership(address)": {
        "details": "Transfers ownership of the contract to a new account (`newOwner`). Can only be called by the current owner."
      }
    },
    "version": 1
  },
  "userdoc": {
    "kind": "user",
    "methods": {},
    "version": 1
  }
}