{
  "contractName": "TemakiBar",
  "abi": [
    {
      "inputs": [],
      "stateMutability": "payable",
      "type": "constructor"
    },
    {
      "anonymous": false,
      "inputs": [
        {
          "indexed": true,
          "internalType": "address",
          "name": "sender",
          "type": "address"
        }
      ],
      "name": "LostBet",
      "type": "event"
    },
    {
      "anonymous": false,
      "inputs": [
        {
          "indexed": true,
          "internalType": "address",
          "name": "previousOwner",
          "type": "address"
        },
        {
          "indexed": true,
          "internalType": "address",
          "name": "newOwner",
          "type": "address"
        }
      ],
      "name": "OwnershipTransferred",
      "type": "event"
    },
    {
      "anonymous": false,
      "inputs": [
        {
          "indexed": true,
          "internalType": "address",
          "name": "sender",
          "type": "address"
        },
        {
          "indexed": false,
          "internalType": "uint256",
          "name": "amount",
          "type": "uint256"
        }
      ],
      "name": "WonBet",
      "type": "event"
    },
    {
      "inputs": [],
      "name": "betDifficulty",
      "outputs": [
        {
          "internalType": "uint256",
          "name": "",
          "type": "uint256"
        }
      ],
      "stateMutability": "view",
      "type": "function"
    },
    {
      "inputs": [],
      "name": "betPrice",
      "outputs": [
        {
          "internalType": "uint256",
          "name": "",
          "type": "uint256"
        }
      ],
      "stateMutability": "view",
      "type": "function"
    },
    {
      "inputs": [],
      "name": "numberPlayers",
      "outputs": [
        {
          "internalType": "uint256",
          "name": "",
          "type": "uint256"
        }
      ],
      "stateMutability": "view",
      "type": "function"
    },
    {
      "inputs": [],
      "name": "owner",
      "outputs": [
        {
          "internalType": "address",
          "name": "",
          "type": "address"
        }
      ],
      "stateMutability": "view",
      "type": "function"
    },
    {
      "inputs": [],
      "name": "pool",
      "outputs": [
        {
          "internalType": "uint256",
          "name": "",
          "type": "uint256"
        }
      ],
      "stateMutability": "view",
      "type": "function"
    },
    {
      "inputs": [],
      "name": "prize",
      "outputs": [
        {
          "internalType": "uint256",
          "name": "",
          "type": "uint256"
        }
      ],
      "stateMutability": "view",
      "type": "function"
    },
    {
      "inputs": [],
      "name": "renounceOwnership",
      "outputs": [],
      "stateMutability": "nonpayable",
      "type": "function"
    },
    {
      "inputs": [],
      "name": "reserve",
      "outputs": [
        {
          "internalType": "uint256",
          "name": "",
          "type": "uint256"
        }
      ],
      "stateMutability": "view",
      "type": "function"
    },
    {
      "inputs": [],
      "name": "reservePoolRatio",
      "outputs": [
        {
          "internalType": "uint256",
          "name": "",
          "type": "uint256"
        }
      ],
      "stateMutability": "view",
      "type": "function"
    },
    {
      "inputs": [],
      "name": "temakiBarAddress",
      "outputs": [
        {
          "internalType": "address",
          "name": "",
          "type": "address"
        }
      ],
      "stateMutability": "view",
      "type": "function"
    },
    {
      "inputs": [],
      "name": "temakiEntryPrice",
      "outputs": [
        {
          "internalType": "uint256",
          "name": "",
          "type": "uint256"
        }
      ],
      "stateMutability": "view",
      "type": "function"
    },
    {
      "inputs": [],
      "name": "temakiExitPrice",
      "outputs": [
        {
          "internalType": "uint256",
          "name": "",
          "type": "uint256"
        }
      ],
      "stateMutability": "view",
      "type": "function"
    },
    {
      "inputs": [],
      "name": "temakiToken",
      "outputs": [
        {
          "internalType": "contract TemakiToken",
          "name": "",
          "type": "address"
        }
      ],
      "stateMutability": "view",
      "type": "function"
    },
    {
      "inputs": [
        {
          "internalType": "address",
          "name": "newOwner",
          "type": "address"
        }
      ],
      "name": "transferOwnership",
      "outputs": [],
      "stateMutability": "nonpayable",
      "type": "function"
    },
    {
      "inputs": [],
      "name": "getBalance",
      "outputs": [
        {
          "internalType": "uint256",
          "name": "",
          "type": "uint256"
        }
      ],
      "stateMutability": "view",
      "type": "function"
    },
    {
      "inputs": [],
      "name": "deposit",
      "outputs": [],
      "stateMutability": "payable",
      "type": "function"
    },
    {
      "inputs": [
        {
          "internalType": "uint256",
          "name": "tokenAmount",
          "type": "uint256"
        }
      ],
      "name": "withdraw",
      "outputs": [],
      "stateMutability": "nonpayable",
      "type": "function"
    },
    {
      "inputs": [
        {
          "internalType": "uint256",
          "name": "number",
          "type": "uint256"
        }
      ],
      "name": "betTemaki",
      "outputs": [],
      "stateMutability": "nonpayable",
      "type": "function"
    },
    {
      "inputs": [
        {
          "internalType": "uint256",
          "name": "number",
          "type": "uint256"
        }
      ],
      "name": "random",
      "outputs": [
        {
          "internalType": "uint256",
          "name": "",
          "type": "uint256"
        }
      ],
      "stateMutability": "view",
      "type": "function"
    }
  ],
  "bytecode": "0x6080604052600260045566038d7ea4c68000600555600a6006556103e86007556200003f62000033620000f260201b60201c565b620000fa60201b60201c565b6040516200004d90620001be565b604051809103906000f0801580156200006a573d6000803e3d6000fd5b50600960006101000a81548173ffffffffffffffffffffffffffffffffffffffff021916908373ffffffffffffffffffffffffffffffffffffffff16021790555030600a60006101000a81548173ffffffffffffffffffffffffffffffffffffffff021916908373ffffffffffffffffffffffffffffffffffffffff160217905550620001cc565b600033905090565b60008060009054906101000a900473ffffffffffffffffffffffffffffffffffffffff169050816000806101000a81548173ffffffffffffffffffffffffffffffffffffffff021916908373ffffffffffffffffffffffffffffffffffffffff1602179055508173ffffffffffffffffffffffffffffffffffffffff168173ffffffffffffffffffffffffffffffffffffffff167f8be0079c531659141344cd1fd0a4f28419497f9722a3daafe3b4186f6b6457e060405160405180910390a35050565b612377806200215f83390190565b611f8380620001dc6000396000f3fe6080604052600436106101135760003560e01c80637daf5127116100a0578063cfd8a17511610064578063cfd8a1751461036c578063d0e30db014610397578063d977ef42146103a1578063e3ac5d26146103cc578063f2fde38b146103f757610113565b80637daf5127146102835780638da5cb5b146102ae578063b863bd37146102d9578063cd3293de14610316578063ced5dfa51461034157610113565b806322e7f03d116100e757806322e7f03d146101c45780632e1a7d4d146101ef57806349a2aaca1461021857806357f627cc14610243578063715018a61461026c57610113565b8062f0f32c14610118578063023615f61461014357806312065fe01461016e57806316f0115b14610199575b600080fd5b34801561012457600080fd5b5061012d610420565b60405161013a9190611681565b60405180910390f35b34801561014f57600080fd5b50610158610426565b604051610165919061171b565b60405180910390f35b34801561017a57600080fd5b5061018361044c565b6040516101909190611681565b60405180910390f35b3480156101a557600080fd5b506101ae610454565b6040516101bb9190611681565b60405180910390f35b3480156101d057600080fd5b506101d961045a565b6040516101e69190611757565b60405180910390f35b3480156101fb57600080fd5b50610216600480360381019061021191906117a3565b610480565b005b34801561022457600080fd5b5061022d610ab6565b60405161023a9190611681565b60405180910390f35b34801561024f57600080fd5b5061026a600480360381019061026591906117a3565b610abc565b005b34801561027857600080fd5b506102816110c1565b005b34801561028f57600080fd5b50610298611149565b6040516102a59190611681565b60405180910390f35b3480156102ba57600080fd5b506102c361114f565b6040516102d09190611757565b60405180910390f35b3480156102e557600080fd5b5061030060048036038101906102fb91906117a3565b611178565b60405161030d9190611681565b60405180910390f35b34801561032257600080fd5b5061032b6111ba565b6040516103389190611681565b60405180910390f35b34801561034d57600080fd5b506103566111c0565b6040516103639190611681565b60405180910390f35b34801561037857600080fd5b506103816111c6565b60405161038e9190611681565b60405180910390f35b61039f6111cc565b005b3480156103ad57600080fd5b506103b6611498565b6040516103c39190611681565b60405180910390f35b3480156103d857600080fd5b506103e161149e565b6040516103ee9190611681565b60405180910390f35b34801561040357600080fd5b5061041e600480360381019061041991906117fc565b6114a4565b005b60055481565b600960009054906101000a900473ffffffffffffffffffffffffffffffffffffffff1681565b600047905090565b60025481565b600a60009054906101000a900473ffffffffffffffffffffffffffffffffffffffff1681565b6000600960009054906101000a900473ffffffffffffffffffffffffffffffffffffffff1673ffffffffffffffffffffffffffffffffffffffff166370a08231336040518263ffffffff1660e01b81526004016104dd9190611757565b602060405180830381865afa1580156104fa573d6000803e3d6000fd5b505050506040513d601f19601f8201168201806040525081019061051e919061183e565b1161055e576040517f08c379a0000000000000000000000000000000000000000000000000000000008152600401610555906118c8565b60405180910390fd5b600960009054906101000a900473ffffffffffffffffffffffffffffffffffffffff1673ffffffffffffffffffffffffffffffffffffffff166370a08231336040518263ffffffff1660e01b81526004016105b99190611757565b602060405180830381865afa1580156105d6573d6000803e3d6000fd5b505050506040513d601f19601f820116820180604052508101906105fa919061183e565b81111561063c576040517f08c379a00000000000000000000000000000000000000000000000000000000081526004016106339061195a565b60405180910390fd5b600960009054906101000a900473ffffffffffffffffffffffffffffffffffffffff1673ffffffffffffffffffffffffffffffffffffffff1663095ea7b330836040518363ffffffff1660e01b815260040161069992919061197a565b6020604051808303816000875af11580156106b8573d6000803e3d6000fd5b505050506040513d601f19601f820116820180604052508101906106dc91906119db565b506000600854826106ed9190611a37565b90508060015410156106fe57600080fd5b6000803373ffffffffffffffffffffffffffffffffffffffff168360405161072590611ac2565b60006040518083038185875af1925050503d8060008114610762576040519150601f19603f3d011682016040523d82523d6000602084013e610767565b606091505b5091509150816107ac576040517f08c379a00000000000000000000000000000000000000000000000000000000081526004016107a390611b23565b60405180910390fd5b826001546107ba9190611b43565b600181905550600960009054906101000a900473ffffffffffffffffffffffffffffffffffffffff1673ffffffffffffffffffffffffffffffffffffffff16639dc29fac33866040518363ffffffff1660e01b815260040161081d92919061197a565b600060405180830381600087803b15801561083757600080fd5b505af115801561084b573d6000803e3d6000fd5b505050506000600960009054906101000a900473ffffffffffffffffffffffffffffffffffffffff1673ffffffffffffffffffffffffffffffffffffffff166318160ddd6040518163ffffffff1660e01b8152600401602060405180830381865afa1580156108be573d6000803e3d6000fd5b505050506040513d601f19601f820116820180604052508101906108e2919061183e565b14156108f65760015460088190555061099b565b600960009054906101000a900473ffffffffffffffffffffffffffffffffffffffff1673ffffffffffffffffffffffffffffffffffffffff166318160ddd6040518163ffffffff1660e01b8152600401602060405180830381865afa158015610963573d6000803e3d6000fd5b505050506040513d601f19601f82011682018060405250810190610987919061183e565b6001546109949190611ba6565b6008819055505b6000600960009054906101000a900473ffffffffffffffffffffffffffffffffffffffff1673ffffffffffffffffffffffffffffffffffffffff166370a08231336040518263ffffffff1660e01b81526004016109f89190611757565b602060405180830381865afa158015610a15573d6000803e3d6000fd5b505050506040513d601f19601f82011682018060405250810190610a39919061183e565b1415610ab057600b6000815480929190610a5290611bd7565b91905055506000600c60003373ffffffffffffffffffffffffffffffffffffffff1673ffffffffffffffffffffffffffffffffffffffff16815260200190815260200160002060006101000a81548160ff0219169083151502179055505b50505050565b600b5481565b600654600960009054906101000a900473ffffffffffffffffffffffffffffffffffffffff1673ffffffffffffffffffffffffffffffffffffffff166370a08231336040518263ffffffff1660e01b8152600401610b1a9190611757565b602060405180830381865afa158015610b37573d6000803e3d6000fd5b505050506040513d601f19601f82011682018060405250810190610b5b919061183e565b1015610b9c576040517f08c379a0000000000000000000000000000000000000000000000000000000008152600401610b9390611c4d565b60405180910390fd5b600960009054906101000a900473ffffffffffffffffffffffffffffffffffffffff1673ffffffffffffffffffffffffffffffffffffffff1663095ea7b3306006546040518363ffffffff1660e01b8152600401610bfb92919061197a565b6020604051808303816000875af1158015610c1a573d6000803e3d6000fd5b505050506040513d601f19601f82011682018060405250810190610c3e91906119db565b50600960009054906101000a900473ffffffffffffffffffffffffffffffffffffffff1673ffffffffffffffffffffffffffffffffffffffff16639dc29fac336006546040518363ffffffff1660e01b8152600401610c9e92919061197a565b600060405180830381600087803b158015610cb857600080fd5b505af1158015610ccc573d6000803e3d6000fd5b505050506000600960009054906101000a900473ffffffffffffffffffffffffffffffffffffffff1673ffffffffffffffffffffffffffffffffffffffff166370a08231336040518263ffffffff1660e01b8152600401610d2d9190611757565b602060405180830381865afa158015610d4a573d6000803e3d6000fd5b505050506040513d601f19601f82011682018060405250810190610d6e919061183e565b1415610de557600b6000815480929190610d8790611bd7565b91905055506000600c60003373ffffffffffffffffffffffffffffffffffffffff1673ffffffffffffffffffffffffffffffffffffffff16815260200190815260200160002060006101000a81548160ff0219169083151502179055505b6000610df2600754611178565b90506000600960009054906101000a900473ffffffffffffffffffffffffffffffffffffffff1673ffffffffffffffffffffffffffffffffffffffff166318160ddd6040518163ffffffff1660e01b8152600401602060405180830381865afa158015610e63573d6000803e3d6000fd5b505050506040513d601f19601f82011682018060405250810190610e87919061183e565b1415610e9b57600154600881905550610f40565b600960009054906101000a900473ffffffffffffffffffffffffffffffffffffffff1673ffffffffffffffffffffffffffffffffffffffff166318160ddd6040518163ffffffff1660e01b8152600401602060405180830381865afa158015610f08573d6000803e3d6000fd5b505050506040513d601f19601f82011682018060405250810190610f2c919061183e565b600154610f399190611ba6565b6008819055505b81811415611079576000803373ffffffffffffffffffffffffffffffffffffffff16600354604051610f7190611ac2565b60006040518083038185875af1925050503d8060008114610fae576040519150601f19603f3d011682016040523d82523d6000602084013e610fb3565b606091505b509150915081610ff8576040517f08c379a0000000000000000000000000000000000000000000000000000000008152600401610fef90611b23565b60405180910390fd5b3373ffffffffffffffffffffffffffffffffffffffff167fe60bab41c59bb7b8da014b17716e6924f66553ddd1751db88bfa8d831fb3b7b56003546040516110409190611681565b60405180910390a26003546002546110589190611b43565b6002819055506002805461106c9190611ba6565b60038190555050506110bd565b3373ffffffffffffffffffffffffffffffffffffffff167f111af70af2304203f6ba46b1d8b86b412f7a22d454c779f8c526df94a3c56e2e60405160405180910390a25b5050565b6110c961159c565b73ffffffffffffffffffffffffffffffffffffffff166110e761114f565b73ffffffffffffffffffffffffffffffffffffffff161461113d576040517f08c379a000000000000000000000000000000000000000000000000000000000815260040161113490611cb9565b60405180910390fd5b61114760006115a4565b565b60085481565b60008060009054906101000a900473ffffffffffffffffffffffffffffffffffffffff16905090565b60008142443360405160200161119093929190611d42565b6040516020818303038152906040528051906020012060001c6111b39190611d7f565b9050919050565b60015481565b60075481565b60065481565b6004546005546111dc9190611a37565b34101561121e576040517f08c379a000000000000000000000000000000000000000000000000000000000815260040161121590611dfc565b60405180910390fd5b60003490506000600454826112339190611ba6565b90506000600454836112459190611ba6565b90506000600554836112579190611ba6565b9050826001546112679190611e1c565b6001819055508160025461127b9190611e1c565b6002819055506002805461128f9190611ba6565b600381905550600960009054906101000a900473ffffffffffffffffffffffffffffffffffffffff1673ffffffffffffffffffffffffffffffffffffffff166340c10f1933836040518363ffffffff1660e01b81526004016112f292919061197a565b600060405180830381600087803b15801561130c57600080fd5b505af1158015611320573d6000803e3d6000fd5b50505050600960009054906101000a900473ffffffffffffffffffffffffffffffffffffffff1673ffffffffffffffffffffffffffffffffffffffff166318160ddd6040518163ffffffff1660e01b8152600401602060405180830381865afa158015611391573d6000803e3d6000fd5b505050506040513d601f19601f820116820180604052508101906113b5919061183e565b6001546113c29190611ba6565b60088190555060001515600c60003373ffffffffffffffffffffffffffffffffffffffff1673ffffffffffffffffffffffffffffffffffffffff16815260200190815260200160002060009054906101000a900460ff161515141561149257600b600081548092919061143490611e72565b91905055506001600c60003373ffffffffffffffffffffffffffffffffffffffff1673ffffffffffffffffffffffffffffffffffffffff16815260200190815260200160002060006101000a81548160ff0219169083151502179055505b50505050565b60045481565b60035481565b6114ac61159c565b73ffffffffffffffffffffffffffffffffffffffff166114ca61114f565b73ffffffffffffffffffffffffffffffffffffffff1614611520576040517f08c379a000000000000000000000000000000000000000000000000000000000815260040161151790611cb9565b60405180910390fd5b600073ffffffffffffffffffffffffffffffffffffffff168173ffffffffffffffffffffffffffffffffffffffff161415611590576040517f08c379a000000000000000000000000000000000000000000000000000000000815260040161158790611f2d565b60405180910390fd5b611599816115a4565b50565b600033905090565b60008060009054906101000a900473ffffffffffffffffffffffffffffffffffffffff169050816000806101000a81548173ffffffffffffffffffffffffffffffffffffffff021916908373ffffffffffffffffffffffffffffffffffffffff1602179055508173ffffffffffffffffffffffffffffffffffffffff168173ffffffffffffffffffffffffffffffffffffffff167f8be0079c531659141344cd1fd0a4f28419497f9722a3daafe3b4186f6b6457e060405160405180910390a35050565b6000819050919050565b61167b81611668565b82525050565b60006020820190506116966000830184611672565b92915050565b600073ffffffffffffffffffffffffffffffffffffffff82169050919050565b6000819050919050565b60006116e16116dc6116d78461169c565b6116bc565b61169c565b9050919050565b60006116f3826116c6565b9050919050565b6000611705826116e8565b9050919050565b611715816116fa565b82525050565b6000602082019050611730600083018461170c565b92915050565b60006117418261169c565b9050919050565b61175181611736565b82525050565b600060208201905061176c6000830184611748565b92915050565b600080fd5b61178081611668565b811461178b57600080fd5b50565b60008135905061179d81611777565b92915050565b6000602082840312156117b9576117b8611772565b5b60006117c78482850161178e565b91505092915050565b6117d981611736565b81146117e457600080fd5b50565b6000813590506117f6816117d0565b92915050565b60006020828403121561181257611811611772565b5b6000611820848285016117e7565b91505092915050565b60008151905061183881611777565b92915050565b60006020828403121561185457611853611772565b5b600061186284828501611829565b91505092915050565b600082825260208201905092915050565b7f4e6f7420656e6f7567682054656d616b6920546f6b656e730000000000000000600082015250565b60006118b260188361186b565b91506118bd8261187c565b602082019050919050565b600060208201905081810360008301526118e1816118a5565b9050919050565b7f596f7520646f6e277420686176652074686174206d756368206f662054656d6160008201527f6b6920546f6b656e730000000000000000000000000000000000000000000000602082015250565b600061194460298361186b565b915061194f826118e8565b604082019050919050565b6000602082019050818103600083015261197381611937565b9050919050565b600060408201905061198f6000830185611748565b61199c6020830184611672565b9392505050565b60008115159050919050565b6119b8816119a3565b81146119c357600080fd5b50565b6000815190506119d5816119af565b92915050565b6000602082840312156119f1576119f0611772565b5b60006119ff848285016119c6565b91505092915050565b7f4e487b7100000000000000000000000000000000000000000000000000000000600052601160045260246000fd5b6000611a4282611668565b9150611a4d83611668565b9250817fffffffffffffffffffffffffffffffffffffffffffffffffffffffffffffffff0483118215151615611a8657611a85611a08565b5b828202905092915050565b600081905092915050565b50565b6000611aac600083611a91565b9150611ab782611a9c565b600082019050919050565b6000611acd82611a9f565b9150819050919050565b7f4661696c656420746f2073656e64204574686572000000000000000000000000600082015250565b6000611b0d60148361186b565b9150611b1882611ad7565b602082019050919050565b60006020820190508181036000830152611b3c81611b00565b9050919050565b6000611b4e82611668565b9150611b5983611668565b925082821015611b6c57611b6b611a08565b5b828203905092915050565b7f4e487b7100000000000000000000000000000000000000000000000000000000600052601260045260246000fd5b6000611bb182611668565b9150611bbc83611668565b925082611bcc57611bcb611b77565b5b828204905092915050565b6000611be282611668565b91506000821415611bf657611bf5611a08565b5b600182039050919050565b7f4e6f7420656e6f7567682054656d616b6920546f6b656e7320746f2062657400600082015250565b6000611c37601f8361186b565b9150611c4282611c01565b602082019050919050565b60006020820190508181036000830152611c6681611c2a565b9050919050565b7f4f776e61626c653a2063616c6c6572206973206e6f7420746865206f776e6572600082015250565b6000611ca360208361186b565b9150611cae82611c6d565b602082019050919050565b60006020820190508181036000830152611cd281611c96565b9050919050565b6000819050919050565b611cf4611cef82611668565b611cd9565b82525050565b60008160601b9050919050565b6000611d1282611cfa565b9050919050565b6000611d2482611d07565b9050919050565b611d3c611d3782611736565b611d19565b82525050565b6000611d4e8286611ce3565b602082019150611d5e8285611ce3565b602082019150611d6e8284611d2b565b601482019150819050949350505050565b6000611d8a82611668565b9150611d9583611668565b925082611da557611da4611b77565b5b828206905092915050565b7f4e6f7420656e6f75676820457468657200000000000000000000000000000000600082015250565b6000611de660108361186b565b9150611df182611db0565b602082019050919050565b60006020820190508181036000830152611e1581611dd9565b9050919050565b6000611e2782611668565b9150611e3283611668565b9250827fffffffffffffffffffffffffffffffffffffffffffffffffffffffffffffffff03821115611e6757611e66611a08565b5b828201905092915050565b6000611e7d82611668565b91507fffffffffffffffffffffffffffffffffffffffffffffffffffffffffffffffff821415611eb057611eaf611a08565b5b600182019050919050565b7f4f776e61626c653a206e6577206f776e657220697320746865207a65726f206160008201527f6464726573730000000000000000000000000000000000000000000000000000602082015250565b6000611f1760268361186b565b9150611f2282611ebb565b604082019050919050565b60006020820190508181036000830152611f4681611f0a565b905091905056fea2646970667358221220056b36c0e3cd281d5c50f22ba9099d486155a2b42f01c5f51bb4a23eb6b0e90764736f6c634300080b003360806040526040518060400160405280600b81526020017f54656d616b69546f6b656e0000000000000000000000000000000000000000008152506006908051906020019062000051929190620002fc565b506040518060400160405280600481526020017f544d4b5400000000000000000000000000000000000000000000000000000000815250600790805190602001906200009f929190620002fc565b50348015620000ad57600080fd5b5060068054620000bd90620003db565b80601f0160208091040260200160405190810160405280929190818152602001828054620000eb90620003db565b80156200013c5780601f1062000110576101008083540402835291602001916200013c565b820191906000526020600020905b8154815290600101906020018083116200011e57829003601f168201915b5050505050600780546200015090620003db565b80601f01602080910402602001604051908101604052809291908181526020018280546200017e90620003db565b8015620001cf5780601f10620001a357610100808354040283529160200191620001cf565b820191906000526020600020905b815481529060010190602001808311620001b157829003601f168201915b50505050508160039080519060200190620001ec929190620002fc565b50806004908051906020019062000205929190620002fc565b505050620002286200021c6200022e60201b60201c565b6200023660201b60201c565b62000411565b600033905090565b6000600560009054906101000a900473ffffffffffffffffffffffffffffffffffffffff16905081600560006101000a81548173ffffffffffffffffffffffffffffffffffffffff021916908373ffffffffffffffffffffffffffffffffffffffff1602179055508173ffffffffffffffffffffffffffffffffffffffff168173ffffffffffffffffffffffffffffffffffffffff167f8be0079c531659141344cd1fd0a4f28419497f9722a3daafe3b4186f6b6457e060405160405180910390a35050565b8280546200030a90620003db565b90600052602060002090601f0160209004810192826200032e57600085556200037a565b82601f106200034957805160ff19168380011785556200037a565b828001600101855582156200037a579182015b82811115620003795782518255916020019190600101906200035c565b5b5090506200038991906200038d565b5090565b5b80821115620003a85760008160009055506001016200038e565b5090565b7f4e487b7100000000000000000000000000000000000000000000000000000000600052602260045260246000fd5b60006002820490506001821680620003f457607f821691505b602082108114156200040b576200040a620003ac565b5b50919050565b611f5680620004216000396000f3fe608060405234801561001057600080fd5b50600436106101165760003560e01c80638da5cb5b116100a2578063a9059cbb11610071578063a9059cbb146102e3578063b09f126614610313578063d28d885214610331578063dd62ed3e1461034f578063f2fde38b1461037f57610116565b80638da5cb5b1461025b57806395d89b41146102795780639dc29fac14610297578063a457c2d7146102b357610116565b8063313ce567116100e9578063313ce567146101b757806339509351146101d557806340c10f191461020557806370a0823114610221578063715018a61461025157610116565b806306fdde031461011b578063095ea7b31461013957806318160ddd1461016957806323b872dd14610187575b600080fd5b61012361039b565b6040516101309190611524565b60405180910390f35b610153600480360381019061014e91906115df565b61042d565b604051610160919061163a565b60405180910390f35b610171610450565b60405161017e9190611664565b60405180910390f35b6101a1600480360381019061019c919061167f565b61045a565b6040516101ae919061163a565b60405180910390f35b6101bf610489565b6040516101cc91906116ee565b60405180910390f35b6101ef60048036038101906101ea91906115df565b610492565b6040516101fc919061163a565b60405180910390f35b61021f600480360381019061021a91906115df565b61053c565b005b61023b60048036038101906102369190611709565b610614565b6040516102489190611664565b60405180910390f35b61025961065c565b005b6102636106e4565b6040516102709190611745565b60405180910390f35b61028161070e565b60405161028e9190611524565b60405180910390f35b6102b160048036038101906102ac91906115df565b6107a0565b005b6102cd60048036038101906102c891906115df565b6107fc565b6040516102da919061163a565b60405180910390f35b6102fd60048036038101906102f891906115df565b6108e6565b60405161030a919061163a565b60405180910390f35b61031b610909565b6040516103289190611524565b60405180910390f35b610339610997565b6040516103469190611524565b60405180910390f35b61036960048036038101906103649190611760565b610a25565b6040516103769190611664565b60405180910390f35b61039960048036038101906103949190611709565b610aac565b005b6060600380546103aa906117cf565b80601f01602080910402602001604051908101604052809291908181526020018280546103d6906117cf565b80156104235780601f106103f857610100808354040283529160200191610423565b820191906000526020600020905b81548152906001019060200180831161040657829003601f168201915b5050505050905090565b600080610438610ba4565b9050610445818585610bac565b600191505092915050565b6000600254905090565b600080610465610ba4565b9050610472858285610d77565b61047d858585610e03565b60019150509392505050565b60006012905090565b60008061049d610ba4565b9050610531818585600160008673ffffffffffffffffffffffffffffffffffffffff1673ffffffffffffffffffffffffffffffffffffffff16815260200190815260200160002060008973ffffffffffffffffffffffffffffffffffffffff1673ffffffffffffffffffffffffffffffffffffffff1681526020019081526020016000205461052c9190611830565b610bac565b600191505092915050565b610544610ba4565b73ffffffffffffffffffffffffffffffffffffffff166105626106e4565b73ffffffffffffffffffffffffffffffffffffffff16146105b8576040517f08c379a00000000000000000000000000000000000000000000000000000000081526004016105af906118d2565b60405180910390fd5b6105c28282611084565b8173ffffffffffffffffffffffffffffffffffffffff167f0f6798a560793a54c3bcfe86a93cde1e73087d944c0ea20544137d4121396885826040516106089190611664565b60405180910390a25050565b60008060008373ffffffffffffffffffffffffffffffffffffffff1673ffffffffffffffffffffffffffffffffffffffff168152602001908152602001600020549050919050565b610664610ba4565b73ffffffffffffffffffffffffffffffffffffffff166106826106e4565b73ffffffffffffffffffffffffffffffffffffffff16146106d8576040517f08c379a00000000000000000000000000000000000000000000000000000000081526004016106cf906118d2565b60405180910390fd5b6106e260006111e4565b565b6000600560009054906101000a900473ffffffffffffffffffffffffffffffffffffffff16905090565b60606004805461071d906117cf565b80601f0160208091040260200160405190810160405280929190818152602001828054610749906117cf565b80156107965780601f1061076b57610100808354040283529160200191610796565b820191906000526020600020905b81548152906001019060200180831161077957829003601f168201915b5050505050905090565b6107aa82826112aa565b8173ffffffffffffffffffffffffffffffffffffffff167fcc16f5dbb4873280815c1ee09dbd06736cffcc184412cf7a71a0fdb75d397ca5826040516107f09190611664565b60405180910390a25050565b600080610807610ba4565b90506000600160008373ffffffffffffffffffffffffffffffffffffffff1673ffffffffffffffffffffffffffffffffffffffff16815260200190815260200160002060008673ffffffffffffffffffffffffffffffffffffffff1673ffffffffffffffffffffffffffffffffffffffff168152602001908152602001600020549050838110156108cd576040517f08c379a00000000000000000000000000000000000000000000000000000000081526004016108c490611964565b60405180910390fd5b6108da8286868403610bac565b60019250505092915050565b6000806108f1610ba4565b90506108fe818585610e03565b600191505092915050565b60078054610916906117cf565b80601f0160208091040260200160405190810160405280929190818152602001828054610942906117cf565b801561098f5780601f106109645761010080835404028352916020019161098f565b820191906000526020600020905b81548152906001019060200180831161097257829003601f168201915b505050505081565b600680546109a4906117cf565b80601f01602080910402602001604051908101604052809291908181526020018280546109d0906117cf565b8015610a1d5780601f106109f257610100808354040283529160200191610a1d565b820191906000526020600020905b815481529060010190602001808311610a0057829003601f168201915b505050505081565b6000600160008473ffffffffffffffffffffffffffffffffffffffff1673ffffffffffffffffffffffffffffffffffffffff16815260200190815260200160002060008373ffffffffffffffffffffffffffffffffffffffff1673ffffffffffffffffffffffffffffffffffffffff16815260200190815260200160002054905092915050565b610ab4610ba4565b73ffffffffffffffffffffffffffffffffffffffff16610ad26106e4565b73ffffffffffffffffffffffffffffffffffffffff1614610b28576040517f08c379a0000000000000000000000000000000000000000000000000000000008152600401610b1f906118d2565b60405180910390fd5b600073ffffffffffffffffffffffffffffffffffffffff168173ffffffffffffffffffffffffffffffffffffffff161415610b98576040517f08c379a0000000000000000000000000000000000000000000000000000000008152600401610b8f906119f6565b60405180910390fd5b610ba1816111e4565b50565b600033905090565b600073ffffffffffffffffffffffffffffffffffffffff168373ffffffffffffffffffffffffffffffffffffffff161415610c1c576040517f08c379a0000000000000000000000000000000000000000000000000000000008152600401610c1390611a88565b60405180910390fd5b600073ffffffffffffffffffffffffffffffffffffffff168273ffffffffffffffffffffffffffffffffffffffff161415610c8c576040517f08c379a0000000000000000000000000000000000000000000000000000000008152600401610c8390611b1a565b60405180910390fd5b80600160008573ffffffffffffffffffffffffffffffffffffffff1673ffffffffffffffffffffffffffffffffffffffff16815260200190815260200160002060008473ffffffffffffffffffffffffffffffffffffffff1673ffffffffffffffffffffffffffffffffffffffff168152602001908152602001600020819055508173ffffffffffffffffffffffffffffffffffffffff168373ffffffffffffffffffffffffffffffffffffffff167f8c5be1e5ebec7d5bd14f71427d1e84f3dd0314c0f7b2291e5b200ac8c7c3b92583604051610d6a9190611664565b60405180910390a3505050565b6000610d838484610a25565b90507fffffffffffffffffffffffffffffffffffffffffffffffffffffffffffffffff8114610dfd5781811015610def576040517f08c379a0000000000000000000000000000000000000000000000000000000008152600401610de690611b86565b60405180910390fd5b610dfc8484848403610bac565b5b50505050565b600073ffffffffffffffffffffffffffffffffffffffff168373ffffffffffffffffffffffffffffffffffffffff161415610e73576040517f08c379a0000000000000000000000000000000000000000000000000000000008152600401610e6a90611c18565b60405180910390fd5b600073ffffffffffffffffffffffffffffffffffffffff168273ffffffffffffffffffffffffffffffffffffffff161415610ee3576040517f08c379a0000000000000000000000000000000000000000000000000000000008152600401610eda90611caa565b60405180910390fd5b610eee838383611481565b60008060008573ffffffffffffffffffffffffffffffffffffffff1673ffffffffffffffffffffffffffffffffffffffff16815260200190815260200160002054905081811015610f74576040517f08c379a0000000000000000000000000000000000000000000000000000000008152600401610f6b90611d3c565b60405180910390fd5b8181036000808673ffffffffffffffffffffffffffffffffffffffff1673ffffffffffffffffffffffffffffffffffffffff16815260200190815260200160002081905550816000808573ffffffffffffffffffffffffffffffffffffffff1673ffffffffffffffffffffffffffffffffffffffff16815260200190815260200160002060008282546110079190611830565b925050819055508273ffffffffffffffffffffffffffffffffffffffff168473ffffffffffffffffffffffffffffffffffffffff167fddf252ad1be2c89b69c2b068fc378daa952ba7f163c4a11628f55a4df523b3ef8460405161106b9190611664565b60405180910390a361107e848484611486565b50505050565b600073ffffffffffffffffffffffffffffffffffffffff168273ffffffffffffffffffffffffffffffffffffffff1614156110f4576040517f08c379a00000000000000000000000000000000000000000000000000000000081526004016110eb90611da8565b60405180910390fd5b61110060008383611481565b80600260008282546111129190611830565b92505081905550806000808473ffffffffffffffffffffffffffffffffffffffff1673ffffffffffffffffffffffffffffffffffffffff16815260200190815260200160002060008282546111679190611830565b925050819055508173ffffffffffffffffffffffffffffffffffffffff16600073ffffffffffffffffffffffffffffffffffffffff167fddf252ad1be2c89b69c2b068fc378daa952ba7f163c4a11628f55a4df523b3ef836040516111cc9190611664565b60405180910390a36111e060008383611486565b5050565b6000600560009054906101000a900473ffffffffffffffffffffffffffffffffffffffff16905081600560006101000a81548173ffffffffffffffffffffffffffffffffffffffff021916908373ffffffffffffffffffffffffffffffffffffffff1602179055508173ffffffffffffffffffffffffffffffffffffffff168173ffffffffffffffffffffffffffffffffffffffff167f8be0079c531659141344cd1fd0a4f28419497f9722a3daafe3b4186f6b6457e060405160405180910390a35050565b600073ffffffffffffffffffffffffffffffffffffffff168273ffffffffffffffffffffffffffffffffffffffff16141561131a576040517f08c379a000000000000000000000000000000000000000000000000000000000815260040161131190611e3a565b60405180910390fd5b61132682600083611481565b60008060008473ffffffffffffffffffffffffffffffffffffffff1673ffffffffffffffffffffffffffffffffffffffff168152602001908152602001600020549050818110156113ac576040517f08c379a00000000000000000000000000000000000000000000000000000000081526004016113a390611ecc565b60405180910390fd5b8181036000808573ffffffffffffffffffffffffffffffffffffffff1673ffffffffffffffffffffffffffffffffffffffff1681526020019081526020016000208190555081600260008282546114039190611eec565b92505081905550600073ffffffffffffffffffffffffffffffffffffffff168373ffffffffffffffffffffffffffffffffffffffff167fddf252ad1be2c89b69c2b068fc378daa952ba7f163c4a11628f55a4df523b3ef846040516114689190611664565b60405180910390a361147c83600084611486565b505050565b505050565b505050565b600081519050919050565b600082825260208201905092915050565b60005b838110156114c55780820151818401526020810190506114aa565b838111156114d4576000848401525b50505050565b6000601f19601f8301169050919050565b60006114f68261148b565b6115008185611496565b93506115108185602086016114a7565b611519816114da565b840191505092915050565b6000602082019050818103600083015261153e81846114eb565b905092915050565b600080fd5b600073ffffffffffffffffffffffffffffffffffffffff82169050919050565b60006115768261154b565b9050919050565b6115868161156b565b811461159157600080fd5b50565b6000813590506115a38161157d565b92915050565b6000819050919050565b6115bc816115a9565b81146115c757600080fd5b50565b6000813590506115d9816115b3565b92915050565b600080604083850312156115f6576115f5611546565b5b600061160485828601611594565b9250506020611615858286016115ca565b9150509250929050565b60008115159050919050565b6116348161161f565b82525050565b600060208201905061164f600083018461162b565b92915050565b61165e816115a9565b82525050565b60006020820190506116796000830184611655565b92915050565b60008060006060848603121561169857611697611546565b5b60006116a686828701611594565b93505060206116b786828701611594565b92505060406116c8868287016115ca565b9150509250925092565b600060ff82169050919050565b6116e8816116d2565b82525050565b600060208201905061170360008301846116df565b92915050565b60006020828403121561171f5761171e611546565b5b600061172d84828501611594565b91505092915050565b61173f8161156b565b82525050565b600060208201905061175a6000830184611736565b92915050565b6000806040838503121561177757611776611546565b5b600061178585828601611594565b925050602061179685828601611594565b9150509250929050565b7f4e487b7100000000000000000000000000000000000000000000000000000000600052602260045260246000fd5b600060028204905060018216806117e757607f821691505b602082108114156117fb576117fa6117a0565b5b50919050565b7f4e487b7100000000000000000000000000000000000000000000000000000000600052601160045260246000fd5b600061183b826115a9565b9150611846836115a9565b9250827fffffffffffffffffffffffffffffffffffffffffffffffffffffffffffffffff0382111561187b5761187a611801565b5b828201905092915050565b7f4f776e61626c653a2063616c6c6572206973206e6f7420746865206f776e6572600082015250565b60006118bc602083611496565b91506118c782611886565b602082019050919050565b600060208201905081810360008301526118eb816118af565b9050919050565b7f45524332303a2064656372656173656420616c6c6f77616e63652062656c6f7760008201527f207a65726f000000000000000000000000000000000000000000000000000000602082015250565b600061194e602583611496565b9150611959826118f2565b604082019050919050565b6000602082019050818103600083015261197d81611941565b9050919050565b7f4f776e61626c653a206e6577206f776e657220697320746865207a65726f206160008201527f6464726573730000000000000000000000000000000000000000000000000000602082015250565b60006119e0602683611496565b91506119eb82611984565b604082019050919050565b60006020820190508181036000830152611a0f816119d3565b9050919050565b7f45524332303a20617070726f76652066726f6d20746865207a65726f2061646460008201527f7265737300000000000000000000000000000000000000000000000000000000602082015250565b6000611a72602483611496565b9150611a7d82611a16565b604082019050919050565b60006020820190508181036000830152611aa181611a65565b9050919050565b7f45524332303a20617070726f766520746f20746865207a65726f20616464726560008201527f7373000000000000000000000000000000000000000000000000000000000000602082015250565b6000611b04602283611496565b9150611b0f82611aa8565b604082019050919050565b60006020820190508181036000830152611b3381611af7565b9050919050565b7f45524332303a20696e73756666696369656e7420616c6c6f77616e6365000000600082015250565b6000611b70601d83611496565b9150611b7b82611b3a565b602082019050919050565b60006020820190508181036000830152611b9f81611b63565b9050919050565b7f45524332303a207472616e736665722066726f6d20746865207a65726f20616460008201527f6472657373000000000000000000000000000000000000000000000000000000602082015250565b6000611c02602583611496565b9150611c0d82611ba6565b604082019050919050565b60006020820190508181036000830152611c3181611bf5565b9050919050565b7f45524332303a207472616e7366657220746f20746865207a65726f206164647260008201527f6573730000000000000000000000000000000000000000000000000000000000602082015250565b6000611c94602383611496565b9150611c9f82611c38565b604082019050919050565b60006020820190508181036000830152611cc381611c87565b9050919050565b7f45524332303a207472616e7366657220616d6f756e742065786365656473206260008201527f616c616e63650000000000000000000000000000000000000000000000000000602082015250565b6000611d26602683611496565b9150611d3182611cca565b604082019050919050565b60006020820190508181036000830152611d5581611d19565b9050919050565b7f45524332303a206d696e7420746f20746865207a65726f206164647265737300600082015250565b6000611d92601f83611496565b9150611d9d82611d5c565b602082019050919050565b60006020820190508181036000830152611dc181611d85565b9050919050565b7f45524332303a206275726e2066726f6d20746865207a65726f2061646472657360008201527f7300000000000000000000000000000000000000000000000000000000000000602082015250565b6000611e24602183611496565b9150611e2f82611dc8565b604082019050919050565b60006020820190508181036000830152611e5381611e17565b9050919050565b7f45524332303a206275726e20616d6f756e7420657863656564732062616c616e60008201527f6365000000000000000000000000000000000000000000000000000000000000602082015250565b6000611eb6602283611496565b9150611ec182611e5a565b604082019050919050565b60006020820190508181036000830152611ee581611ea9565b9050919050565b6000611ef7826115a9565b9150611f02836115a9565b925082821015611f1557611f14611801565b5b82820390509291505056fea2646970667358221220ae9317efb65badf7575b0e295c74a5a3323f13227028563a25908d5eb7f2903564736f6c634300080b0033",
  "immutableReferences": {},
  "source": "// SPDX-License-Identifier: GPL-3.0\n\npragma solidity ^0.8.0;\n\nimport \"@openzeppelin/contracts/utils/math/SafeMath.sol\";\nimport \"@openzeppelin/contracts/token/ERC20/IERC20.sol\";\nimport \"@openzeppelin/contracts/access/Ownable.sol\";\nimport \"./TemakiToken.sol\";\n\ncontract TemakiBar is Ownable {\n    using SafeMath for uint256;\n    //variables\n    uint256 public reserve;\n    uint256 public pool;\n    uint256 public prize;\n    uint256 public reservePoolRatio = 2;\n    uint256 public temakiEntryPrice = 1000000000000000;\n    uint256 public betPrice = 10;\n    uint256 public betDifficulty = 1000;\n    uint256 public temakiExitPrice;\n    TemakiToken public temakiToken;\n    address public temakiBarAddress;\n    uint256 public numberPlayers;\n    mapping(address => bool) isPlaying;\n\n    //Events\n    event WonBet(address indexed sender, uint256 amount);\n    event LostBet(address indexed sender);\n\n    //\n    constructor() payable {\n        temakiToken = new TemakiToken();\n        temakiBarAddress = address(this);\n    }\n\n    //balance\n    function getBalance() public view returns (uint256) {\n        return address(this).balance;\n    }\n\n    //deposit\n    function deposit() public payable {\n        //check value\n        require(\n            msg.value >= (temakiEntryPrice * reservePoolRatio),\n            \"Not enough Ether\"\n        );\n        //variables\n        uint256 value = msg.value;\n        //send ETH to Reserve and to Pool\n        uint256 toReserve = value / reservePoolRatio;\n        uint256 toPool = value / reservePoolRatio;\n        //calculate the amount of tokens\n        uint256 amountTokens = toReserve / temakiEntryPrice;\n        //put tokens in reserve and pool\n        reserve = reserve + toReserve;\n        pool = pool + toPool;\n        //update prize\n        prize = pool / 2;\n        //Mint the tokens and send to buyer\n        temakiToken.mint(msg.sender, amountTokens);\n        //set new exit price\n        temakiExitPrice = reserve / temakiToken.totalSupply();\n        //count as a new player\n        if (isPlaying[msg.sender] == false) {\n            numberPlayers++;\n            isPlaying[msg.sender] = true;\n        }\n    }\n\n    //withdraw\n    function withdraw(uint256 tokenAmount) public {\n        //check if sender has TemakiCoins\n        require(\n            temakiToken.balanceOf(msg.sender) > 0,\n            \"Not enough Temaki Tokens\"\n        );\n        require(\n            tokenAmount <= temakiToken.balanceOf(msg.sender),\n            \"You don't have that much of Temaki Tokens\"\n        );\n        //get approval\n        temakiToken.approve(address(this), tokenAmount);\n        //get the ETH from reserve\n        uint256 amountEther = tokenAmount * temakiExitPrice;\n        //check if reserve has the money to pay out\n        require(reserve >= amountEther);\n        //send ETH from reserve to seller - !CHECK IF COMPLETED!\n        (bool sent, bytes memory data) = payable(msg.sender).call{\n            value: amountEther\n        }(\"\");\n        require(sent, \"Failed to send Ether\");\n        //update reserve\n        reserve = reserve - amountEther;\n        //burn tokens\n        temakiToken.burn(msg.sender, tokenAmount);\n        //update exit price\n        if (temakiToken.totalSupply() == 0) {\n            temakiExitPrice = reserve;\n        } else {\n            temakiExitPrice = reserve / temakiToken.totalSupply();\n        }\n        //update players numbers\n        if (temakiToken.balanceOf(msg.sender) == 0) {\n            numberPlayers--;\n            isPlaying[msg.sender] = false;\n        }\n    }\n\n    //bet\n    function betTemaki(uint256 number) public {\n        //check if owner has Temaki Balance\n        require(\n            temakiToken.balanceOf(msg.sender) >= betPrice,\n            \"Not enough Temaki Tokens to bet\"\n        );\n        //get approval\n        temakiToken.approve(address(this), betPrice);\n        //burn betted tokens\n        temakiToken.burn(msg.sender, betPrice);\n        //update players numbers\n        if (temakiToken.balanceOf(msg.sender) == 0) {\n            numberPlayers--;\n            isPlaying[msg.sender] = false;\n        }\n        //roll bet\n        uint256 lotteryTicket = random(betDifficulty);\n        //adjust exitPrice\n        if (temakiToken.totalSupply() == 0) {\n            temakiExitPrice = reserve;\n        } else {\n            temakiExitPrice = reserve / temakiToken.totalSupply();\n        }\n        //check if winner\n        if (lotteryTicket == number) {\n            //winner\n            //get pool prize\n            //send money to winer - !CHECK IF COMPLETED!\n            (bool sent, bytes memory data) = payable(msg.sender).call{\n                value: prize\n            }(\"\");\n            require(sent, \"Failed to send Ether\");\n            emit WonBet(msg.sender, prize);\n            //adjust pool\n            pool = pool - prize;\n            //adjust prize\n            prize = pool / 2;\n        } else {\n            emit LostBet(msg.sender);\n        }\n    }\n\n    //SUPPORT FUNCTIONS\n    //generate random - !CONNECT CHAIN LINK!\n    function random(uint256 number) public view returns (uint256) {\n        return\n            uint256(\n                keccak256(\n                    abi.encodePacked(\n                        block.timestamp,\n                        block.difficulty,\n                        msg.sender\n                    )\n                )\n            ) % number;\n    }\n}\n",
  "sourcePath": "/home/dcca/Documents/swap/contracts/TemakiBar.sol",
  "compiler": {
    "name": "solc",
    "version": "0.8.11+commit.d7f03943.Emscripten.clang"
  },
  "schemaVersion": "3.4.4",
  "updatedAt": "2022-02-19T16:10:11.930Z",
  "devdoc": {
    "kind": "dev",
    "methods": {
      "owner()": {
        "details": "Returns the address of the current owner."
      },
      "renounceOwnership()": {
        "details": "Leaves the contract without owner. It will not be possible to call `onlyOwner` functions anymore. Can only be called by the current owner. NOTE: Renouncing ownership will leave the contract without an owner, thereby removing any functionality that is only available to the owner."
      },
      "transferOwnership(address)": {
        "details": "Transfers ownership of the contract to a new account (`newOwner`). Can only be called by the current owner."
      }
    },
    "version": 1
  },
  "userdoc": {
    "kind": "user",
    "methods": {},
    "version": 1
  }
}