{
  "contractName": "TemakiBar",
  "abi": [
    {
      "inputs": [],
      "stateMutability": "payable",
      "type": "constructor",
      "payable": true
    },
    {
      "anonymous": false,
      "inputs": [
        {
          "indexed": true,
          "internalType": "address",
          "name": "sender",
          "type": "address"
        }
      ],
      "name": "LostBet",
      "type": "event"
    },
    {
      "anonymous": false,
      "inputs": [
        {
          "indexed": true,
          "internalType": "address",
          "name": "previousOwner",
          "type": "address"
        },
        {
          "indexed": true,
          "internalType": "address",
          "name": "newOwner",
          "type": "address"
        }
      ],
      "name": "OwnershipTransferred",
      "type": "event"
    },
    {
      "anonymous": false,
      "inputs": [
        {
          "indexed": true,
          "internalType": "address",
          "name": "sender",
          "type": "address"
        },
        {
          "indexed": false,
          "internalType": "uint256",
          "name": "amount",
          "type": "uint256"
        }
      ],
      "name": "WonBet",
      "type": "event"
    },
    {
      "inputs": [],
      "name": "betDifficulty",
      "outputs": [
        {
          "internalType": "uint256",
          "name": "",
          "type": "uint256"
        }
      ],
      "stateMutability": "view",
      "type": "function",
      "constant": true
    },
    {
      "inputs": [],
      "name": "betPrice",
      "outputs": [
        {
          "internalType": "uint256",
          "name": "",
          "type": "uint256"
        }
      ],
      "stateMutability": "view",
      "type": "function",
      "constant": true
    },
    {
      "inputs": [],
      "name": "numberPlayers",
      "outputs": [
        {
          "internalType": "uint256",
          "name": "",
          "type": "uint256"
        }
      ],
      "stateMutability": "view",
      "type": "function",
      "constant": true
    },
    {
      "inputs": [],
      "name": "owner",
      "outputs": [
        {
          "internalType": "address",
          "name": "",
          "type": "address"
        }
      ],
      "stateMutability": "view",
      "type": "function",
      "constant": true
    },
    {
      "inputs": [],
      "name": "pool",
      "outputs": [
        {
          "internalType": "uint256",
          "name": "",
          "type": "uint256"
        }
      ],
      "stateMutability": "view",
      "type": "function",
      "constant": true
    },
    {
      "inputs": [],
      "name": "prize",
      "outputs": [
        {
          "internalType": "uint256",
          "name": "",
          "type": "uint256"
        }
      ],
      "stateMutability": "view",
      "type": "function",
      "constant": true
    },
    {
      "inputs": [],
      "name": "renounceOwnership",
      "outputs": [],
      "stateMutability": "nonpayable",
      "type": "function"
    },
    {
      "inputs": [],
      "name": "reserve",
      "outputs": [
        {
          "internalType": "uint256",
          "name": "",
          "type": "uint256"
        }
      ],
      "stateMutability": "view",
      "type": "function",
      "constant": true
    },
    {
      "inputs": [],
      "name": "reservePoolRatio",
      "outputs": [
        {
          "internalType": "uint256",
          "name": "",
          "type": "uint256"
        }
      ],
      "stateMutability": "view",
      "type": "function",
      "constant": true
    },
    {
      "inputs": [],
      "name": "temakiBarAddress",
      "outputs": [
        {
          "internalType": "address",
          "name": "",
          "type": "address"
        }
      ],
      "stateMutability": "view",
      "type": "function",
      "constant": true
    },
    {
      "inputs": [],
      "name": "temakiEntryPrice",
      "outputs": [
        {
          "internalType": "uint256",
          "name": "",
          "type": "uint256"
        }
      ],
      "stateMutability": "view",
      "type": "function",
      "constant": true
    },
    {
      "inputs": [],
      "name": "temakiExitPrice",
      "outputs": [
        {
          "internalType": "uint256",
          "name": "",
          "type": "uint256"
        }
      ],
      "stateMutability": "view",
      "type": "function",
      "constant": true
    },
    {
      "inputs": [],
      "name": "temakiToken",
      "outputs": [
        {
          "internalType": "contract TemakiToken",
          "name": "",
          "type": "address"
        }
      ],
      "stateMutability": "view",
      "type": "function",
      "constant": true
    },
    {
      "inputs": [
        {
          "internalType": "address",
          "name": "newOwner",
          "type": "address"
        }
      ],
      "name": "transferOwnership",
      "outputs": [],
      "stateMutability": "nonpayable",
      "type": "function"
    },
    {
      "inputs": [],
      "name": "getBalance",
      "outputs": [
        {
          "internalType": "uint256",
          "name": "",
          "type": "uint256"
        }
      ],
      "stateMutability": "view",
      "type": "function",
      "constant": true
    },
    {
      "inputs": [],
      "name": "deposit",
      "outputs": [],
      "stateMutability": "payable",
      "type": "function",
      "payable": true
    },
    {
      "inputs": [
        {
          "internalType": "uint256",
          "name": "tokenAmount",
          "type": "uint256"
        }
      ],
      "name": "withdraw",
      "outputs": [],
      "stateMutability": "nonpayable",
      "type": "function"
    },
    {
      "inputs": [
        {
          "internalType": "uint256",
          "name": "number",
          "type": "uint256"
        }
      ],
      "name": "betTemaki",
      "outputs": [
        {
          "internalType": "bool",
          "name": "",
          "type": "bool"
        }
      ],
      "stateMutability": "nonpayable",
      "type": "function"
    },
    {
      "inputs": [
        {
          "internalType": "uint256",
          "name": "number",
          "type": "uint256"
        }
      ],
      "name": "random",
      "outputs": [
        {
          "internalType": "uint256",
          "name": "",
          "type": "uint256"
        }
      ],
      "stateMutability": "view",
      "type": "function",
      "constant": true
    }
  ],
  "bytecode": "0x6080604052600260045566038d7ea4c68000600555678ac7230489e800006006556103e8600755620000466200003a620000f960201b60201c565b6200010160201b60201c565b6040516200005490620001c5565b604051809103906000f08015801562000071573d6000803e3d6000fd5b50600960006101000a81548173ffffffffffffffffffffffffffffffffffffffff021916908373ffffffffffffffffffffffffffffffffffffffff16021790555030600a60006101000a81548173ffffffffffffffffffffffffffffffffffffffff021916908373ffffffffffffffffffffffffffffffffffffffff160217905550620001d3565b600033905090565b60008060009054906101000a900473ffffffffffffffffffffffffffffffffffffffff169050816000806101000a81548173ffffffffffffffffffffffffffffffffffffffff021916908373ffffffffffffffffffffffffffffffffffffffff1602179055508173ffffffffffffffffffffffffffffffffffffffff168173ffffffffffffffffffffffffffffffffffffffff167f8be0079c531659141344cd1fd0a4f28419497f9722a3daafe3b4186f6b6457e060405160405180910390a35050565b6123f780620021a883390190565b611fc580620001e36000396000f3fe6080604052600436106101135760003560e01c80637daf5127116100a0578063cfd8a17511610064578063cfd8a17514610380578063d0e30db0146103ab578063d977ef42146103b5578063e3ac5d26146103e0578063f2fde38b1461040b57610113565b80637daf5127146102975780638da5cb5b146102c2578063b863bd37146102ed578063cd3293de1461032a578063ced5dfa51461035557610113565b806322e7f03d116100e757806322e7f03d146101c45780632e1a7d4d146101ef57806349a2aaca1461021857806357f627cc14610243578063715018a61461028057610113565b8062f0f32c14610118578063023615f61461014357806312065fe01461016e57806316f0115b14610199575b600080fd5b34801561012457600080fd5b5061012d610434565b60405161013a9190611699565b60405180910390f35b34801561014f57600080fd5b5061015861043a565b6040516101659190611733565b60405180910390f35b34801561017a57600080fd5b50610183610460565b6040516101909190611699565b60405180910390f35b3480156101a557600080fd5b506101ae610468565b6040516101bb9190611699565b60405180910390f35b3480156101d057600080fd5b506101d961046e565b6040516101e6919061176f565b60405180910390f35b3480156101fb57600080fd5b50610216600480360381019061021191906117bb565b610494565b005b34801561022457600080fd5b5061022d610aca565b60405161023a9190611699565b60405180910390f35b34801561024f57600080fd5b5061026a600480360381019061026591906117bb565b610ad0565b6040516102779190611803565b60405180910390f35b34801561028c57600080fd5b506102956110d9565b005b3480156102a357600080fd5b506102ac611161565b6040516102b99190611699565b60405180910390f35b3480156102ce57600080fd5b506102d7611167565b6040516102e4919061176f565b60405180910390f35b3480156102f957600080fd5b50610314600480360381019061030f91906117bb565b611190565b6040516103219190611699565b60405180910390f35b34801561033657600080fd5b5061033f6111d2565b60405161034c9190611699565b60405180910390f35b34801561036157600080fd5b5061036a6111d8565b6040516103779190611699565b60405180910390f35b34801561038c57600080fd5b506103956111de565b6040516103a29190611699565b60405180910390f35b6103b36111e4565b005b3480156103c157600080fd5b506103ca6114b0565b6040516103d79190611699565b60405180910390f35b3480156103ec57600080fd5b506103f56114b6565b6040516104029190611699565b60405180910390f35b34801561041757600080fd5b50610432600480360381019061042d919061184a565b6114bc565b005b60055481565b600960009054906101000a900473ffffffffffffffffffffffffffffffffffffffff1681565b600047905090565b60025481565b600a60009054906101000a900473ffffffffffffffffffffffffffffffffffffffff1681565b6000600960009054906101000a900473ffffffffffffffffffffffffffffffffffffffff1673ffffffffffffffffffffffffffffffffffffffff166370a08231336040518263ffffffff1660e01b81526004016104f1919061176f565b602060405180830381865afa15801561050e573d6000803e3d6000fd5b505050506040513d601f19601f82011682018060405250810190610532919061188c565b11610572576040517f08c379a000000000000000000000000000000000000000000000000000000000815260040161056990611916565b60405180910390fd5b600960009054906101000a900473ffffffffffffffffffffffffffffffffffffffff1673ffffffffffffffffffffffffffffffffffffffff166370a08231336040518263ffffffff1660e01b81526004016105cd919061176f565b602060405180830381865afa1580156105ea573d6000803e3d6000fd5b505050506040513d601f19601f8201168201806040525081019061060e919061188c565b811115610650576040517f08c379a0000000000000000000000000000000000000000000000000000000008152600401610647906119a8565b60405180910390fd5b600960009054906101000a900473ffffffffffffffffffffffffffffffffffffffff1673ffffffffffffffffffffffffffffffffffffffff1663095ea7b330836040518363ffffffff1660e01b81526004016106ad9291906119c8565b6020604051808303816000875af11580156106cc573d6000803e3d6000fd5b505050506040513d601f19601f820116820180604052508101906106f09190611a1d565b506000600854826107019190611aa8565b905080600154101561071257600080fd5b6000803373ffffffffffffffffffffffffffffffffffffffff168360405161073990611b0a565b60006040518083038185875af1925050503d8060008114610776576040519150601f19603f3d011682016040523d82523d6000602084013e61077b565b606091505b5091509150816107c0576040517f08c379a00000000000000000000000000000000000000000000000000000000081526004016107b790611b6b565b60405180910390fd5b826001546107ce9190611b8b565b600181905550600960009054906101000a900473ffffffffffffffffffffffffffffffffffffffff1673ffffffffffffffffffffffffffffffffffffffff16639dc29fac33866040518363ffffffff1660e01b81526004016108319291906119c8565b600060405180830381600087803b15801561084b57600080fd5b505af115801561085f573d6000803e3d6000fd5b505050506000600960009054906101000a900473ffffffffffffffffffffffffffffffffffffffff1673ffffffffffffffffffffffffffffffffffffffff166318160ddd6040518163ffffffff1660e01b8152600401602060405180830381865afa1580156108d2573d6000803e3d6000fd5b505050506040513d601f19601f820116820180604052508101906108f6919061188c565b141561090a576001546008819055506109af565b600154600960009054906101000a900473ffffffffffffffffffffffffffffffffffffffff1673ffffffffffffffffffffffffffffffffffffffff166318160ddd6040518163ffffffff1660e01b8152600401602060405180830381865afa15801561097a573d6000803e3d6000fd5b505050506040513d601f19601f8201168201806040525081019061099e919061188c565b6109a89190611aa8565b6008819055505b6000600960009054906101000a900473ffffffffffffffffffffffffffffffffffffffff1673ffffffffffffffffffffffffffffffffffffffff166370a08231336040518263ffffffff1660e01b8152600401610a0c919061176f565b602060405180830381865afa158015610a29573d6000803e3d6000fd5b505050506040513d601f19601f82011682018060405250810190610a4d919061188c565b1415610ac457600b6000815480929190610a6690611bbf565b91905055506000600c60003373ffffffffffffffffffffffffffffffffffffffff1673ffffffffffffffffffffffffffffffffffffffff16815260200190815260200160002060006101000a81548160ff0219169083151502179055505b50505050565b600b5481565b6000600654600960009054906101000a900473ffffffffffffffffffffffffffffffffffffffff1673ffffffffffffffffffffffffffffffffffffffff166370a08231336040518263ffffffff1660e01b8152600401610b30919061176f565b602060405180830381865afa158015610b4d573d6000803e3d6000fd5b505050506040513d601f19601f82011682018060405250810190610b71919061188c565b1015610bb2576040517f08c379a0000000000000000000000000000000000000000000000000000000008152600401610ba990611c35565b60405180910390fd5b600960009054906101000a900473ffffffffffffffffffffffffffffffffffffffff1673ffffffffffffffffffffffffffffffffffffffff1663095ea7b3306006546040518363ffffffff1660e01b8152600401610c119291906119c8565b6020604051808303816000875af1158015610c30573d6000803e3d6000fd5b505050506040513d601f19601f82011682018060405250810190610c549190611a1d565b50600960009054906101000a900473ffffffffffffffffffffffffffffffffffffffff1673ffffffffffffffffffffffffffffffffffffffff16639dc29fac336006546040518363ffffffff1660e01b8152600401610cb49291906119c8565b600060405180830381600087803b158015610cce57600080fd5b505af1158015610ce2573d6000803e3d6000fd5b505050506000600960009054906101000a900473ffffffffffffffffffffffffffffffffffffffff1673ffffffffffffffffffffffffffffffffffffffff166370a08231336040518263ffffffff1660e01b8152600401610d43919061176f565b602060405180830381865afa158015610d60573d6000803e3d6000fd5b505050506040513d601f19601f82011682018060405250810190610d84919061188c565b1415610dfb57600b6000815480929190610d9d90611bbf565b91905055506000600c60003373ffffffffffffffffffffffffffffffffffffffff1673ffffffffffffffffffffffffffffffffffffffff16815260200190815260200160002060006101000a81548160ff0219169083151502179055505b6000610e08600754611190565b90506000600960009054906101000a900473ffffffffffffffffffffffffffffffffffffffff1673ffffffffffffffffffffffffffffffffffffffff166318160ddd6040518163ffffffff1660e01b8152600401602060405180830381865afa158015610e79573d6000803e3d6000fd5b505050506040513d601f19601f82011682018060405250810190610e9d919061188c565b1415610eb157600154600881905550610f56565b600154600960009054906101000a900473ffffffffffffffffffffffffffffffffffffffff1673ffffffffffffffffffffffffffffffffffffffff166318160ddd6040518163ffffffff1660e01b8152600401602060405180830381865afa158015610f21573d6000803e3d6000fd5b505050506040513d601f19601f82011682018060405250810190610f45919061188c565b610f4f9190611aa8565b6008819055505b8281141561108f576000803373ffffffffffffffffffffffffffffffffffffffff16600354604051610f8790611b0a565b60006040518083038185875af1925050503d8060008114610fc4576040519150601f19603f3d011682016040523d82523d6000602084013e610fc9565b606091505b50915091508161100e576040517f08c379a000000000000000000000000000000000000000000000000000000000815260040161100590611b6b565b60405180910390fd5b3373ffffffffffffffffffffffffffffffffffffffff167fe60bab41c59bb7b8da014b17716e6924f66553ddd1751db88bfa8d831fb3b7b56003546040516110569190611699565b60405180910390a260035460025461106e9190611b8b565b600281905550600280546110829190611aa8565b60038190555050506110d3565b3373ffffffffffffffffffffffffffffffffffffffff167f111af70af2304203f6ba46b1d8b86b412f7a22d454c779f8c526df94a3c56e2e60405160405180910390a25b50919050565b6110e16115b4565b73ffffffffffffffffffffffffffffffffffffffff166110ff611167565b73ffffffffffffffffffffffffffffffffffffffff1614611155576040517f08c379a000000000000000000000000000000000000000000000000000000000815260040161114c90611ca1565b60405180910390fd5b61115f60006115bc565b565b60085481565b60008060009054906101000a900473ffffffffffffffffffffffffffffffffffffffff16905090565b6000814244336040516020016111a893929190611d2a565b6040516020818303038152906040528051906020012060001c6111cb9190611d67565b9050919050565b60015481565b60075481565b60065481565b6004546005546111f49190611d98565b341015611236576040517f08c379a000000000000000000000000000000000000000000000000000000000815260040161122d90611e3e565b60405180910390fd5b600034905060006004548261124b9190611aa8565b905060006004548361125d9190611aa8565b905060006005548361126f9190611aa8565b90508260015461127f9190611e5e565b600181905550816002546112939190611e5e565b600281905550600280546112a79190611aa8565b600381905550600960009054906101000a900473ffffffffffffffffffffffffffffffffffffffff1673ffffffffffffffffffffffffffffffffffffffff166340c10f1933836040518363ffffffff1660e01b815260040161130a9291906119c8565b600060405180830381600087803b15801561132457600080fd5b505af1158015611338573d6000803e3d6000fd5b50505050600154600960009054906101000a900473ffffffffffffffffffffffffffffffffffffffff1673ffffffffffffffffffffffffffffffffffffffff166318160ddd6040518163ffffffff1660e01b8152600401602060405180830381865afa1580156113ac573d6000803e3d6000fd5b505050506040513d601f19601f820116820180604052508101906113d0919061188c565b6113da9190611aa8565b60088190555060001515600c60003373ffffffffffffffffffffffffffffffffffffffff1673ffffffffffffffffffffffffffffffffffffffff16815260200190815260200160002060009054906101000a900460ff16151514156114aa57600b600081548092919061144c90611eb4565b91905055506001600c60003373ffffffffffffffffffffffffffffffffffffffff1673ffffffffffffffffffffffffffffffffffffffff16815260200190815260200160002060006101000a81548160ff0219169083151502179055505b50505050565b60045481565b60035481565b6114c46115b4565b73ffffffffffffffffffffffffffffffffffffffff166114e2611167565b73ffffffffffffffffffffffffffffffffffffffff1614611538576040517f08c379a000000000000000000000000000000000000000000000000000000000815260040161152f90611ca1565b60405180910390fd5b600073ffffffffffffffffffffffffffffffffffffffff168173ffffffffffffffffffffffffffffffffffffffff1614156115a8576040517f08c379a000000000000000000000000000000000000000000000000000000000815260040161159f90611f6f565b60405180910390fd5b6115b1816115bc565b50565b600033905090565b60008060009054906101000a900473ffffffffffffffffffffffffffffffffffffffff169050816000806101000a81548173ffffffffffffffffffffffffffffffffffffffff021916908373ffffffffffffffffffffffffffffffffffffffff1602179055508173ffffffffffffffffffffffffffffffffffffffff168173ffffffffffffffffffffffffffffffffffffffff167f8be0079c531659141344cd1fd0a4f28419497f9722a3daafe3b4186f6b6457e060405160405180910390a35050565b6000819050919050565b61169381611680565b82525050565b60006020820190506116ae600083018461168a565b92915050565b600073ffffffffffffffffffffffffffffffffffffffff82169050919050565b6000819050919050565b60006116f96116f46116ef846116b4565b6116d4565b6116b4565b9050919050565b600061170b826116de565b9050919050565b600061171d82611700565b9050919050565b61172d81611712565b82525050565b60006020820190506117486000830184611724565b92915050565b6000611759826116b4565b9050919050565b6117698161174e565b82525050565b60006020820190506117846000830184611760565b92915050565b600080fd5b61179881611680565b81146117a357600080fd5b50565b6000813590506117b58161178f565b92915050565b6000602082840312156117d1576117d061178a565b5b60006117df848285016117a6565b91505092915050565b60008115159050919050565b6117fd816117e8565b82525050565b600060208201905061181860008301846117f4565b92915050565b6118278161174e565b811461183257600080fd5b50565b6000813590506118448161181e565b92915050565b6000602082840312156118605761185f61178a565b5b600061186e84828501611835565b91505092915050565b6000815190506118868161178f565b92915050565b6000602082840312156118a2576118a161178a565b5b60006118b084828501611877565b91505092915050565b600082825260208201905092915050565b7f4e6f7420656e6f7567682054656d616b6920546f6b656e730000000000000000600082015250565b60006119006018836118b9565b915061190b826118ca565b602082019050919050565b6000602082019050818103600083015261192f816118f3565b9050919050565b7f596f7520646f6e277420686176652074686174206d756368206f662054656d6160008201527f6b6920546f6b656e730000000000000000000000000000000000000000000000602082015250565b60006119926029836118b9565b915061199d82611936565b604082019050919050565b600060208201905081810360008301526119c181611985565b9050919050565b60006040820190506119dd6000830185611760565b6119ea602083018461168a565b9392505050565b6119fa816117e8565b8114611a0557600080fd5b50565b600081519050611a17816119f1565b92915050565b600060208284031215611a3357611a3261178a565b5b6000611a4184828501611a08565b91505092915050565b7f4e487b7100000000000000000000000000000000000000000000000000000000600052601260045260246000fd5b7f4e487b7100000000000000000000000000000000000000000000000000000000600052601160045260246000fd5b6000611ab382611680565b9150611abe83611680565b925082611ace57611acd611a4a565b5b828204905092915050565b600081905092915050565b50565b6000611af4600083611ad9565b9150611aff82611ae4565b600082019050919050565b6000611b1582611ae7565b9150819050919050565b7f4661696c656420746f2073656e64204574686572000000000000000000000000600082015250565b6000611b556014836118b9565b9150611b6082611b1f565b602082019050919050565b60006020820190508181036000830152611b8481611b48565b9050919050565b6000611b9682611680565b9150611ba183611680565b925082821015611bb457611bb3611a79565b5b828203905092915050565b6000611bca82611680565b91506000821415611bde57611bdd611a79565b5b600182039050919050565b7f4e6f7420656e6f7567682054656d616b6920546f6b656e7320746f2062657400600082015250565b6000611c1f601f836118b9565b9150611c2a82611be9565b602082019050919050565b60006020820190508181036000830152611c4e81611c12565b9050919050565b7f4f776e61626c653a2063616c6c6572206973206e6f7420746865206f776e6572600082015250565b6000611c8b6020836118b9565b9150611c9682611c55565b602082019050919050565b60006020820190508181036000830152611cba81611c7e565b9050919050565b6000819050919050565b611cdc611cd782611680565b611cc1565b82525050565b60008160601b9050919050565b6000611cfa82611ce2565b9050919050565b6000611d0c82611cef565b9050919050565b611d24611d1f8261174e565b611d01565b82525050565b6000611d368286611ccb565b602082019150611d468285611ccb565b602082019150611d568284611d13565b601482019150819050949350505050565b6000611d7282611680565b9150611d7d83611680565b925082611d8d57611d8c611a4a565b5b828206905092915050565b6000611da382611680565b9150611dae83611680565b9250817fffffffffffffffffffffffffffffffffffffffffffffffffffffffffffffffff0483118215151615611de757611de6611a79565b5b828202905092915050565b7f4e6f7420656e6f75676820457468657200000000000000000000000000000000600082015250565b6000611e286010836118b9565b9150611e3382611df2565b602082019050919050565b60006020820190508181036000830152611e5781611e1b565b9050919050565b6000611e6982611680565b9150611e7483611680565b9250827fffffffffffffffffffffffffffffffffffffffffffffffffffffffffffffffff03821115611ea957611ea8611a79565b5b828201905092915050565b6000611ebf82611680565b91507fffffffffffffffffffffffffffffffffffffffffffffffffffffffffffffffff821415611ef257611ef1611a79565b5b600182019050919050565b7f4f776e61626c653a206e6577206f776e657220697320746865207a65726f206160008201527f6464726573730000000000000000000000000000000000000000000000000000602082015250565b6000611f596026836118b9565b9150611f6482611efd565b604082019050919050565b60006020820190508181036000830152611f8881611f4c565b905091905056fea2646970667358221220bf23c31399408ec11149a9ec07dc342a4a917dfe26b5ccc58280612bdc4084ec64736f6c634300080b003360806040526040518060400160405280600b81526020017f54656d616b69546f6b656e0000000000000000000000000000000000000000008152506006908051906020019062000051929190620002fc565b506040518060400160405280600481526020017f544d4b5400000000000000000000000000000000000000000000000000000000815250600790805190602001906200009f929190620002fc565b50348015620000ad57600080fd5b5060068054620000bd90620003db565b80601f0160208091040260200160405190810160405280929190818152602001828054620000eb90620003db565b80156200013c5780601f1062000110576101008083540402835291602001916200013c565b820191906000526020600020905b8154815290600101906020018083116200011e57829003601f168201915b5050505050600780546200015090620003db565b80601f01602080910402602001604051908101604052809291908181526020018280546200017e90620003db565b8015620001cf5780601f10620001a357610100808354040283529160200191620001cf565b820191906000526020600020905b815481529060010190602001808311620001b157829003601f168201915b50505050508160039080519060200190620001ec929190620002fc565b50806004908051906020019062000205929190620002fc565b505050620002286200021c6200022e60201b60201c565b6200023660201b60201c565b62000411565b600033905090565b6000600560009054906101000a900473ffffffffffffffffffffffffffffffffffffffff16905081600560006101000a81548173ffffffffffffffffffffffffffffffffffffffff021916908373ffffffffffffffffffffffffffffffffffffffff1602179055508173ffffffffffffffffffffffffffffffffffffffff168173ffffffffffffffffffffffffffffffffffffffff167f8be0079c531659141344cd1fd0a4f28419497f9722a3daafe3b4186f6b6457e060405160405180910390a35050565b8280546200030a90620003db565b90600052602060002090601f0160209004810192826200032e57600085556200037a565b82601f106200034957805160ff19168380011785556200037a565b828001600101855582156200037a579182015b82811115620003795782518255916020019190600101906200035c565b5b5090506200038991906200038d565b5090565b5b80821115620003a85760008160009055506001016200038e565b5090565b7f4e487b7100000000000000000000000000000000000000000000000000000000600052602260045260246000fd5b60006002820490506001821680620003f457607f821691505b602082108114156200040b576200040a620003ac565b5b50919050565b611fd680620004216000396000f3fe608060405234801561001057600080fd5b50600436106101165760003560e01c80638da5cb5b116100a2578063a9059cbb11610071578063a9059cbb146102e3578063b09f126614610313578063d28d885214610331578063dd62ed3e1461034f578063f2fde38b1461037f57610116565b80638da5cb5b1461025b57806395d89b41146102795780639dc29fac14610297578063a457c2d7146102b357610116565b8063313ce567116100e9578063313ce567146101b757806339509351146101d557806340c10f191461020557806370a0823114610221578063715018a61461025157610116565b806306fdde031461011b578063095ea7b31461013957806318160ddd1461016957806323b872dd14610187575b600080fd5b61012361039b565b604051610130919061154a565b60405180910390f35b610153600480360381019061014e9190611605565b61042d565b6040516101609190611660565b60405180910390f35b610171610450565b60405161017e919061168a565b60405180910390f35b6101a1600480360381019061019c91906116a5565b61045a565b6040516101ae9190611660565b60405180910390f35b6101bf610489565b6040516101cc9190611714565b60405180910390f35b6101ef60048036038101906101ea9190611605565b610492565b6040516101fc9190611660565b60405180910390f35b61021f600480360381019061021a9190611605565b61053c565b005b61023b6004803603810190610236919061172f565b61063a565b604051610248919061168a565b60405180910390f35b610259610682565b005b61026361070a565b604051610270919061176b565b60405180910390f35b610281610734565b60405161028e919061154a565b60405180910390f35b6102b160048036038101906102ac9190611605565b6107c6565b005b6102cd60048036038101906102c89190611605565b610822565b6040516102da9190611660565b60405180910390f35b6102fd60048036038101906102f89190611605565b61090c565b60405161030a9190611660565b60405180910390f35b61031b61092f565b604051610328919061154a565b60405180910390f35b6103396109bd565b604051610346919061154a565b60405180910390f35b61036960048036038101906103649190611786565b610a4b565b604051610376919061168a565b60405180910390f35b6103996004803603810190610394919061172f565b610ad2565b005b6060600380546103aa906117f5565b80601f01602080910402602001604051908101604052809291908181526020018280546103d6906117f5565b80156104235780601f106103f857610100808354040283529160200191610423565b820191906000526020600020905b81548152906001019060200180831161040657829003601f168201915b5050505050905090565b600080610438610bca565b9050610445818585610bd2565b600191505092915050565b6000600254905090565b600080610465610bca565b9050610472858285610d9d565b61047d858585610e29565b60019150509392505050565b60006012905090565b60008061049d610bca565b9050610531818585600160008673ffffffffffffffffffffffffffffffffffffffff1673ffffffffffffffffffffffffffffffffffffffff16815260200190815260200160002060008973ffffffffffffffffffffffffffffffffffffffff1673ffffffffffffffffffffffffffffffffffffffff1681526020019081526020016000205461052c9190611856565b610bd2565b600191505092915050565b610544610bca565b73ffffffffffffffffffffffffffffffffffffffff1661056261070a565b73ffffffffffffffffffffffffffffffffffffffff16146105b8576040517f08c379a00000000000000000000000000000000000000000000000000000000081526004016105af906118f8565b60405180910390fd5b6105d582670de0b6b3a7640000836105d09190611918565b6110aa565b8173ffffffffffffffffffffffffffffffffffffffff167f0f6798a560793a54c3bcfe86a93cde1e73087d944c0ea20544137d4121396885670de0b6b3a7640000836106219190611918565b60405161062e919061168a565b60405180910390a25050565b60008060008373ffffffffffffffffffffffffffffffffffffffff1673ffffffffffffffffffffffffffffffffffffffff168152602001908152602001600020549050919050565b61068a610bca565b73ffffffffffffffffffffffffffffffffffffffff166106a861070a565b73ffffffffffffffffffffffffffffffffffffffff16146106fe576040517f08c379a00000000000000000000000000000000000000000000000000000000081526004016106f5906118f8565b60405180910390fd5b610708600061120a565b565b6000600560009054906101000a900473ffffffffffffffffffffffffffffffffffffffff16905090565b606060048054610743906117f5565b80601f016020809104026020016040519081016040528092919081815260200182805461076f906117f5565b80156107bc5780601f10610791576101008083540402835291602001916107bc565b820191906000526020600020905b81548152906001019060200180831161079f57829003601f168201915b5050505050905090565b6107d082826112d0565b8173ffffffffffffffffffffffffffffffffffffffff167fcc16f5dbb4873280815c1ee09dbd06736cffcc184412cf7a71a0fdb75d397ca582604051610816919061168a565b60405180910390a25050565b60008061082d610bca565b90506000600160008373ffffffffffffffffffffffffffffffffffffffff1673ffffffffffffffffffffffffffffffffffffffff16815260200190815260200160002060008673ffffffffffffffffffffffffffffffffffffffff1673ffffffffffffffffffffffffffffffffffffffff168152602001908152602001600020549050838110156108f3576040517f08c379a00000000000000000000000000000000000000000000000000000000081526004016108ea906119e4565b60405180910390fd5b6109008286868403610bd2565b60019250505092915050565b600080610917610bca565b9050610924818585610e29565b600191505092915050565b6007805461093c906117f5565b80601f0160208091040260200160405190810160405280929190818152602001828054610968906117f5565b80156109b55780601f1061098a576101008083540402835291602001916109b5565b820191906000526020600020905b81548152906001019060200180831161099857829003601f168201915b505050505081565b600680546109ca906117f5565b80601f01602080910402602001604051908101604052809291908181526020018280546109f6906117f5565b8015610a435780601f10610a1857610100808354040283529160200191610a43565b820191906000526020600020905b815481529060010190602001808311610a2657829003601f168201915b505050505081565b6000600160008473ffffffffffffffffffffffffffffffffffffffff1673ffffffffffffffffffffffffffffffffffffffff16815260200190815260200160002060008373ffffffffffffffffffffffffffffffffffffffff1673ffffffffffffffffffffffffffffffffffffffff16815260200190815260200160002054905092915050565b610ada610bca565b73ffffffffffffffffffffffffffffffffffffffff16610af861070a565b73ffffffffffffffffffffffffffffffffffffffff1614610b4e576040517f08c379a0000000000000000000000000000000000000000000000000000000008152600401610b45906118f8565b60405180910390fd5b600073ffffffffffffffffffffffffffffffffffffffff168173ffffffffffffffffffffffffffffffffffffffff161415610bbe576040517f08c379a0000000000000000000000000000000000000000000000000000000008152600401610bb590611a76565b60405180910390fd5b610bc78161120a565b50565b600033905090565b600073ffffffffffffffffffffffffffffffffffffffff168373ffffffffffffffffffffffffffffffffffffffff161415610c42576040517f08c379a0000000000000000000000000000000000000000000000000000000008152600401610c3990611b08565b60405180910390fd5b600073ffffffffffffffffffffffffffffffffffffffff168273ffffffffffffffffffffffffffffffffffffffff161415610cb2576040517f08c379a0000000000000000000000000000000000000000000000000000000008152600401610ca990611b9a565b60405180910390fd5b80600160008573ffffffffffffffffffffffffffffffffffffffff1673ffffffffffffffffffffffffffffffffffffffff16815260200190815260200160002060008473ffffffffffffffffffffffffffffffffffffffff1673ffffffffffffffffffffffffffffffffffffffff168152602001908152602001600020819055508173ffffffffffffffffffffffffffffffffffffffff168373ffffffffffffffffffffffffffffffffffffffff167f8c5be1e5ebec7d5bd14f71427d1e84f3dd0314c0f7b2291e5b200ac8c7c3b92583604051610d90919061168a565b60405180910390a3505050565b6000610da98484610a4b565b90507fffffffffffffffffffffffffffffffffffffffffffffffffffffffffffffffff8114610e235781811015610e15576040517f08c379a0000000000000000000000000000000000000000000000000000000008152600401610e0c90611c06565b60405180910390fd5b610e228484848403610bd2565b5b50505050565b600073ffffffffffffffffffffffffffffffffffffffff168373ffffffffffffffffffffffffffffffffffffffff161415610e99576040517f08c379a0000000000000000000000000000000000000000000000000000000008152600401610e9090611c98565b60405180910390fd5b600073ffffffffffffffffffffffffffffffffffffffff168273ffffffffffffffffffffffffffffffffffffffff161415610f09576040517f08c379a0000000000000000000000000000000000000000000000000000000008152600401610f0090611d2a565b60405180910390fd5b610f148383836114a7565b60008060008573ffffffffffffffffffffffffffffffffffffffff1673ffffffffffffffffffffffffffffffffffffffff16815260200190815260200160002054905081811015610f9a576040517f08c379a0000000000000000000000000000000000000000000000000000000008152600401610f9190611dbc565b60405180910390fd5b8181036000808673ffffffffffffffffffffffffffffffffffffffff1673ffffffffffffffffffffffffffffffffffffffff16815260200190815260200160002081905550816000808573ffffffffffffffffffffffffffffffffffffffff1673ffffffffffffffffffffffffffffffffffffffff168152602001908152602001600020600082825461102d9190611856565b925050819055508273ffffffffffffffffffffffffffffffffffffffff168473ffffffffffffffffffffffffffffffffffffffff167fddf252ad1be2c89b69c2b068fc378daa952ba7f163c4a11628f55a4df523b3ef84604051611091919061168a565b60405180910390a36110a48484846114ac565b50505050565b600073ffffffffffffffffffffffffffffffffffffffff168273ffffffffffffffffffffffffffffffffffffffff16141561111a576040517f08c379a000000000000000000000000000000000000000000000000000000000815260040161111190611e28565b60405180910390fd5b611126600083836114a7565b80600260008282546111389190611856565b92505081905550806000808473ffffffffffffffffffffffffffffffffffffffff1673ffffffffffffffffffffffffffffffffffffffff168152602001908152602001600020600082825461118d9190611856565b925050819055508173ffffffffffffffffffffffffffffffffffffffff16600073ffffffffffffffffffffffffffffffffffffffff167fddf252ad1be2c89b69c2b068fc378daa952ba7f163c4a11628f55a4df523b3ef836040516111f2919061168a565b60405180910390a3611206600083836114ac565b5050565b6000600560009054906101000a900473ffffffffffffffffffffffffffffffffffffffff16905081600560006101000a81548173ffffffffffffffffffffffffffffffffffffffff021916908373ffffffffffffffffffffffffffffffffffffffff1602179055508173ffffffffffffffffffffffffffffffffffffffff168173ffffffffffffffffffffffffffffffffffffffff167f8be0079c531659141344cd1fd0a4f28419497f9722a3daafe3b4186f6b6457e060405160405180910390a35050565b600073ffffffffffffffffffffffffffffffffffffffff168273ffffffffffffffffffffffffffffffffffffffff161415611340576040517f08c379a000000000000000000000000000000000000000000000000000000000815260040161133790611eba565b60405180910390fd5b61134c826000836114a7565b60008060008473ffffffffffffffffffffffffffffffffffffffff1673ffffffffffffffffffffffffffffffffffffffff168152602001908152602001600020549050818110156113d2576040517f08c379a00000000000000000000000000000000000000000000000000000000081526004016113c990611f4c565b60405180910390fd5b8181036000808573ffffffffffffffffffffffffffffffffffffffff1673ffffffffffffffffffffffffffffffffffffffff1681526020019081526020016000208190555081600260008282546114299190611f6c565b92505081905550600073ffffffffffffffffffffffffffffffffffffffff168373ffffffffffffffffffffffffffffffffffffffff167fddf252ad1be2c89b69c2b068fc378daa952ba7f163c4a11628f55a4df523b3ef8460405161148e919061168a565b60405180910390a36114a2836000846114ac565b505050565b505050565b505050565b600081519050919050565b600082825260208201905092915050565b60005b838110156114eb5780820151818401526020810190506114d0565b838111156114fa576000848401525b50505050565b6000601f19601f8301169050919050565b600061151c826114b1565b61152681856114bc565b93506115368185602086016114cd565b61153f81611500565b840191505092915050565b600060208201905081810360008301526115648184611511565b905092915050565b600080fd5b600073ffffffffffffffffffffffffffffffffffffffff82169050919050565b600061159c82611571565b9050919050565b6115ac81611591565b81146115b757600080fd5b50565b6000813590506115c9816115a3565b92915050565b6000819050919050565b6115e2816115cf565b81146115ed57600080fd5b50565b6000813590506115ff816115d9565b92915050565b6000806040838503121561161c5761161b61156c565b5b600061162a858286016115ba565b925050602061163b858286016115f0565b9150509250929050565b60008115159050919050565b61165a81611645565b82525050565b60006020820190506116756000830184611651565b92915050565b611684816115cf565b82525050565b600060208201905061169f600083018461167b565b92915050565b6000806000606084860312156116be576116bd61156c565b5b60006116cc868287016115ba565b93505060206116dd868287016115ba565b92505060406116ee868287016115f0565b9150509250925092565b600060ff82169050919050565b61170e816116f8565b82525050565b60006020820190506117296000830184611705565b92915050565b6000602082840312156117455761174461156c565b5b6000611753848285016115ba565b91505092915050565b61176581611591565b82525050565b6000602082019050611780600083018461175c565b92915050565b6000806040838503121561179d5761179c61156c565b5b60006117ab858286016115ba565b92505060206117bc858286016115ba565b9150509250929050565b7f4e487b7100000000000000000000000000000000000000000000000000000000600052602260045260246000fd5b6000600282049050600182168061180d57607f821691505b60208210811415611821576118206117c6565b5b50919050565b7f4e487b7100000000000000000000000000000000000000000000000000000000600052601160045260246000fd5b6000611861826115cf565b915061186c836115cf565b9250827fffffffffffffffffffffffffffffffffffffffffffffffffffffffffffffffff038211156118a1576118a0611827565b5b828201905092915050565b7f4f776e61626c653a2063616c6c6572206973206e6f7420746865206f776e6572600082015250565b60006118e26020836114bc565b91506118ed826118ac565b602082019050919050565b60006020820190508181036000830152611911816118d5565b9050919050565b6000611923826115cf565b915061192e836115cf565b9250817fffffffffffffffffffffffffffffffffffffffffffffffffffffffffffffffff048311821515161561196757611966611827565b5b828202905092915050565b7f45524332303a2064656372656173656420616c6c6f77616e63652062656c6f7760008201527f207a65726f000000000000000000000000000000000000000000000000000000602082015250565b60006119ce6025836114bc565b91506119d982611972565b604082019050919050565b600060208201905081810360008301526119fd816119c1565b9050919050565b7f4f776e61626c653a206e6577206f776e657220697320746865207a65726f206160008201527f6464726573730000000000000000000000000000000000000000000000000000602082015250565b6000611a606026836114bc565b9150611a6b82611a04565b604082019050919050565b60006020820190508181036000830152611a8f81611a53565b9050919050565b7f45524332303a20617070726f76652066726f6d20746865207a65726f2061646460008201527f7265737300000000000000000000000000000000000000000000000000000000602082015250565b6000611af26024836114bc565b9150611afd82611a96565b604082019050919050565b60006020820190508181036000830152611b2181611ae5565b9050919050565b7f45524332303a20617070726f766520746f20746865207a65726f20616464726560008201527f7373000000000000000000000000000000000000000000000000000000000000602082015250565b6000611b846022836114bc565b9150611b8f82611b28565b604082019050919050565b60006020820190508181036000830152611bb381611b77565b9050919050565b7f45524332303a20696e73756666696369656e7420616c6c6f77616e6365000000600082015250565b6000611bf0601d836114bc565b9150611bfb82611bba565b602082019050919050565b60006020820190508181036000830152611c1f81611be3565b9050919050565b7f45524332303a207472616e736665722066726f6d20746865207a65726f20616460008201527f6472657373000000000000000000000000000000000000000000000000000000602082015250565b6000611c826025836114bc565b9150611c8d82611c26565b604082019050919050565b60006020820190508181036000830152611cb181611c75565b9050919050565b7f45524332303a207472616e7366657220746f20746865207a65726f206164647260008201527f6573730000000000000000000000000000000000000000000000000000000000602082015250565b6000611d146023836114bc565b9150611d1f82611cb8565b604082019050919050565b60006020820190508181036000830152611d4381611d07565b9050919050565b7f45524332303a207472616e7366657220616d6f756e742065786365656473206260008201527f616c616e63650000000000000000000000000000000000000000000000000000602082015250565b6000611da66026836114bc565b9150611db182611d4a565b604082019050919050565b60006020820190508181036000830152611dd581611d99565b9050919050565b7f45524332303a206d696e7420746f20746865207a65726f206164647265737300600082015250565b6000611e12601f836114bc565b9150611e1d82611ddc565b602082019050919050565b60006020820190508181036000830152611e4181611e05565b9050919050565b7f45524332303a206275726e2066726f6d20746865207a65726f2061646472657360008201527f7300000000000000000000000000000000000000000000000000000000000000602082015250565b6000611ea46021836114bc565b9150611eaf82611e48565b604082019050919050565b60006020820190508181036000830152611ed381611e97565b9050919050565b7f45524332303a206275726e20616d6f756e7420657863656564732062616c616e60008201527f6365000000000000000000000000000000000000000000000000000000000000602082015250565b6000611f366022836114bc565b9150611f4182611eda565b604082019050919050565b60006020820190508181036000830152611f6581611f29565b9050919050565b6000611f77826115cf565b9150611f82836115cf565b925082821015611f9557611f94611827565b5b82820390509291505056fea264697066735822122072223ff44d9200e188bd0e22d001d19e1c57371348c05246510927326fc19fc264736f6c634300080b0033",
  "immutableReferences": {},
  "source": "// SPDX-License-Identifier: GPL-3.0\n\npragma solidity ^0.8.0;\n\nimport \"@openzeppelin/contracts/utils/math/SafeMath.sol\";\nimport \"@openzeppelin/contracts/token/ERC20/IERC20.sol\";\nimport \"@openzeppelin/contracts/access/Ownable.sol\";\nimport \"./TemakiToken.sol\";\n\ncontract TemakiBar is Ownable {\n    using SafeMath for uint256;\n    //variables\n    uint256 public reserve;\n    uint256 public pool;\n    uint256 public prize;\n    uint256 public reservePoolRatio = 2;\n    uint256 public temakiEntryPrice = 1000000000000000;\n    uint256 public betPrice = 10000000000000000000;\n    uint256 public betDifficulty = 1000;\n    uint256 public temakiExitPrice;\n    TemakiToken public temakiToken;\n    address public temakiBarAddress;\n    uint256 public numberPlayers;\n    mapping(address => bool) isPlaying;\n\n    //Events\n    event WonBet(address indexed sender, uint256 amount);\n    event LostBet(address indexed sender);\n\n    //\n    constructor() payable {\n        temakiToken = new TemakiToken();\n        temakiBarAddress = address(this);\n    }\n\n    //balance\n    function getBalance() public view returns (uint256) {\n        return address(this).balance;\n    }\n\n    //deposit\n    function deposit() public payable {\n        //check value\n        require(\n            msg.value >= (temakiEntryPrice * reservePoolRatio),\n            \"Not enough Ether\"\n        );\n        //variables\n        uint256 value = msg.value;\n        //send ETH to Reserve and to Pool\n        uint256 toReserve = value / reservePoolRatio;\n        uint256 toPool = value / reservePoolRatio;\n        //calculate the amount of tokens\n        uint256 amountTokens = toReserve / temakiEntryPrice;\n        //put tokens in reserve and pool\n        reserve = reserve + toReserve;\n        pool = pool + toPool;\n        //update prize\n        prize = pool / 2;\n        //Mint the tokens and send to buyer\n        temakiToken.mint(msg.sender, amountTokens);\n        //set new exit price\n        temakiExitPrice = temakiToken.totalSupply() / reserve;\n        //count as a new player\n        if (isPlaying[msg.sender] == false) {\n            numberPlayers++;\n            isPlaying[msg.sender] = true;\n        }\n    }\n\n    //withdraw\n    function withdraw(uint256 tokenAmount) public {\n        //check if sender has TemakiCoins\n        require(\n            temakiToken.balanceOf(msg.sender) > 0,\n            \"Not enough Temaki Tokens\"\n        );\n        require(\n            tokenAmount <= temakiToken.balanceOf(msg.sender),\n            \"You don't have that much of Temaki Tokens\"\n        );\n        //get approval\n        temakiToken.approve(address(this), tokenAmount);\n        //get the ETH from reserve\n        uint256 amountEther = tokenAmount / temakiExitPrice;\n        //check if reserve has the money to pay out\n        require(reserve >= amountEther);\n        //send ETH from reserve to seller - !CHECK IF COMPLETED!\n        (bool sent, bytes memory data) = payable(msg.sender).call{\n            value: amountEther\n        }(\"\");\n        require(sent, \"Failed to send Ether\");\n        //update reserve\n        reserve = reserve - amountEther;\n        //burn tokens\n        temakiToken.burn(msg.sender, tokenAmount);\n        //update exit price\n        if (temakiToken.totalSupply() == 0) {\n            temakiExitPrice = reserve;\n        } else {\n            temakiExitPrice = temakiToken.totalSupply() / reserve;\n        }\n        //update players numbers\n        if (temakiToken.balanceOf(msg.sender) == 0) {\n            numberPlayers--;\n            isPlaying[msg.sender] = false;\n        }\n    }\n\n    //bet\n    function betTemaki(uint256 number) public returns (bool) {\n        //check if owner has Temaki Balance\n        require(\n            temakiToken.balanceOf(msg.sender) >= betPrice,\n            \"Not enough Temaki Tokens to bet\"\n        );\n        //get approval\n        temakiToken.approve(address(this), betPrice);\n        //burn betted tokens\n        temakiToken.burn(msg.sender, betPrice);\n        //update players numbers\n        if (temakiToken.balanceOf(msg.sender) == 0) {\n            numberPlayers--;\n            isPlaying[msg.sender] = false;\n        }\n        //roll bet\n        uint256 lotteryTicket = random(betDifficulty);\n        //adjust exitPrice\n        if (temakiToken.totalSupply() == 0) {\n            temakiExitPrice = reserve;\n        } else {\n            temakiExitPrice = temakiToken.totalSupply() / reserve;\n        }\n        //check if winner\n        if (lotteryTicket == number) {\n            //winner\n            //get pool prize\n            //send money to winer - !CHECK IF COMPLETED!\n            (bool sent, bytes memory data) = payable(msg.sender).call{\n                value: prize\n            }(\"\");\n            require(sent, \"Failed to send Ether\");\n            emit WonBet(msg.sender, prize);\n            //adjust pool\n            pool = pool - prize;\n            //adjust prize\n            prize = pool / 2;\n        } else {\n            emit LostBet(msg.sender);\n        }\n    }\n\n    //SUPPORT FUNCTIONS\n    //generate random - !CONNECT CHAIN LINK!\n    function random(uint256 number) public view returns (uint256) {\n        return\n            uint256(\n                keccak256(\n                    abi.encodePacked(\n                        block.timestamp,\n                        block.difficulty,\n                        msg.sender\n                    )\n                )\n            ) % number;\n    }\n}\n",
  "sourcePath": "/home/dcca/Documents/swap/contracts/TemakiBar.sol",
  "compiler": {
    "name": "solc",
    "version": "0.8.11+commit.d7f03943.Emscripten.clang"
  },
  "schemaVersion": "3.4.4",
  "updatedAt": "2022-02-19T18:16:40.425Z",
  "networkType": "ethereum",
  "devdoc": {
    "kind": "dev",
    "methods": {
      "owner()": {
        "details": "Returns the address of the current owner."
      },
      "renounceOwnership()": {
        "details": "Leaves the contract without owner. It will not be possible to call `onlyOwner` functions anymore. Can only be called by the current owner. NOTE: Renouncing ownership will leave the contract without an owner, thereby removing any functionality that is only available to the owner."
      },
      "transferOwnership(address)": {
        "details": "Transfers ownership of the contract to a new account (`newOwner`). Can only be called by the current owner."
      }
    },
    "version": 1
  },
  "userdoc": {
    "kind": "user",
    "methods": {},
    "version": 1
  }
}