{
  "contractName": "TemakiToken",
  "abi": [
    {
      "inputs": [],
      "stateMutability": "nonpayable",
      "type": "constructor"
    },
    {
      "anonymous": false,
      "inputs": [
        {
          "indexed": true,
          "internalType": "address",
          "name": "owner",
          "type": "address"
        },
        {
          "indexed": true,
          "internalType": "address",
          "name": "spender",
          "type": "address"
        },
        {
          "indexed": false,
          "internalType": "uint256",
          "name": "value",
          "type": "uint256"
        }
      ],
      "name": "Approval",
      "type": "event"
    },
    {
      "anonymous": false,
      "inputs": [
        {
          "indexed": true,
          "internalType": "address",
          "name": "sender",
          "type": "address"
        },
        {
          "indexed": false,
          "internalType": "uint256",
          "name": "amount",
          "type": "uint256"
        }
      ],
      "name": "Burn",
      "type": "event"
    },
    {
      "anonymous": false,
      "inputs": [
        {
          "indexed": true,
          "internalType": "address",
          "name": "sender",
          "type": "address"
        },
        {
          "indexed": false,
          "internalType": "uint256",
          "name": "amount",
          "type": "uint256"
        }
      ],
      "name": "Mint",
      "type": "event"
    },
    {
      "anonymous": false,
      "inputs": [
        {
          "indexed": true,
          "internalType": "address",
          "name": "previousOwner",
          "type": "address"
        },
        {
          "indexed": true,
          "internalType": "address",
          "name": "newOwner",
          "type": "address"
        }
      ],
      "name": "OwnershipTransferred",
      "type": "event"
    },
    {
      "anonymous": false,
      "inputs": [
        {
          "indexed": true,
          "internalType": "address",
          "name": "from",
          "type": "address"
        },
        {
          "indexed": true,
          "internalType": "address",
          "name": "to",
          "type": "address"
        },
        {
          "indexed": false,
          "internalType": "uint256",
          "name": "value",
          "type": "uint256"
        }
      ],
      "name": "Transfer",
      "type": "event"
    },
    {
      "inputs": [],
      "name": "_name",
      "outputs": [
        {
          "internalType": "string",
          "name": "",
          "type": "string"
        }
      ],
      "stateMutability": "view",
      "type": "function"
    },
    {
      "inputs": [],
      "name": "_symbol",
      "outputs": [
        {
          "internalType": "string",
          "name": "",
          "type": "string"
        }
      ],
      "stateMutability": "view",
      "type": "function"
    },
    {
      "inputs": [
        {
          "internalType": "address",
          "name": "owner",
          "type": "address"
        },
        {
          "internalType": "address",
          "name": "spender",
          "type": "address"
        }
      ],
      "name": "allowance",
      "outputs": [
        {
          "internalType": "uint256",
          "name": "",
          "type": "uint256"
        }
      ],
      "stateMutability": "view",
      "type": "function"
    },
    {
      "inputs": [
        {
          "internalType": "address",
          "name": "spender",
          "type": "address"
        },
        {
          "internalType": "uint256",
          "name": "amount",
          "type": "uint256"
        }
      ],
      "name": "approve",
      "outputs": [
        {
          "internalType": "bool",
          "name": "",
          "type": "bool"
        }
      ],
      "stateMutability": "nonpayable",
      "type": "function"
    },
    {
      "inputs": [
        {
          "internalType": "address",
          "name": "account",
          "type": "address"
        }
      ],
      "name": "balanceOf",
      "outputs": [
        {
          "internalType": "uint256",
          "name": "",
          "type": "uint256"
        }
      ],
      "stateMutability": "view",
      "type": "function"
    },
    {
      "inputs": [],
      "name": "decimals",
      "outputs": [
        {
          "internalType": "uint8",
          "name": "",
          "type": "uint8"
        }
      ],
      "stateMutability": "view",
      "type": "function"
    },
    {
      "inputs": [
        {
          "internalType": "address",
          "name": "spender",
          "type": "address"
        },
        {
          "internalType": "uint256",
          "name": "subtractedValue",
          "type": "uint256"
        }
      ],
      "name": "decreaseAllowance",
      "outputs": [
        {
          "internalType": "bool",
          "name": "",
          "type": "bool"
        }
      ],
      "stateMutability": "nonpayable",
      "type": "function"
    },
    {
      "inputs": [
        {
          "internalType": "address",
          "name": "spender",
          "type": "address"
        },
        {
          "internalType": "uint256",
          "name": "addedValue",
          "type": "uint256"
        }
      ],
      "name": "increaseAllowance",
      "outputs": [
        {
          "internalType": "bool",
          "name": "",
          "type": "bool"
        }
      ],
      "stateMutability": "nonpayable",
      "type": "function"
    },
    {
      "inputs": [],
      "name": "name",
      "outputs": [
        {
          "internalType": "string",
          "name": "",
          "type": "string"
        }
      ],
      "stateMutability": "view",
      "type": "function"
    },
    {
      "inputs": [],
      "name": "owner",
      "outputs": [
        {
          "internalType": "address",
          "name": "",
          "type": "address"
        }
      ],
      "stateMutability": "view",
      "type": "function"
    },
    {
      "inputs": [],
      "name": "renounceOwnership",
      "outputs": [],
      "stateMutability": "nonpayable",
      "type": "function"
    },
    {
      "inputs": [],
      "name": "symbol",
      "outputs": [
        {
          "internalType": "string",
          "name": "",
          "type": "string"
        }
      ],
      "stateMutability": "view",
      "type": "function"
    },
    {
      "inputs": [],
      "name": "totalSupply",
      "outputs": [
        {
          "internalType": "uint256",
          "name": "",
          "type": "uint256"
        }
      ],
      "stateMutability": "view",
      "type": "function"
    },
    {
      "inputs": [
        {
          "internalType": "address",
          "name": "to",
          "type": "address"
        },
        {
          "internalType": "uint256",
          "name": "amount",
          "type": "uint256"
        }
      ],
      "name": "transfer",
      "outputs": [
        {
          "internalType": "bool",
          "name": "",
          "type": "bool"
        }
      ],
      "stateMutability": "nonpayable",
      "type": "function"
    },
    {
      "inputs": [
        {
          "internalType": "address",
          "name": "from",
          "type": "address"
        },
        {
          "internalType": "address",
          "name": "to",
          "type": "address"
        },
        {
          "internalType": "uint256",
          "name": "amount",
          "type": "uint256"
        }
      ],
      "name": "transferFrom",
      "outputs": [
        {
          "internalType": "bool",
          "name": "",
          "type": "bool"
        }
      ],
      "stateMutability": "nonpayable",
      "type": "function"
    },
    {
      "inputs": [
        {
          "internalType": "address",
          "name": "newOwner",
          "type": "address"
        }
      ],
      "name": "transferOwnership",
      "outputs": [],
      "stateMutability": "nonpayable",
      "type": "function"
    },
    {
      "inputs": [
        {
          "internalType": "address",
          "name": "buyer",
          "type": "address"
        },
        {
          "internalType": "uint256",
          "name": "amount",
          "type": "uint256"
        }
      ],
      "name": "mint",
      "outputs": [],
      "stateMutability": "nonpayable",
      "type": "function"
    },
    {
      "inputs": [
        {
          "internalType": "address",
          "name": "burner",
          "type": "address"
        },
        {
          "internalType": "uint256",
          "name": "amount",
          "type": "uint256"
        }
      ],
      "name": "burn",
      "outputs": [],
      "stateMutability": "nonpayable",
      "type": "function"
    }
  ],
  "bytecode": "0x60806040526040518060400160405280600b81526020017f54656d616b69546f6b656e0000000000000000000000000000000000000000008152506006908051906020019062000051929190620002fc565b506040518060400160405280600481526020017f544d4b5400000000000000000000000000000000000000000000000000000000815250600790805190602001906200009f929190620002fc565b50348015620000ad57600080fd5b5060068054620000bd90620003db565b80601f0160208091040260200160405190810160405280929190818152602001828054620000eb90620003db565b80156200013c5780601f1062000110576101008083540402835291602001916200013c565b820191906000526020600020905b8154815290600101906020018083116200011e57829003601f168201915b5050505050600780546200015090620003db565b80601f01602080910402602001604051908101604052809291908181526020018280546200017e90620003db565b8015620001cf5780601f10620001a357610100808354040283529160200191620001cf565b820191906000526020600020905b815481529060010190602001808311620001b157829003601f168201915b50505050508160039080519060200190620001ec929190620002fc565b50806004908051906020019062000205929190620002fc565b505050620002286200021c6200022e60201b60201c565b6200023660201b60201c565b62000411565b600033905090565b6000600560009054906101000a900473ffffffffffffffffffffffffffffffffffffffff16905081600560006101000a81548173ffffffffffffffffffffffffffffffffffffffff021916908373ffffffffffffffffffffffffffffffffffffffff1602179055508173ffffffffffffffffffffffffffffffffffffffff168173ffffffffffffffffffffffffffffffffffffffff167f8be0079c531659141344cd1fd0a4f28419497f9722a3daafe3b4186f6b6457e060405160405180910390a35050565b8280546200030a90620003db565b90600052602060002090601f0160209004810192826200032e57600085556200037a565b82601f106200034957805160ff19168380011785556200037a565b828001600101855582156200037a579182015b82811115620003795782518255916020019190600101906200035c565b5b5090506200038991906200038d565b5090565b5b80821115620003a85760008160009055506001016200038e565b5090565b7f4e487b7100000000000000000000000000000000000000000000000000000000600052602260045260246000fd5b60006002820490506001821680620003f457607f821691505b602082108114156200040b576200040a620003ac565b5b50919050565b611f5680620004216000396000f3fe608060405234801561001057600080fd5b50600436106101165760003560e01c80638da5cb5b116100a2578063a9059cbb11610071578063a9059cbb146102e3578063b09f126614610313578063d28d885214610331578063dd62ed3e1461034f578063f2fde38b1461037f57610116565b80638da5cb5b1461025b57806395d89b41146102795780639dc29fac14610297578063a457c2d7146102b357610116565b8063313ce567116100e9578063313ce567146101b757806339509351146101d557806340c10f191461020557806370a0823114610221578063715018a61461025157610116565b806306fdde031461011b578063095ea7b31461013957806318160ddd1461016957806323b872dd14610187575b600080fd5b61012361039b565b6040516101309190611524565b60405180910390f35b610153600480360381019061014e91906115df565b61042d565b604051610160919061163a565b60405180910390f35b610171610450565b60405161017e9190611664565b60405180910390f35b6101a1600480360381019061019c919061167f565b61045a565b6040516101ae919061163a565b60405180910390f35b6101bf610489565b6040516101cc91906116ee565b60405180910390f35b6101ef60048036038101906101ea91906115df565b610492565b6040516101fc919061163a565b60405180910390f35b61021f600480360381019061021a91906115df565b61053c565b005b61023b60048036038101906102369190611709565b610614565b6040516102489190611664565b60405180910390f35b61025961065c565b005b6102636106e4565b6040516102709190611745565b60405180910390f35b61028161070e565b60405161028e9190611524565b60405180910390f35b6102b160048036038101906102ac91906115df565b6107a0565b005b6102cd60048036038101906102c891906115df565b6107fc565b6040516102da919061163a565b60405180910390f35b6102fd60048036038101906102f891906115df565b6108e6565b60405161030a919061163a565b60405180910390f35b61031b610909565b6040516103289190611524565b60405180910390f35b610339610997565b6040516103469190611524565b60405180910390f35b61036960048036038101906103649190611760565b610a25565b6040516103769190611664565b60405180910390f35b61039960048036038101906103949190611709565b610aac565b005b6060600380546103aa906117cf565b80601f01602080910402602001604051908101604052809291908181526020018280546103d6906117cf565b80156104235780601f106103f857610100808354040283529160200191610423565b820191906000526020600020905b81548152906001019060200180831161040657829003601f168201915b5050505050905090565b600080610438610ba4565b9050610445818585610bac565b600191505092915050565b6000600254905090565b600080610465610ba4565b9050610472858285610d77565b61047d858585610e03565b60019150509392505050565b60006012905090565b60008061049d610ba4565b9050610531818585600160008673ffffffffffffffffffffffffffffffffffffffff1673ffffffffffffffffffffffffffffffffffffffff16815260200190815260200160002060008973ffffffffffffffffffffffffffffffffffffffff1673ffffffffffffffffffffffffffffffffffffffff1681526020019081526020016000205461052c9190611830565b610bac565b600191505092915050565b610544610ba4565b73ffffffffffffffffffffffffffffffffffffffff166105626106e4565b73ffffffffffffffffffffffffffffffffffffffff16146105b8576040517f08c379a00000000000000000000000000000000000000000000000000000000081526004016105af906118d2565b60405180910390fd5b6105c28282611084565b8173ffffffffffffffffffffffffffffffffffffffff167f0f6798a560793a54c3bcfe86a93cde1e73087d944c0ea20544137d4121396885826040516106089190611664565b60405180910390a25050565b60008060008373ffffffffffffffffffffffffffffffffffffffff1673ffffffffffffffffffffffffffffffffffffffff168152602001908152602001600020549050919050565b610664610ba4565b73ffffffffffffffffffffffffffffffffffffffff166106826106e4565b73ffffffffffffffffffffffffffffffffffffffff16146106d8576040517f08c379a00000000000000000000000000000000000000000000000000000000081526004016106cf906118d2565b60405180910390fd5b6106e260006111e4565b565b6000600560009054906101000a900473ffffffffffffffffffffffffffffffffffffffff16905090565b60606004805461071d906117cf565b80601f0160208091040260200160405190810160405280929190818152602001828054610749906117cf565b80156107965780601f1061076b57610100808354040283529160200191610796565b820191906000526020600020905b81548152906001019060200180831161077957829003601f168201915b5050505050905090565b6107aa82826112aa565b8173ffffffffffffffffffffffffffffffffffffffff167fcc16f5dbb4873280815c1ee09dbd06736cffcc184412cf7a71a0fdb75d397ca5826040516107f09190611664565b60405180910390a25050565b600080610807610ba4565b90506000600160008373ffffffffffffffffffffffffffffffffffffffff1673ffffffffffffffffffffffffffffffffffffffff16815260200190815260200160002060008673ffffffffffffffffffffffffffffffffffffffff1673ffffffffffffffffffffffffffffffffffffffff168152602001908152602001600020549050838110156108cd576040517f08c379a00000000000000000000000000000000000000000000000000000000081526004016108c490611964565b60405180910390fd5b6108da8286868403610bac565b60019250505092915050565b6000806108f1610ba4565b90506108fe818585610e03565b600191505092915050565b60078054610916906117cf565b80601f0160208091040260200160405190810160405280929190818152602001828054610942906117cf565b801561098f5780601f106109645761010080835404028352916020019161098f565b820191906000526020600020905b81548152906001019060200180831161097257829003601f168201915b505050505081565b600680546109a4906117cf565b80601f01602080910402602001604051908101604052809291908181526020018280546109d0906117cf565b8015610a1d5780601f106109f257610100808354040283529160200191610a1d565b820191906000526020600020905b815481529060010190602001808311610a0057829003601f168201915b505050505081565b6000600160008473ffffffffffffffffffffffffffffffffffffffff1673ffffffffffffffffffffffffffffffffffffffff16815260200190815260200160002060008373ffffffffffffffffffffffffffffffffffffffff1673ffffffffffffffffffffffffffffffffffffffff16815260200190815260200160002054905092915050565b610ab4610ba4565b73ffffffffffffffffffffffffffffffffffffffff16610ad26106e4565b73ffffffffffffffffffffffffffffffffffffffff1614610b28576040517f08c379a0000000000000000000000000000000000000000000000000000000008152600401610b1f906118d2565b60405180910390fd5b600073ffffffffffffffffffffffffffffffffffffffff168173ffffffffffffffffffffffffffffffffffffffff161415610b98576040517f08c379a0000000000000000000000000000000000000000000000000000000008152600401610b8f906119f6565b60405180910390fd5b610ba1816111e4565b50565b600033905090565b600073ffffffffffffffffffffffffffffffffffffffff168373ffffffffffffffffffffffffffffffffffffffff161415610c1c576040517f08c379a0000000000000000000000000000000000000000000000000000000008152600401610c1390611a88565b60405180910390fd5b600073ffffffffffffffffffffffffffffffffffffffff168273ffffffffffffffffffffffffffffffffffffffff161415610c8c576040517f08c379a0000000000000000000000000000000000000000000000000000000008152600401610c8390611b1a565b60405180910390fd5b80600160008573ffffffffffffffffffffffffffffffffffffffff1673ffffffffffffffffffffffffffffffffffffffff16815260200190815260200160002060008473ffffffffffffffffffffffffffffffffffffffff1673ffffffffffffffffffffffffffffffffffffffff168152602001908152602001600020819055508173ffffffffffffffffffffffffffffffffffffffff168373ffffffffffffffffffffffffffffffffffffffff167f8c5be1e5ebec7d5bd14f71427d1e84f3dd0314c0f7b2291e5b200ac8c7c3b92583604051610d6a9190611664565b60405180910390a3505050565b6000610d838484610a25565b90507fffffffffffffffffffffffffffffffffffffffffffffffffffffffffffffffff8114610dfd5781811015610def576040517f08c379a0000000000000000000000000000000000000000000000000000000008152600401610de690611b86565b60405180910390fd5b610dfc8484848403610bac565b5b50505050565b600073ffffffffffffffffffffffffffffffffffffffff168373ffffffffffffffffffffffffffffffffffffffff161415610e73576040517f08c379a0000000000000000000000000000000000000000000000000000000008152600401610e6a90611c18565b60405180910390fd5b600073ffffffffffffffffffffffffffffffffffffffff168273ffffffffffffffffffffffffffffffffffffffff161415610ee3576040517f08c379a0000000000000000000000000000000000000000000000000000000008152600401610eda90611caa565b60405180910390fd5b610eee838383611481565b60008060008573ffffffffffffffffffffffffffffffffffffffff1673ffffffffffffffffffffffffffffffffffffffff16815260200190815260200160002054905081811015610f74576040517f08c379a0000000000000000000000000000000000000000000000000000000008152600401610f6b90611d3c565b60405180910390fd5b8181036000808673ffffffffffffffffffffffffffffffffffffffff1673ffffffffffffffffffffffffffffffffffffffff16815260200190815260200160002081905550816000808573ffffffffffffffffffffffffffffffffffffffff1673ffffffffffffffffffffffffffffffffffffffff16815260200190815260200160002060008282546110079190611830565b925050819055508273ffffffffffffffffffffffffffffffffffffffff168473ffffffffffffffffffffffffffffffffffffffff167fddf252ad1be2c89b69c2b068fc378daa952ba7f163c4a11628f55a4df523b3ef8460405161106b9190611664565b60405180910390a361107e848484611486565b50505050565b600073ffffffffffffffffffffffffffffffffffffffff168273ffffffffffffffffffffffffffffffffffffffff1614156110f4576040517f08c379a00000000000000000000000000000000000000000000000000000000081526004016110eb90611da8565b60405180910390fd5b61110060008383611481565b80600260008282546111129190611830565b92505081905550806000808473ffffffffffffffffffffffffffffffffffffffff1673ffffffffffffffffffffffffffffffffffffffff16815260200190815260200160002060008282546111679190611830565b925050819055508173ffffffffffffffffffffffffffffffffffffffff16600073ffffffffffffffffffffffffffffffffffffffff167fddf252ad1be2c89b69c2b068fc378daa952ba7f163c4a11628f55a4df523b3ef836040516111cc9190611664565b60405180910390a36111e060008383611486565b5050565b6000600560009054906101000a900473ffffffffffffffffffffffffffffffffffffffff16905081600560006101000a81548173ffffffffffffffffffffffffffffffffffffffff021916908373ffffffffffffffffffffffffffffffffffffffff1602179055508173ffffffffffffffffffffffffffffffffffffffff168173ffffffffffffffffffffffffffffffffffffffff167f8be0079c531659141344cd1fd0a4f28419497f9722a3daafe3b4186f6b6457e060405160405180910390a35050565b600073ffffffffffffffffffffffffffffffffffffffff168273ffffffffffffffffffffffffffffffffffffffff16141561131a576040517f08c379a000000000000000000000000000000000000000000000000000000000815260040161131190611e3a565b60405180910390fd5b61132682600083611481565b60008060008473ffffffffffffffffffffffffffffffffffffffff1673ffffffffffffffffffffffffffffffffffffffff168152602001908152602001600020549050818110156113ac576040517f08c379a00000000000000000000000000000000000000000000000000000000081526004016113a390611ecc565b60405180910390fd5b8181036000808573ffffffffffffffffffffffffffffffffffffffff1673ffffffffffffffffffffffffffffffffffffffff1681526020019081526020016000208190555081600260008282546114039190611eec565b92505081905550600073ffffffffffffffffffffffffffffffffffffffff168373ffffffffffffffffffffffffffffffffffffffff167fddf252ad1be2c89b69c2b068fc378daa952ba7f163c4a11628f55a4df523b3ef846040516114689190611664565b60405180910390a361147c83600084611486565b505050565b505050565b505050565b600081519050919050565b600082825260208201905092915050565b60005b838110156114c55780820151818401526020810190506114aa565b838111156114d4576000848401525b50505050565b6000601f19601f8301169050919050565b60006114f68261148b565b6115008185611496565b93506115108185602086016114a7565b611519816114da565b840191505092915050565b6000602082019050818103600083015261153e81846114eb565b905092915050565b600080fd5b600073ffffffffffffffffffffffffffffffffffffffff82169050919050565b60006115768261154b565b9050919050565b6115868161156b565b811461159157600080fd5b50565b6000813590506115a38161157d565b92915050565b6000819050919050565b6115bc816115a9565b81146115c757600080fd5b50565b6000813590506115d9816115b3565b92915050565b600080604083850312156115f6576115f5611546565b5b600061160485828601611594565b9250506020611615858286016115ca565b9150509250929050565b60008115159050919050565b6116348161161f565b82525050565b600060208201905061164f600083018461162b565b92915050565b61165e816115a9565b82525050565b60006020820190506116796000830184611655565b92915050565b60008060006060848603121561169857611697611546565b5b60006116a686828701611594565b93505060206116b786828701611594565b92505060406116c8868287016115ca565b9150509250925092565b600060ff82169050919050565b6116e8816116d2565b82525050565b600060208201905061170360008301846116df565b92915050565b60006020828403121561171f5761171e611546565b5b600061172d84828501611594565b91505092915050565b61173f8161156b565b82525050565b600060208201905061175a6000830184611736565b92915050565b6000806040838503121561177757611776611546565b5b600061178585828601611594565b925050602061179685828601611594565b9150509250929050565b7f4e487b7100000000000000000000000000000000000000000000000000000000600052602260045260246000fd5b600060028204905060018216806117e757607f821691505b602082108114156117fb576117fa6117a0565b5b50919050565b7f4e487b7100000000000000000000000000000000000000000000000000000000600052601160045260246000fd5b600061183b826115a9565b9150611846836115a9565b9250827fffffffffffffffffffffffffffffffffffffffffffffffffffffffffffffffff0382111561187b5761187a611801565b5b828201905092915050565b7f4f776e61626c653a2063616c6c6572206973206e6f7420746865206f776e6572600082015250565b60006118bc602083611496565b91506118c782611886565b602082019050919050565b600060208201905081810360008301526118eb816118af565b9050919050565b7f45524332303a2064656372656173656420616c6c6f77616e63652062656c6f7760008201527f207a65726f000000000000000000000000000000000000000000000000000000602082015250565b600061194e602583611496565b9150611959826118f2565b604082019050919050565b6000602082019050818103600083015261197d81611941565b9050919050565b7f4f776e61626c653a206e6577206f776e657220697320746865207a65726f206160008201527f6464726573730000000000000000000000000000000000000000000000000000602082015250565b60006119e0602683611496565b91506119eb82611984565b604082019050919050565b60006020820190508181036000830152611a0f816119d3565b9050919050565b7f45524332303a20617070726f76652066726f6d20746865207a65726f2061646460008201527f7265737300000000000000000000000000000000000000000000000000000000602082015250565b6000611a72602483611496565b9150611a7d82611a16565b604082019050919050565b60006020820190508181036000830152611aa181611a65565b9050919050565b7f45524332303a20617070726f766520746f20746865207a65726f20616464726560008201527f7373000000000000000000000000000000000000000000000000000000000000602082015250565b6000611b04602283611496565b9150611b0f82611aa8565b604082019050919050565b60006020820190508181036000830152611b3381611af7565b9050919050565b7f45524332303a20696e73756666696369656e7420616c6c6f77616e6365000000600082015250565b6000611b70601d83611496565b9150611b7b82611b3a565b602082019050919050565b60006020820190508181036000830152611b9f81611b63565b9050919050565b7f45524332303a207472616e736665722066726f6d20746865207a65726f20616460008201527f6472657373000000000000000000000000000000000000000000000000000000602082015250565b6000611c02602583611496565b9150611c0d82611ba6565b604082019050919050565b60006020820190508181036000830152611c3181611bf5565b9050919050565b7f45524332303a207472616e7366657220746f20746865207a65726f206164647260008201527f6573730000000000000000000000000000000000000000000000000000000000602082015250565b6000611c94602383611496565b9150611c9f82611c38565b604082019050919050565b60006020820190508181036000830152611cc381611c87565b9050919050565b7f45524332303a207472616e7366657220616d6f756e742065786365656473206260008201527f616c616e63650000000000000000000000000000000000000000000000000000602082015250565b6000611d26602683611496565b9150611d3182611cca565b604082019050919050565b60006020820190508181036000830152611d5581611d19565b9050919050565b7f45524332303a206d696e7420746f20746865207a65726f206164647265737300600082015250565b6000611d92601f83611496565b9150611d9d82611d5c565b602082019050919050565b60006020820190508181036000830152611dc181611d85565b9050919050565b7f45524332303a206275726e2066726f6d20746865207a65726f2061646472657360008201527f7300000000000000000000000000000000000000000000000000000000000000602082015250565b6000611e24602183611496565b9150611e2f82611dc8565b604082019050919050565b60006020820190508181036000830152611e5381611e17565b9050919050565b7f45524332303a206275726e20616d6f756e7420657863656564732062616c616e60008201527f6365000000000000000000000000000000000000000000000000000000000000602082015250565b6000611eb6602283611496565b9150611ec182611e5a565b604082019050919050565b60006020820190508181036000830152611ee581611ea9565b9050919050565b6000611ef7826115a9565b9150611f02836115a9565b925082821015611f1557611f14611801565b5b82820390509291505056fea2646970667358221220ae9317efb65badf7575b0e295c74a5a3323f13227028563a25908d5eb7f2903564736f6c634300080b0033",
  "immutableReferences": {},
  "source": "// SPDX-License-Identifier: GPL-3.0\n\npragma solidity ^0.8.0;\n\nimport \"@openzeppelin/contracts/token/ERC20/ERC20.sol\";\nimport \"@openzeppelin/contracts/access/Ownable.sol\";\nimport \"@openzeppelin/contracts/utils/math/SafeMath.sol\";\n\ncontract TemakiToken is ERC20, Ownable {\n    using SafeMath for uint256;\n\n    string public _name = \"TemakiToken\";\n    string public _symbol = \"TMKT\";\n\n    constructor() ERC20(_name, _symbol) {}\n\n    event Mint(address indexed sender, uint256 amount);\n    event Burn(address indexed sender, uint256 amount);\n\n    function mint(address buyer, uint256 amount) public onlyOwner {\n        _mint(buyer, amount);\n        emit Mint(buyer, amount);\n    }\n\n    function burn(address burner, uint256 amount) public {\n        _burn(burner, amount);\n        emit Burn(burner, amount);\n    }\n}\n\ncontract TokenSwap {\n    using SafeMath for uint256;\n\n    //Declare variables\n    IERC20 public token1;\n    IERC20 public token2;\n    address public owner1;\n    address public owner2;\n    uint256 public amount1;\n    uint256 public amount2;\n\n    constructor(\n        address _owner1,\n        uint256 _amount1,\n        IERC20 _token1,\n        address _owner2,\n        uint256 _amount2,\n        IERC20 _token2\n    ) {\n        //first customer\n        owner1 = _owner1;\n        amount1 = _amount1;\n        token1 = IERC20(_token1);\n        //second customer\n        owner2 = _owner2;\n        amount2 = _amount2;\n        token2 = IERC20(_token2);\n    }\n\n    //create the swap function\n    function swap() public {\n        //check if the address calling the function is one of the owners in the contract\n        require(msg.sender == owner1 || msg.sender == owner2, \"Not authorized\");\n        //check the allowance of the first owner\n        require(\n            token1.allowance(owner1, address(this)) >= amount1,\n            \"Token 1 allowance is too low...\"\n        );\n        //check the allowance of the second owner\n        require(\n            token2.allowance(owner2, address(this)) >= amount2,\n            \"Token 2 allowance is too low...\"\n        );\n        //Make the transfer\n        _safeTransferFrom(token1, owner1, owner2, amount1);\n        _safeTransferFrom(token2, owner2, owner1, amount2);\n    }\n\n    //create the transferFrom function\n    function _safeTransferFrom(\n        IERC20 token,\n        address sender,\n        address recipient,\n        uint256 amount\n    ) private {\n        bool sent = token.transferFrom(sender, recipient, amount);\n        require(sent, \"Token transfer failed\");\n    }\n}\n",
  "sourcePath": "/home/dcca/Documents/swap/contracts/TemakiToken.sol",
  "compiler": {
    "name": "solc",
    "version": "0.8.11+commit.d7f03943.Emscripten.clang"
  },
  "schemaVersion": "3.4.4",
  "updatedAt": "2022-02-18T10:05:24.245Z",
  "devdoc": {
    "kind": "dev",
    "methods": {
      "allowance(address,address)": {
        "details": "See {IERC20-allowance}."
      },
      "approve(address,uint256)": {
        "details": "See {IERC20-approve}. NOTE: If `amount` is the maximum `uint256`, the allowance is not updated on `transferFrom`. This is semantically equivalent to an infinite approval. Requirements: - `spender` cannot be the zero address."
      },
      "balanceOf(address)": {
        "details": "See {IERC20-balanceOf}."
      },
      "decimals()": {
        "details": "Returns the number of decimals used to get its user representation. For example, if `decimals` equals `2`, a balance of `505` tokens should be displayed to a user as `5.05` (`505 / 10 ** 2`). Tokens usually opt for a value of 18, imitating the relationship between Ether and Wei. This is the value {ERC20} uses, unless this function is overridden; NOTE: This information is only used for _display_ purposes: it in no way affects any of the arithmetic of the contract, including {IERC20-balanceOf} and {IERC20-transfer}."
      },
      "decreaseAllowance(address,uint256)": {
        "details": "Atomically decreases the allowance granted to `spender` by the caller. This is an alternative to {approve} that can be used as a mitigation for problems described in {IERC20-approve}. Emits an {Approval} event indicating the updated allowance. Requirements: - `spender` cannot be the zero address. - `spender` must have allowance for the caller of at least `subtractedValue`."
      },
      "increaseAllowance(address,uint256)": {
        "details": "Atomically increases the allowance granted to `spender` by the caller. This is an alternative to {approve} that can be used as a mitigation for problems described in {IERC20-approve}. Emits an {Approval} event indicating the updated allowance. Requirements: - `spender` cannot be the zero address."
      },
      "name()": {
        "details": "Returns the name of the token."
      },
      "owner()": {
        "details": "Returns the address of the current owner."
      },
      "renounceOwnership()": {
        "details": "Leaves the contract without owner. It will not be possible to call `onlyOwner` functions anymore. Can only be called by the current owner. NOTE: Renouncing ownership will leave the contract without an owner, thereby removing any functionality that is only available to the owner."
      },
      "symbol()": {
        "details": "Returns the symbol of the token, usually a shorter version of the name."
      },
      "totalSupply()": {
        "details": "See {IERC20-totalSupply}."
      },
      "transfer(address,uint256)": {
        "details": "See {IERC20-transfer}. Requirements: - `to` cannot be the zero address. - the caller must have a balance of at least `amount`."
      },
      "transferFrom(address,address,uint256)": {
        "details": "See {IERC20-transferFrom}. Emits an {Approval} event indicating the updated allowance. This is not required by the EIP. See the note at the beginning of {ERC20}. NOTE: Does not update the allowance if the current allowance is the maximum `uint256`. Requirements: - `from` and `to` cannot be the zero address. - `from` must have a balance of at least `amount`. - the caller must have allowance for ``from``'s tokens of at least `amount`."
      },
      "transferOwnership(address)": {
        "details": "Transfers ownership of the contract to a new account (`newOwner`). Can only be called by the current owner."
      }
    },
    "version": 1
  },
  "userdoc": {
    "kind": "user",
    "methods": {},
    "version": 1
  }
}